:020000040802F0
:100000000040022085F20208D9E20208E1E202087B
:1000100000000000000000000000000000000000E0
:10002000000000000000000000000000E9E20208FB
:100030000000000000000000F3E20208FDE20208F8
:10004000D5F2020800000000D5F20208D5F202083D
:10005000D5F20208D5F20208D5F202080BE3020835
:1000600045E30208D5F20208D5F20208D5F20208EB
:100070005DE30208D5F20208D5F202080000000094
:10008000D5F20208D5F20208D5F20208D5F202082C
:10009000D5F20208D5F20208D5F20208D5F202081C
:1000A000D5F20208D5F20208D5F20208D5F202080C
:0800B00075E302088DE302086C
:1000B80010B5064C2378002B07D1054B002B02D036
:1000C800044800E000BF0123237010BDC8160020BB
:1000D8000000000074FD0308044B10B5002B03D08A
:1000E8000349044800E000BF10BDC04600000000FE
:1000F800CC16002074FD030802780B78002A03D080
:10010800013001319A42F7D0D01A70470023C25CFF
:100118000133002AFBD1581E7047000002B4714613
:1001280049084900095C49008E4402BC7047C04632
:1001380003B47146490840004900095E49008E44ED
:1001480003BC7047002243088B4274D303098B42D7
:100158005FD3030A8B4244D3030B8B4228D3030C8F
:100168008B420DD3FF22090212BA030C8B4202D331
:100178001212090265D0030B8B4219D300E0090A59
:10018800C30B8B4201D3CB03C01A5241830B8B4262
:1001980001D38B03C01A5241430B8B4201D34B034B
:1001A800C01A5241030B8B4201D30B03C01A5241B0
:1001B800C30A8B4201D3CB02C01A5241830A8B4235
:1001C80001D38B02C01A5241430A8B4201D34B021E
:1001D800C01A5241030A8B4201D30B02C01A524182
:1001E800CDD2C3098B4201D3CB01C01A5241830936
:1001F8008B4201D38B01C01A524143098B4201D370
:100208004B01C01A524103098B4201D30B01C01A9A
:100218005241C3088B4201D3CB00C01A5241830814
:100228008B4201D38B00C01A524143088B4201D341
:100238004B00C01A5241411A00D2014652411046A1
:100248007047FFE701B5002000F0F0F802BDC04696
:100258000029F7D076E7704703460B437FD4002286
:1002680043088B4274D303098B425FD3030A8B4242
:1002780044D3030B8B4228D3030C8B420DD3FF22AC
:10028800090212BA030C8B4202D31212090265D07A
:10029800030B8B4219D300E0090AC30B8B4201D32D
:1002A800CB03C01A5241830B8B4201D38B03C01A74
:1002B8005241430B8B4201D34B03C01A5241030BEB
:1002C8008B4201D30B03C01A5241C30A8B4201D39C
:1002D800CB02C01A5241830A8B4201D38B02C01A47
:1002E8005241430A8B4201D34B02C01A5241030ABE
:1002F8008B4201D30B02C01A5241CDD2C3098B42A3
:1003080001D3CB01C01A524183098B4201D38B011F
:10031800C01A524143098B4201D34B01C01A5241C2
:1003280003098B4201D30B01C01A5241C3088B4207
:1003380001D3CB00C01A524183088B4201D38B00F2
:10034800C01A524143088B4201D34B00C01A524194
:10035800411A00D201465241104670475DE0CA0F6B
:1003680000D04942031000D34042534000229C462B
:1003780003098B422DD3030A8B4212D3FC22890135
:1003880012BA030A8B420CD3890192118B4208D30B
:10039800890192118B4204D389013AD0921100E06D
:1003A8008909C3098B4201D3CB01C01A5241830981
:1003B8008B4201D38B01C01A524143098B4201D3AE
:1003C8004B01C01A524103098B4201D30B01C01AD9
:1003D8005241C3088B4201D3CB00C01A5241830853
:1003E8008B4201D38B00C01A5241D9D243088B42A9
:1003F80001D34B00C01A5241411A00D2014663464C
:1004080052415B10104601D34042002B00D54942AF
:10041800704763465B1000D3404201B5002000F0EE
:1004280005F802BD0029F8D016E770477047C046A6
:100438008446100062468C461900634600E0C046B8
:100448001FB501F02DFC002801D40021C8421FBDB2
:1004580010B501F071FB4042013010BD10B501F03C
:100468001FFC002801DB002010BD012010BDC04684
:1004780010B501F015FC002801DD002010BD012099
:1004880010BDC04610B501F09BFB002801DC002020
:1004980010BD012010BDC04610B501F091FB002829
:1004A80001DA002010BD012010BDC04684460800B6
:1004B8006146FFE71FB500F029FA002801D40021A2
:1004C800C8421FBD10B500F0B1F94042013010BD5F
:1004D80010B500F01BFA002801DB002010BD012038
:1004E80010BDC04610B500F011FA002801DD00204B
:1004F80010BD012010BDC04610B500F0BFF900289E
:1005080001DC002010BD012010BDC04610B500F070
:10051800B5F9002801DA002010BD012010BDC04641
:10052800002B15D1002A13D1002906DB01DC002895
:1005380006D00020C043410802E0802109060020BF
:1005480007B4024801A14018029003BDE1FEFFFF75
:1005580003B4684601B5029800F034F8019B9E4642
:1005680002B00CBC7047C046F0B5CE469946030CA5
:100578009C46130447461B0C1D000E0061460404EC
:10058800240C80B50700100C4B436543414360437E
:100598002C0CC01824188C46A34203D980235B0274
:1005A8009846C444494679435643230C2D042D0CE0
:1005B8008919634424046019C918C0BCB946B046F7
:1005C800F0BDC046F8B5CE46474680B59146984638
:1005D80004000D0002F05AFC07000E0002000B0098
:1005E80048464146FFF7C0FF241A8D41089B380052
:1005F80031001C605D60C0BCB946B046F8BDC0465D
:10060800F0B546464F46D6464502C0B5C30F47002B
:1006180098460E1C6D0A3F0E5BD0FF2F21D0802319
:10062800ED00DB041D43002399469A467F3F740280
:100638007300640A1B0EF60F002B20D0FF2B43D04B
:1006480080220020E400D20414437F3B4246FF1A74
:100658004B4672400F2B00D99DE071499B00CB5847
:100668009F46002D5AD108239946063B74029A46A4
:100678007300FF27640A1B0EF60F002BDED1002C37
:100688003BD1012342464946724019430E2918D8E6
:100698006448890041588F465346022B00D1B8E080
:1006A800032B6ED042462C00012B40D100200024A1
:1006B800C0052043D2071043E0BCBA46B146A8465D
:1006C800F0BDFF200024F3E7002C20D10223FF3FD8
:1006D800D8E7002D05D104239946033B00279A4605
:1006E800A5E7280002F0B4FB7627431F9D400023AE
:1006F8007F4299469A463F1A99E7200002F0A8FBE4
:10070800431F9C4076235B421B1A00209EE703236D
:100718004A461A4391460320FC3397E70C2399462F
:10072800093BFF279A4682E703282CD0320038007D
:100738007F30002847DD630704D00F232340042BB4
:1007480000D00434230103D53800374B80301C40D7
:10075800FE28B6DCA401640AC0B2A9E780240022FE
:10076800FF20E403A4E78023DB031D4201D01C42E1
:100778000BD08024E4032C4364024246FF20640A21
:1007880096E746462C008023DB031C4364023200B4
:10079800FF20640A8CE76D01600185422DD21B237E
:1007A8000024013F0126290064006D00002901DBB7
:1007B800854201D32D1A3443013B002BF3D16B1E24
:1007C8009D412C43B3E701231B1A1B2B00DD6DE76A
:1007D80021009E37D940BC400B00611E8C41234349
:1007E800590704D00F211940042900D004335901B6
:1007F80013D49B0100205C0A5AE71A2301242D1AFE
:10080800D0E7981E43425841404232000024C0B20B
:100818004EE74246FF2000244AE70120002447E72C
:10082800D40C0408140D0408FFFFFFF770B542004C
:100838004E024C0045026D0A120EC30F760A240EB2
:10084800C90FFF2A10D0FF2C0CD00120A2420AD1D8
:10085800B54208D18B420FD0002A04D12800431E8C
:10086800984100E0012070BD0120FF2CFBD13543E9
:10087800F9D14B401800F6E70020F4E730B5420004
:1008880044024D02C30F4800640A120E6D0A000E9E
:10089800C90FFF2A18D0FF280AD0002A1ED1002825
:1008A8000AD1002D29D0002C2DD14800013830BDA7
:1008B800002D25D1002A01D1002CF6D08B4219D069
:1008C80001205B421843F2E7002C19D1FF28F7D129
:1008D800002D15D100208B42F2D1E8E70028EFD097
:1008E8008B42EDD18242EBDC04DBAC42E8D800203D
:1008F800AC42DCD258000138D9E7002CD7D0DFE76A
:1009080002204042D3E78B42DAD1EEE730B542000D
:1009180044024D02C30F4800640A120E6D0A000E0D
:10092800C90FFF2A17D0FF280AD0002A1BD1002898
:100938000AD1002D1DD0002C2DD14800013811E01E
:10094800002D0ED1002A01D1002CF6D08B420CD1FB
:100958005800013806E0002C03D1FF2805D1002DEE
:1009680015D0022030BD002806D101205B42184373
:10097800F8E7002CF6D0F8E78B42F6D18242F4DC97
:10098800E6DBAC42F1D80020AC42EBD2E0E7002035
:100998008B42EAD1E6E78B42E7D1F2E7F0B54F4662
:1009A8004646D6464400C0B546020F1C760A240EB9
:1009B800C50F002C00D1DAE0FF2C74D08023F6009C
:1009C800DB041E43002399469A467F3C7B025B0A60
:1009D80098467B001B0EFF0F002B74D0FF2B00D115
:1009E8008EE042468021D200C90411437F3B2A0091
:1009F800E4184B467A408846D2B20A2B75DC4B463F
:100A08000020022B0FDD494601238B40A621C90097
:100A18000B4269D1902189000B4200D000E1882166
:100A2800194200D0F5E041460904090C4346080084
:100A3800350C36041B0C360C704369435E435D432A
:100A48007618030C9B19994203D9802149028C46D8
:100A5800654400041904000C09188E01701E8641B3
:100A68001B0C890E5B190E439B011E431B016CD4A2
:100A780023007F33002B00DCB1E0150071070BD099
:100A88000F2021003040042806D00436320103D557
:100A98006E4B1E400B008033FE2B00DDBDE0B20123
:100AA800520ADBB248E0002E00D092E008239946B3
:100AB800063B9A467B025B0A98467B00FF241B0E86
:100AC800FF0F002B8AD14246002A64D149460132E1
:100AD800114389460A2908DC7D400120EAB202292F
:100AE80091DC1500002227E015005346022B00D1A7
:100AF80093E0032B1AD0012B2CD1002300221BE0FA
:100B08004346FF34002B55D003214B460B431900B5
:100B18000A2B00DC92E00F2B00D08CE08022D2035D
:100B2800164203D04346134200D17DE08022D2030F
:100B380032435202520AFF23D805ED0710432843D7
:100B4800E0BCBA46B146A846F0BD012315007108BD
:100B58001E400E4323008033611C002B41DD7207C9
:100B680094D00F223240042A00D08EE78EE7002E60
:100B780005D104239946033B00249A4626E7300012
:100B880002F066F97624431F9E400023644299468A
:100B98009A46241A1AE7404602F05AF94B46241A94
:100BA800763C0A2BA1DC4346053883407D409846B5
:100BB800EAB224E74A46023313432A007A40D2B203
:100BC8000A2B92DC49461500002926D099460220B6
:100BD80019E70C239946093BFF249A46F6E61500C7
:100BE80021000122D31A1B2B00DD86E79E3132003B
:100BF8008E40DA40731E9E413243530704D00F23C0
:100C08001340042B00D00432530110D501230022D5
:100C180092E73D004646824667E7FF2300228BE7BE
:100C280080220025D20386E73D001A4383E792011C
:100C38000023520A80E73D00464677E72A00012351
:100C48007A408B400320D2B2E9E6C046FFFFFFF7A7
:100C580070B5002812D0C317C5185D40C40F28000E
:100C680002F0F6F89E231B1A962B0FDC082838D0C2
:100C7800083885406D026D0AD8B202E000240020D1
:100C88000025C0052843E407204370BD992B14DCD8
:100C9800421F95402A001549114055071CD00F25C1
:100CA8002A40042A18D00431CA08490115D59F23BF
:100CB8005202181A550AC0B2E3E705222900121A8F
:100CC800D14002001B3295402A00551EAA410A4312
:100CD800064911405507E2D1CA085202550AD8B24E
:100CE800CFE76D026D0A8E30CBE7C046FFFFFFFBF2
:100CF80010B5041E0DD002F0ABF89E231B1A962BDC
:100D08000CDC082834D0083884406402640AD8B25D
:100D180001E000200024C005204310BD992B13DCFE
:100D2800421F9440144A224061071CD00F212140E1
:100D3800042918D00432D408520115D59F2364021F
:100D4800181A640AC0B2E6E7020021001B3291407B
:100D58000A00511E8A410521091ACC401443064A4B
:100D680022406107E2D1D4086402640AD8B2D2E70B
:100D78006402640A8E30CEE7FFFFFFFBF0B54F46F2
:100D88004646D646C0B582B0009001910E034C008D
:100D9800CD0F710A009E5F00760F0E4300990092F6
:100DA8000193C900894619037B0D9846019B490A9E
:100DB800DB0F9C46009B009A5B0F0B434146640D7A
:100DC800D200611A654500D1A6E0002972DD4746C8
:100DD800002F00D1DDE0CC4FBC4200D19AE10127C1
:100DE800382917DC80273F043B431F2900DDDDE15C
:100DF8002027781A1F008740BA461700CF4084463C
:100E080038005746074360468240CB40501E824117
:100E1800F61A17434B46DF1BB94580414042361A44
:100E2800330200D4FFE07602760A002E00D13CE1BE
:100E3800300002F00DF80300083B20213800CA1AE0
:100E4800D0409E4002009F4032439C4200DDA6E114
:100E5800181B0130091A3E008F40C6407B1E9F4177
:100E680013008B4037431F43C2403B001600002449
:100E7800134300D1DFE17B0700D132E30F233A00AF
:100E88003B40042B04D03A1DBA42BF417F42F619B9
:100E9800330200D423E39C4B01349C4200D1B4E0DC
:100EA8009A4B64051E40640D7707D20876021743F3
:100EB800360BACE0002900D17EE04146091B002C2E
:100EC80000D060E134004846044300D1C9E14C1E1B
:100ED800012900D12EE28C4DA94200D124E201273C
:100EE800382C11DC21001F2900DD0BE220243700FB
:100EF8004846641AA740C84007434846A040CE4029
:100F0800441EA0419B1B0743D71BBA429241524241
:100F1800654644469E1A83E7002900DC9CE0474664
:100F2800002F67D11F00174300D1E4E0481E0129B4
:100F380000D19BE1744FB94200D1EBE001270100D9
:100F4800382811DC1F2900DDC7E12027781A1F0087
:100F5800844687401000C840074360468240CB4023
:100F6800501E8241F61817434F444F458041404276
:100F78003618330257D5644B01349C4245D00121C1
:100F8800624B7A081E4039400A43F7071743760830
:100F980071E71F00174300D1ADE04F1EBC46012981
:100FA80000D182E1584FB94200D190E16146012752
:100FB800382900DD2EE718E7554F611C394200D06B
:100FC800D0E0310048461F0001431743002C00D0F1
:100FD8003DE1002900D1BCE1002F00D0BFE14B4624
:100FE8000021D80877070743F00806034C05360B9D
:100FF800640D0CE0444FBC4200D18BE00127382936
:10100800B2DC80273F043B439CE7002600272405E9
:101018003443ED072C433800210002B0E0BCBA4647
:10102800B146A846F0BD7B0704D00F233B40042BF4
:1010380000D028E7F808344B77070743F0089C42AC
:1010480000D04AE23B00034359D0802636030643CA
:1010580036032D4C360BDAE7002961D04146091BCF
:10106800002C00D1B9E0284CA04500D1A5E101270A
:10107800382913DC8024240426431F2900DDC8E115
:10108800202437004846641AA740C840074348460A
:10109800A040CE40441EA0419B190743BF18974269
:1010A800924152424446D61863E7380001F0D0FE18
:1010B800030018331F2B00DCBFE63A0008388240D3
:1010C8009C4200DD83E01B1B581C1F2800DCB4E198
:1010D80017001F3BDF40202805D040231B1A9A40E9
:1010E800531E9A4117430024002F0AD07B0700D0D3
:1010F800C4E626009EE74B460C00D8089BE700276D
:10110800014C002683E7C046FF070000FFFF7FFF72
:10111800FE0700004B467707D8080743F00891E719
:10112800CD4F611C39426BD1310048460143002C38
:1011380000D04BE11F001743002900D181E1002FA7
:1011480000D14CE74A444A458041F61840423618D7
:10115800330200D5B0E117009146374300D03EE78F
:10116800002654E74946891A8846C145BF41F11A05
:101178007F42C91B0F0261D447460F4300D1BDE02F
:101188000E00474651E6B54CA04500D100E10127C5
:10119800382900DDB8E6802424042643A3E6B04EAF
:1011A800E41A16407B0700D03FE743E70F0018001A
:1011B800203FF8408446202903D04027791A8B40E5
:1011C8001A43531E9A41634617001F4322E6A44858
:1011D800E11A10404707C00807E7340048460443AF
:1011E80000D1FAE04C1E012900D1D7E09B4FB9424B
:1011F80000D1E2E00127382C00DD4FE721003CE771
:10120800964CA14200D1DDE04A444A458041F3189A
:1012180040421818C707520817434608520705D016
:101228000F220C003A40042A00D02CE67607FF086B
:1012380037430009D9E600270026E8E64946571A49
:10124800BA4292419E1B52426546B61AEDE5002904
:1012580000D0C6E0002F67D1802600257F4C3603DA
:10126800D5E665460C001E00D008E4E64A444A4527
:101278008041F318404218181100030200D496E088
:10128800774B49081840C3070B434408490700D166
:1012980029E10F221A40042A00D1EAE01F1D9F42CB
:1012A800B641764236190224C4E649468F1AB94532
:1012B8008041F61A4042361A330206D47307FF08F3
:1012C80001211F43F00890E665460124ABE54B4633
:1012D8007707D8080743F008B4E60F001800203F46
:1012E800F8408446202903D04027791A8B401A43B6
:1012F800531E9A41634617001F4335E60025002414
:10130800002684E60C003500203CE540202905D065
:101318004024611A8E404946314389464846411E59
:10132800884107002F43EFE5D2085F07654617435A
:10133800D80887E6171ABA4292419E1B5242B61A3B
:101348003302C1D47307FF08654601211F43F00823
:101358004BE6002F7BD065461E0091463FE6811A7A
:101368008846C145A441F11A6442091B802424041B
:10137800214277D0101A8242924107009E1B5242A6
:10138800B61A374300D0A0E06546002400263EE6A2
:101398005F07D20865461743D80853E6811891427B
:1013A8009241F01852428018030200D568E74707B7
:1013B800C9080F43C008012117E6D2085F07174381
:1013C800D8083FE60C000026002720E6002956D161
:1013D8005F07D2081743D80834E60C001E00D0086F
:1013E80029E6C10870070143F008002F62D0802465
:1013F8002403204207D0DE08264204D16546300087
:10140800D1085B0719434F0FC900C9087F070F436D
:1014180018E60C003000203CE0408446202905D026
:101428004024611A8E404946314389464846411E48
:101438008841614607000F4330E620210027091A3A
:101448000EE51E00002F00D022E5002458E70025F5
:1014580000240026DBE5C046FE070000FF07000069
:10146800FFFF7FFF47460F4300D147E70E00C14605
:10147800B5E5DF086407022127430009B5E519002F
:10148800C008770707431143F008002900D1D9E5C0
:1014980080210903084207D0DC080C4204D1D20895
:1014A8005B071A43170020007B0FFF00FF085B074C
:1014B8001F43C7E50F00C5E5124BD20833405F074D
:1014C8005B02012417431E0BA1E5264212D00D4BE7
:1014D8006546020001241E40E6E4210085E5170068
:1014E800A8E53A00D4E4DB0864071C43270002217E
:1014F80000097AE5C0087707074365460021F00828
:1015080073E5C046FFFF7FFFF0B5DE464546574608
:101518004E46E0B587B0009201930B031B0B9B4628
:10152800CA0F4B00040080465B0D029200D198E080
:101538007C4A934237D05946420FC9000A4380215A
:1015480009041143C2009046774A894692469A4454
:10155800002300240393009E019F3B031B0B9B4623
:101568007B0030005B0DFD0F002B59D06D4A934274
:1015780048D05946720FC9000A4380210904114313
:101588008B466949F2008C4651466344CB1A9A4609
:101598000021029E6E40F6B20F2C00D9CEE0634BBC
:1015A800A4001B599F465A460243914600D090E03A
:1015B8009A460223904608240393CCE7CB4642463A
:1015C800029D0399022900D1DEE1032900D18DE0B3
:1015D800012900D079E12E00002200230024904642
:1015E8001B052343F60733434046190007B0F0BCF8
:1015F800BB46B246A946A046F0BD0022002490464C
:10160800484BEDE75A46009B1A43494B9C46E24437
:10161800002A59D102231C43002302219B46B8E724
:101628005A46009B1A4349D05B46002B00D19CE1E7
:10163800584601F00DFC020003000B3A1D27009EDE
:10164800BA1A19005846D640083988403200024371
:101658009346009A8A40374953448A4600219A445F
:1016680097E75B460343994621D05B46002B00D1A0
:1016780069E1584601F0ECFB0B235B429C460200F3
:10168800844466461D239B1B260011005846DE40F5
:101698000839884033000343994623008B40984615
:1016A800254B00249B1A9A460023039353E70023F3
:1016B80098469A460133042403934CE701231C43BC
:1016C800002301219B4664E70323320003211C43C6
:1016D8005FE79A460323D9460C2403933BE700238C
:1016E8008024984600260F4B240379E780245B4624
:1016F80024031C4324032E0090460A4B240B6FE757
:1017080080244B462403234202D05B462342F0D078
:1017180080244B4624031C432403029E014B240BC4
:101728005EE7C046FF07000001FCFFFF500D0408FC
:1017380001F8FFFFF30300000DFCFFFFCB4500D2CB
:10174800F8E000D1F3E001235B429C46444648465A
:101758000025E2445B46170E1B021F43190C3B048D
:10176800120200971F0C914602910397FEF770FD35
:1017780002007A430B04210C804619438A4209D996
:10178800009F0123BC465B4261449C46E0448F4273
:1017980000D85CE1881A0299FEF75AFD039A2404DE
:1017A80042430904240C03000C43A24206D90099C1
:1017B800013B8C466444A14200D842E1A01A42464B
:1017C80012041A4393464B4659461B0C1F000493B8
:1017D8000B0449460904090C0C001B0C5C43120C51
:1017E8007B43884651437A43270CBC465B186344C5
:1017F800994203D9802149028C466244190C240479
:101808001B04240C8A181C19904202D316D1A54235
:1018180014D25B46009F013B4D4405934D459B41C7
:10182800BC465B426344C018874200D302E182424F
:1018380000D929E100D124E1059B9B462C1BA54238
:10184800AD41009B801A6D42401B834200D10FE1DD
:101858000299FEF7FDFC039A0B044243210C050094
:1018680019438A4200D9CBE0881A0299FEF7F0FCA6
:10187800039A240442430904240C03000C43A242A3
:1018880000D9CAE04146A41A2A041A43049F130443
:101898001B0C594340467B439C46150C68430B0C74
:1018A800844463447D43984203D98020400284469F
:1018B8006544180C09041B04090C40195B18844280
:1018C80027D323D0012335001A43944B5344002BCC
:1018D80060DD510700D086E02E00D1085A46D201BB
:1018E80006D55A468E4B1A4080239346DB00534454
:1018F8008C4A934200DD80E65A4652070A439046D6
:101908005A465B055402240B5B0D69E63500002B33
:10191800DBD0009D511EAC466444AC4200D29EE030
:10192800844200D2E1E000D1EEE00A00CAE7424575
:1019380000D908E74B46DC07580843465B081C43B8
:101948004346DD0706E701F083FA15239C468444E5
:101958000200634620321C2B00DC92E62300083884
:1019680083409946002398469AE601F071FA0200EE
:101978000300153220331C2A00DC5FE60099083882
:10198800814000228B4666E600222E000024904605
:10199800654B25E62E000121C91A382900DD1BE612
:1019A8001F297EDC6148140050445B468240834016
:1019B800CC40501E824123431A435B46CB4051071B
:1019C80009D00F211140042905D0111D91429241DF
:1019D80052429B180A00190200D49BE000220123FE
:1019E80000249046FCE50F211140042900D173E73B
:1019F800111D9142924152422E00C90893446DE74D
:101A0800009B013D9C4661448B4200D92CE78A42E9
:101A180000D829E7851E614426E70099013B8C46DA
:101A28006444A14200D92DE7A24200D82AE7831EC8
:101A3800644427E7874200D0FEE6A94500D9FBE6C3
:101A4800F5E6A24200D8B9E6831E6444B6E68A42A7
:101A580000D89FE6BC46831E984661449AE60A0071
:101A6800844200D02EE74B4500D02BE735002CE709
:101A78002A4B2F4A5344924543DB012200219344C9
:101A88002CE7AC4200D8D7E602235B429C4600997B
:101A98004D444D459B41E3448C465B426344C0182A
:101AA800CCE61F204042C31A5846D840202904D00B
:101AB8005946204B534499400A43531E9A410723E1
:101AC8001900024300241140134209D0083313407F
:101AD800042B1DD0131D934289411A00494249071E
:101AE800D2080A43904600237AE54946009F4D00F4
:101AF8004D458941BC4649426144A946023A6418A9
:101B0800AEE70122524246E79945EED30A00AAE71A
:101B18000021E5E759075B021C0BE1E7FF03000022
:101B2800FFFFFFFEFE070000FF0700001E04000085
:101B380002FCFFFF3E040000F0B55746DE464E4665
:101B48004546E0B50D000400E80F83460903D80FA9
:101B5800090B824619488C461F0369005E00490D2F
:101B68003F0B760D814218D086420FD00120B1423A
:101B78000DD1BC450BD1944209D1D3451CD00029C5
:101B880005D160462043431E984100E00120F0BC87
:101B9800BB46B246A946A046F0BD01208E42F6D10A
:101BA800614639430F0017432743F0D15B4652463D
:101BB800981A431E9841EAE70020E8E7FF0700006B
:101BC800F0B557464E464546DE46E0B50D000E03D5
:101BD8004900490D8A46DF0FE90FBC4683B02F4FF5
:101BE800040080460191580019039146360B090BF1
:101BF800400DBA451DD0B8420DD05746002F2AD106
:101C08003443002824D10A4336D0002C41D16346FE
:101C18005800013815E0114338D15346002B01D143
:101C28002643F4D0019B634507D1019B5800013836
:101C380007E026432AD1504521D00120019B5F426D
:101C4800384303B0F0BCBB46B246A946A046F0BD37
:101C5800002CDCD0E6E70028EFD0019B6345ECD1EF
:101C68008245EADCE1DB8E42E7D8DED1C845E4D81C
:101C78000020C845E5D2D8E7002CE2D0DDE71143C3
:101C880004D1019B6345D8D10020DAE70220404205
:101C9800D7E7019B6345E6D0CFE7C046FF070000C2
:101CA800F0B557464E464546DE46E0B50D000E03F4
:101CB8004900490D8A46DF0FE90FBC4683B02E4F15
:101CC800040080460191580019039146360B090B10
:101CD800400DBA451ED0B8420DD05746002F27D127
:101CE8003443002833D10A4334D0002C40D1634612
:101CF8005800013815E0114312D15346002B01D189
:101D08002643F4D0019B63451DD00120019B5F420F
:101D1800384306E0264303D15045F6D111431CD081
:101D2800022003B0F0BCBB46B246A946A046F0BDAF
:101D38000028EAD0019B6345E7D18245E5DC02DB58
:101D48008E42E2D80ED0019B58000138E9E7002CFA
:101D5800CDD0D7E7002CE4D0D7E7019B002063451E
:101D6800DFD0D2E7C845D0D80020C845D9D2EAE7A5
:101D7800019B6345E4D0C8E7FF070000F0B557466C
:101D88004E46DE464546E0B51F000B031B0B16000A
:101D98009A46CA0F4B000400914685B05B0D00D1EE
:101DA800CFE1CD4A934255D05146420FC9000A436C
:101DB800802109041143C2009046C84A8A469346C6
:101DC8009B440023002502933C037B00FA0F0196F5
:101DD800240B5B0D009200D188E1BF4A934200D1E9
:101DE80092E0BE4A944663449B440A2D42DCE400D8
:101DF800730F23438024494624041C43F3000193B2
:101E0800009B00205940CBB20393022D00DC94E0E4
:101E18000123AB401D00A6232A00DB001A401D4207
:101E280000D029E290239B001D4200D14DE20023FF
:101E3800802499462403A84B10004A461B052343D7
:101E4800D2071343190005B0F0BCBB46B246A946F9
:101E5800A046F0BD52460243904600D0ACE19B46F6
:101E68000223924608250293AEE7009BA2469946B4
:101E7800019B9846029B022B00D1CAE1032B00D19B
:101E880092E1012B10D1002300240022D4E7012283
:101E98007B083A4013435246D207134398465346A9
:101EA8005B089A46039B99465B46581C8023DB00D7
:101EB8005B44002B00DCB1E1424652070BD00F22F5
:101EC80041460A40042A06D04246111D4145924126
:101ED8008846524292445246D20106D55246804B19
:101EE8001A4080239246DB00C3187E4A934200DDE5
:101EF8008FE14246D108524652070A4351465B05D4
:101F08004C02240B5B0D97E7734B26439C46E34436
:101F1800002E00D16FE1032349461D43009B594021
:101F2800CBB203930A2D00DD33E10123AB401D0042
:101F38000323029388222A4297D142464346120439
:101F4800120C160001981D0C030C0004000C4643EB
:101F5800B4461E006E430096160007005E436146B5
:101F6800B0466F430E0CB8444644B74205D98021A9
:101F780049028846009F4744009761460904090CB6
:101F8800370C36048C463100614401911100260C4F
:101F98002404240C61438C46210069438946614628
:101FA800090C884672434A4442447543914503D913
:101FB8008021490288464544110C88466146090437
:101FC800090C8C4612046244B91802915146090C56
:101FD8008C4651460F043F0C39004143454488461E
:101FE800614641438A4641466046090C8946584342
:101FF8007B4353444B449A4503D98021490289467F
:102008004844190C894641460904090C8846390098
:1020180061431B044344884661464C4371438C46E4
:10202800414677430E0C3F19F6194844B44203D988
:10203800802149028946CC440299009F894631048F
:102048004F4489464146974292410C04240C4C4423
:10205800FF1852426419A1189F429B418846824644
:102068005B42994690459241AC42A441C244D14456
:1020780052426442144399459B41824592415B42D6
:10208800524213434A46360CA419E31863445B02D0
:10209800D20D1A43019992467A020A43501E824190
:1020A800FF0D17434A4652021743B846DB0100D5D5
:1020B800EDE60D4B039A5B449146002B00DCACE047
:1020C8003A00520700D110E70F2258463A40042A36
:1020D80000D0F9E609E7C046FF07000001FCFFFF52
:1020E800FFFFFFFEFE070000FF030000220032434F
:1020F8006FD0002C00D1C2E0200000F0A9FE020041
:1021080003000B3A1D20821A30001900D04008390C
:102118008C400200224334008C405946CB1A864931
:102128008B469B440A2D00DDA4E64946009B01949A
:102138005940CBB2140000200393022D00DD67E65E
:10214800FBE65346034398463CD05346002B00D148
:10215800A3E0504600F07CFE0B235B429C46020045
:10216800844411005046083988401D238046604643
:102178001B1A2000D8400300404603439A46230018
:102188008B4098466C4B00259B1A9B460023029374
:102198001AE60F2D00D0C9E0802352461B031A42CD
:1021A80002D01C4200D192E08024534624031C43F1
:1021B80024034246240B3EE69B46032380460C2517
:1021C800029301E600239A469B46013304250293B5
:1021D800FAE501210D430A2D00DD4BE6494600983A
:1021E8004140C9B20391022D00DC96E0002300248F
:1021F800012001930CE649460223009A2B435140E3
:10220800CAB203920A2B00DD34E6002D57D1039B96
:10221800994600240022494B0EE658460121C91A66
:10222800382900DD2FE61F2956DD1F225446524269
:10223800D31ADC40202907D0414B42469C465346DE
:10224800604483401A43904642460721531E9A41F0
:102258000B00224313400024114209D00F231340DE
:10226800042B5DD0111D91429B410A005B425B0724
:10227800D2081A430023DFE5039B9946FAE5019843
:1022880000F0E6FD02000300153220331C2A00DCB2
:1022980038E7019A083882403FE700F0D9FD152356
:1022A8009C4684440200634620321C2B00DC58E71D
:1022B800002398462300083883409A4662E71D00A9
:1022C8000023002402200193A2E5029032E61C4379
:1022D800009B019A9946AEE51A4B5246C3184046F0
:1022E8009A40C8400243404698400300581E834124
:1022F80054461A43CC40530709D00F231340042BEC
:1023080005D0131D934292415242A4181A00230289
:1023180008D50123002400228EE5894600248BE598
:102328000023A5E763076402240BA1E7009BA246EC
:102338009946019B984637E70DFCFFFFFF07000011
:102348003E0400001E040000F0B557464E464546C0
:10235800DE46E0B583B0009001910C034D00CE0F2E
:10236800610A009C5F00640F0C430099009201937E
:10237800C80019037B0D9946019BCC4FDB0F9C4687
:102388004B0A00998046490F1943009B8B46DA0097
:1023980092466D0DB94500D1BFE001236146594011
:1023A8004B468C46EB1A8E4275D0002B00DCA3E21C
:1023B8004946002900D1CEE0BD4200D100E2012704
:1023C800382B19DC802759463F0439438B461F2B8D
:1023D80000DDFAE12027F91A8C4659466746B940CC
:1023E8000F001100D9400F4361468A40511E8A41AF
:1023F8005946D9401743641AC71BB8428041404226
:10240800241A230200D440E16402640A002C00D19B
:1024180054E1200000F01CFD0300083B2021380097
:10242800CA1AD0409C4002009F4022439D4200DDD2
:10243800A6E1581B0130091A3C008F40C4407B1E9E
:102448009F4113008B4027431F43C2403B001400A9
:102458000025134300D1F7E17B0700D177E30F2371
:1024680038003B40042B04D0381DB842BF417F429E
:10247800E419230200D468E38C4B01359D4200D156
:10248800F4E08B4B6D051C406D0D6707C0086402B6
:102498000743240BECE0002B00DC29E34946002924
:1024A80000D0D6E05946114300D12EE1591E012B28
:1024B80000D1E6E1BB4200D182E101270B003829B7
:1024C80014DC1F2B00DD3CE22027F91A8C46594604
:1024D8006746B9400F001100D9400F4361468A4052
:1024E800511E8A415946D940174364183F188742FC
:1024F800804140422418230200D4C6E06B4B0135CA
:102508009D4200D1B2E00121694B7A081C40394054
:102518000A43E707174364089EE7664B11438A4658
:10252800EB18002928D066452CD0002B5BD0002D55
:1025380000D12CE15B4666465F07D2081743DD08E9
:102548003B002B4300D1E2E0802424032C432403E6
:10255800564D240B8CE05946114300D1D5E0591E45
:10256800012B00D1B9E1BB4200D1B1E101270B0039
:10257800382900DD40E72AE76146012779408C4683
:102588006645D2D1002B00D1C5E0002D00D055E121
:102598004B462500054300D112E2591E8C46012BFB
:1025A80000D149E2414DAB4200D18FE201273829E1
:1025B80011DC63461F2B00DD5BE261462023270008
:1025C8005B1A050098409F40CD40431E9841CC407F
:1025D8002F430743A344BF189742924152425A449B
:1025E80014004D4687E7344F6B1C3B4200D0B6E0E1
:1025F8005946230011430F000343002D00D026E164
:10260800002B00D1C0E1002900D1A1E0831A98462F
:102618005B464045AD41E31A6D425B1B80252D04A6
:102628002B4200D14BE15B46101A824292411C1B9F
:102638000700012663465242A41A27431E40002F72
:1026480000D142E12C4200D16DE2194B01251C401A
:102658001BE7BD4200D13BE10127382B00DD45E7F0
:10266800802759463F0439438B462AE70024002730
:102678002D052543F60735433800290003B0F0BC83
:10268800BB46B246A946A046F0BD7B0704D00F233F
:102698003B40042B00D0E7E62B00F808034A670705
:1026A8000743E508934200D14AE7A5E0FF07000089
:1026B800FFFF7FFF01F8FFFFFE070000380000F072
:1026C800C7FB030018331F2B00DCA7E63A000838C5
:1026D80082409D4200DD8AE05B1B581C1F2800DCFD
:1026E800D8E117001F3BDF40202805D040231B1AE4
:1026F8009A40531E9A4117430025002F00D1E5E068
:102708007B0700D0ABE62C00C6E7C008C6E7002769
:102718000024D14DACE7D14F6B1C3B4271D1230053
:102728000343002D00D04EE15746002B00D1B5E100
:10273800002F0DD08318834280415C444042241806
:10274800220200D5C8E11F009846274300D1BCE00B
:1027580043466707DB081F43E50800234CE0831A5C
:1027680098465B464045BF41E31A7F42DB1B1F0288
:102778007CD447461F4300D1A6E01C00474645E6E7
:10278800B74CED1A14407B0700D080E784E74B462E
:102798002500054366D05F1E012B00D1FCE0AE4D3D
:1027A800AB4200D15EE16646382F00DCB4E0012080
:1027B800171ABA4292415B4652424D469C1A20E68D
:1027C8006707C0080743E508BAE61F005946203FD7
:1027D800F9400F00202B05D04021CB1A59469940CB
:1027E8000A43924653465A1E93411F4304E6EB1A86
:1027F8009B4D15406F07ED082C035D05240B6D0DEF
:1028080036E7954DAB4200D1D6E0821821008242CE
:102818008041594440420818C707520817434408E2
:10282800520700D485E10F221D003A40042A00D047
:102838001AE6FF08640727430509DDE75B46D20867
:102848005F071743DD087BE60027002410E7002B0D
:1028580000D0D6E0002900D02FE1802400267E4D4C
:10286800240305E766465C46D00817E75B46171A57
:10287800BA4292411C1B012663465242A41A1E40CA
:10288800C4E58318834280415C44404225182A02EB
:1028980000D4DAE0724A5B081540EA071A4369086F
:1028A8005B0700D44AE10F231340042B00D1FCE05E
:1028B800171D9742A441644202256418ECE6474676
:1028C8001C001F4300D043E7002600250024CFE664
:1028D800C00867070743E50832E6871A5B46B8422F
:1028E8008041E41A4042241A230228D46307FF08CF
:1028F8001F43E50801237FE7002B00D173E64B4611
:102908005F1B3B00002D00D142E7382F00DDECE0D3
:1029180080230E001B041C431F2F25DC20252300C9
:10292800ED1B0100A840AB40F940451EA8410B43F0
:10293800FC4018435B461B1B9B4639E7664601254E
:1029480062E51F005946203FF9408C46202B05D0F0
:1029580040275946FB1A99400A43924657467B1E20
:102968009F4163461F43C1E53B002500203BDD40F6
:10297800202F04D04023DB1B9C4020438046404648
:10298800431E9841284313E700299DD0012663463A
:102998005C4690461E40DBE6171A5B46BA429241F7
:1029A8001C1B5242A41A2302C8D46307FF081F4302
:1029B80066460123E5081FE71D000024002757E6A7
:1029C8005C46D0086AE6002B00D137E75346C008BA
:1029D80067070743E508002B00D1B1E580231B03F7
:1029E8001D4208D05946C808184204D1D2084907E0
:1029F8000A43170005007B0FFF00FF085B071F4312
:102A08009EE5C00863071843E508002953D08023D2
:102A18001B031D420AD05946CC081C4206D1012688
:102A280063462500D008490708431E40470FC000E9
:102A3800C0087F07074383E58318934292415C44AB
:102A48005242A5182A0200D524E76F07DB081F4366
:102A5800ED080123D0E6C046FF070000FE0700008E
:102A6800FFFF7FFF5B46D2085F0766461743DD0816
:102A780066E52500203BDD406346202B05D040233A
:102A880061465B1A9C402043804647467B1E9F4117
:102A98002F43A0E520210027091AD2E4002F00D1F6
:102AA80013E75C4617000025F6E5D7084907022317
:102AB8000F432D09A0E6070042E55B4601265F07A4
:102AC800DD086346D20817431E4039E55B46D20845
:102AD8005F071743DD0833E51E4ADB082240570726
:102AE800520201251F43140BC2E50E0001205FE6C8
:102AF800002B0DD04B465B1B9C46002D00D148E5B2
:102B08000127382B00DD66E580231B041C4350E5B4
:102B18006B1C114D2B4200D073E65946230011431C
:102B28008A46034300E66707C00800230743E50811
:102B380062E66407FF08274305095DE6D2084907EE
:102B480011430F0002232D0956E60700A4E53800BB
:102B58008FE4C046FFFF7FFFFE070000F0B5C646C2
:102B68001E03360BB0460D4E0C034D005F0000B53A
:102B7800240B6D0D7F0DB5420BD0084900208F4204
:102B880004D1464616433000431E984180BCB846DF
:102B9800F0BD04430120002CF8D1EEE7FF07000048
:102BA8000B00020070B5164D0C0382B049000020DE
:102BB80000920193240B490DDE0FA94204DD114850
:102BC800814203DD104BF01802B070BD8020400335
:102BD80020430E4C641A1F2C08DD0D4B5B1AD8409D
:102BE80003005842002EEFD11800EDE7094B009A78
:102BF8009C46030061448B40E2401343F1E7C04622
:102C0800FE0300001D040000FFFFFF7F33040000E7
:102C180013040000EDFBFFFF70B5002816D0C317A2
:102C2800C5185D40C40F280000F012F9104B1B1A9C
:102C38005B055B0D0A2814DC02002E001532964055
:102C48000B22121AD5402D032D0B03E0002400237C
:102C5800002500261B052B43E407234330001900F9
:102C680070BD0B3885402D0300262D0BF2E7C046BA
:102C78001E04000010B5041E10D000F0E9F80E4B39
:102C88001B1A5B055B0D0A280FDC0B222100121AA8
:102C9800D14015300A038440120B01E000230022C2
:102CA8001B0513432000190010BD22000B38824079
:102CB80012030024120BF3E71E04000070B5420251
:102CC8004300C40FFE201B0E591C550A08420CD0A5
:102CD800E02189008C466D07120B63441B051343E2
:102CE800E40723432800190070BD002B14D1002DE0
:102CF8001BD0280000F0ACF80A281CDC0B232A00A3
:102D08001B1ADA40030015339D400E4B12031B1AA1
:102D18005B05120B5B0DE1E7002D09D0130B802238
:102D280012031A436D07084BD8E700230022D5E7A2
:102D38000022054BD2E703002A000B3B9A400025EE
:102D4800E3E7C04689030000FF070000F0B54B0029
:102D58000F035B0D3A4C450F83B07F0A5E1C2F436F
:102D680000900191CA0FC50026420BD035495C1866
:102D7800FE2C13DDFF200023C0051843D2071043A3
:102D880003B0F0BD3D43002B01D10020F4E7002D36
:102D9800F0D08023DB03FF203B43EDE7002C0CDD64
:102DA800009BFF009B01581E8341690F3B430B4367
:102DB800590727D1DB08E0B2DEE72100173131DB04
:102DC80080211E2009043943001B1F282DDD0226FF
:102DD8007642341B0E00E6403400202804D01A48FE
:102DE8008446634499400D432B00591E8B4123436D
:102DF800590703D00F21194004290BD19B0100204A
:102E08005B0AB9E70F211940042904D19B015B0A29
:102E1800E0B2B1E7002404335901F7D501340023A7
:102E2800E0B2A9E700200023A6E7084C1C192B00F4
:102E3800A540C340A140681E854129430B43D7E7FD
:102E4800FE07000080FCFFFFA2FCFFFF82FCFFFFE3
:102E58001C2101231B04984201D3000C10391B0AC2
:102E6800984201D3000A08391B09984201D3000986
:102E7800043902A2105C40187047C04604030202DD
:102E8800010101010000000000000000F0B54F46FC
:102E98004646D646C0B506000F001000190082B09D
:102EA800002F5DDB34003D00002B0BDB16001F00FC
:102EB800AB4217D90020002102B0E0BCBA46B146A7
:102EC800A846F0BD002746428F41AF42F2D800D154
:102ED800A0E001235B42994609E0002746428F4162
:102EE800AF42E7D8AF4200D190E0002399463900BD
:102EF800300000F0B7F880462900200000F0B2F852
:102F080043461B1A9846203B75D4310099409A468F
:102F18000B003100404681400A00AB422ED82BD02E
:102F28005146A41A9D41002900DA90E000210020B2
:102F380001260090019151468E4001964146012696
:102F48008E404146009600291FD1009801994B46B2
:102F5800002BB1D003000C0000215842A141ABE77F
:102F680000257442BD41002BB7DB16001F00AB42A1
:102F7800A0D8AF42ADD14DE0A142D1D90021002067
:102F88000090019141460029DFD0D90756085F0813
:102F98000E4343460EE0AF4201D1A6420CD8A41B13
:102FA800BD41012124196D410022013B641855419E
:102FB800002B06D0AF42EED9013B24196D41002BFE
:102FC800F8D1009A019B514612196B41002925DB63
:102FD8002E002C00CE404146CC40514600292DDB26
:102FE80034008C4021004446A6403000121A8B4120
:102FF80000920193A9E7424638009A4620233100FF
:1030080090409B1AD94003000B4382E7A64200D99F
:1030180050E76AE7A64200D85BE74BE74046202125
:10302800091A28008840260001004046C6402C00A6
:103038000E434146CC4051460029D1DA4046202172
:1030480035008440091ACD4021002943CBE7414689
:1030580020260127761A00200021F74000900191D0
:1030680001976BE710B5002903D1FFF7F1FE203077
:1030780002E00800FFF7ECFE10BDC04680B582B044
:1030880002AF012009F078FA0F491048104B01935C
:1030980000230093002301221AF050FC0B4A0D4B29
:1030A8001100180009F0C6FB00F0B0FB0A4B18002D
:1030B80009F088FA094B18000AF070FB012009F0A2
:1030C80095FAC046BD4680BDA0FD0308E81A002059
:1030D800B4FD0308B8FD0308D8FD0308E930020869
:1030E800B0B584B000AF02003960FB1D1A70114BF7
:1030F80060229B5C002B12D10F257C193A68FB1DBE
:103108001B781100180000F017F8030023707B19D2
:103118001B781A00032113200AF0F0FC06E03A6835
:10312800FB1D1B781100180002F0A4FCC046BD4628
:1031380004B0B0BDC81A002090B587B000AF020037
:103148003960FB1D1A703B683B611623FB1800228F
:103158001A70FB1D1B78002B01D100239CE00F2364
:10316800FB1804221A701723FB1800221A701EE09D
:1031780017243B191B7875225A43494BD3185A1CFC
:103188003B6911001800FCF7B7FF031E09D13B1972
:1031980019781623FB18424A752041438A5C1A7035
:1031A8000DE017217B181A787B1801321A70172343
:1031B800FA180F23FB1812781B789A42D8D309F013
:1031C800F1F9031E06D11623FB181B78022B01D038
:1031D800002361E01623FB181B78052B50D058DC20
:1031E800032B44D055DC012B02D0022B36D050E003
:1031F800FB1D1B78012B01D007234DE00F23FB1883
:1032080004221A70274B180009F014FB1723FB1827
:1032180000221A7019E017243B191B7875225A43AB
:103228001F4BD318591C3B191B7875225343103375
:103238001A001B4BD3185A1C1B4B180009F0FAFA3A
:103248003B191A783B1901321A701723FA180F2301
:10325800FB1812781B789A42DDD31CE03A68FB1DF4
:103268001B781100180000F021F8030014E03A68F8
:10327800FB1D1B781100180000F018FB03000BE081
:103288003A68FB1D1B781100180001F009F80300CB
:1032980002E0062300E000231800BD4607B090BDF9
:1032A80000000020E0FD0308E4FD0308F0B58FB03E
:1032B80002AF0200396117217B181A707B181B783E
:1032C800012B01D8072388E23B6910337B621E2358
:1032D80010215B18DB1900221A7013235B18DB1905
:1032E8000D221A701F235B18DB1900221A7026E0C2
:1032F8001F261022B318DB191B7875225A43D34BAB
:10330800D3185A1C7B6A11001800FCF7F5FE031E3F
:103318000CD11022B318DB1919781E239B18DB195E
:10332800CA4A752041438A5C1A7013E01F21102095
:103338000B18DB191A780B18DB1901321A701F23C6
:1033480010215B18DA1913235B18DB1912781B7824
:103358009A42CDD309F026F9031E0AD11E23102262
:103368009B18DB191B78823B012B01D9002334E21F
:10337800C0461E2310229B18DB191B78832B00D113
:103388005DE100DD21E2822B00D1F3E100DD1CE2EA
:10339800432B0ADC002B00DC17E2432B00D914E294
:1033A8009A00AB4BD3181B689F46812B00D1FCE1D8
:1033B8000BE21723FB181B78022B01D007230CE222
:1033C800132310241B19DB190D221A70A14B1800A6
:1033D80009F030FA1F231B19DB1900221A7067E065
:1033E8001F2010240319DB191A78984B75214A43BA
:1033F800D35C1A00C023134016D10319DB191B78BC
:1034080075225A43914BD318591C0319DB191B78A1
:103418007522534310331A008C4BD3185A1C8E4B09
:10342800180009F007FA3AE01F2010240319DB19E5
:103438001A78864B75214A43D35C5BB2002B16DAA7
:103448000319DB191B7875225A43804BD318591C72
:103458000319DB191B787522534310331A007B4B71
:10346800D3185A1C7D4B180009F0E4F917E01F2007
:1034780010240319DB191B7875225A43734BD31890
:10348800591C0319DB191B787522534310331A0092
:103498006E4BD3185A1C724B180009F0CBF91F2138
:1034A80010200B18DB191A780B18DB1901321A7067
:1034B8001F2310215B18DA1913235B18DB19127804
:1034C8001B789A428CD387E11723FB181B78022BB1
:1034D80001D0072381E1634B41229B5C1A00624BB8
:1034E800190000200AF036FA76E11723FB181B783A
:1034F800022B01D0072370E15A4B1B6D181CFFF7F4
:10350800DDFB02000B00594900200AF023FA63E1B1
:103518001722BB181B78022B09D0BB181B78032B6A
:1035280005D0BB181B78042B01D0072355E11724BD
:103538003B191B78022B3DD93B6920337B627B6AA0
:10354800180019F061FB0300BB623B191B78042BC0
:103558001DD13B6930337B627B6A180019F054FB3C
:103568000300FB61FB690C2B02DCFB690C3301DAFD
:103578001A2332E1FA6913001B019B1A1A01D21AA5
:1035880013011A0013001A00BB6A9B18BB620B25B3
:103598001026AB19DC19BB6A180008F06BFE030093
:1035A8002370AB19DB191B78002B03D0AB19DB197F
:1035B8001B7812E1274B180009F03CF90A25102660
:1035C800AB19DC192A4AFA235B00190001200AF01A
:1035D800F5F803002370AB19DB191B78002B00D119
:1035E800F5E0AB19DB191B78F7E01723FB181B78FC
:1035F800022B01D00723F0E01E4B190000200AF02F
:10360800A9F909F0C1F964200BF0E8FE0DF0ADF955
:10361800E2E01723FB181B78022B01D00723DCE01C
:10362800154B190000200AF095F909F0ADF964204E
:103638000BF0D4FE114B180007F0D8F9CCE0172393
:10364800FB181B78032B1BD00723C6E0D4010020EE
:10365800C00F0408E0FD0308E4FD0308F0FD0308BB
:10366800FCFD0308C81A002008FE030814FE03081E
:103678000DC4020830FE030840FE03080000FF1FC7
:103688003B6920337B62574A7B6A11001800FCF7BC
:1036980033FD031E00D09CE002F09AF9002008F0E8
:1036A800F9FF96E01723FB181B78022B01D007239C
:1036B80093E04D4B1A684C4B5B684C4900200AF06C
:1036C80049F989E01723FB181B78022B01D007233F
:1036D80083E0454B9A68444BD868434B1B6944497F
:1036E8000093030000200AF035F975E01723FB1852
:1036F8001B78022B01D007236FE03B4B9A69DB69EB
:10370800002B06DA3B4A3C4B190000200AF022F94C
:1037180062E0354B9A69DB691B0CBB600023FB60D8
:103728003B891E00304B9A69DB691B003B60002314
:103738007B603B8818002C4B9A69DB691904140CD0
:103748000C431D0CA3B22B4A2C4901930090330063
:1037580000200AF0FFF83FE01723FB181B78022B24
:1037680001D0072339E0264B180009F063F800F070
:103778004DF831E01723FB181B78032B01D00723E2
:103788002BE03B6920337B62164A7B6A11001800E4
:10379800FCF7B2FC031E1ED1012008F0EDFE194B08
:1037A800190000200AF0D6F815E01723FB181B783B
:1037B800022B01D0072310E0134B190000200AF058
:1037C800C9F8002008F0D8FE06E0062305E0C04648
:1037D80002E0C04600E0C04600231800BD460DB018
:1037E800F0BDC04658FE0308C81A002060FE030852
:1037F80084FE0308E81A0020ACFE0308B8FE03089C
:10380800DCFE0308E0FE0308F8FE030880B500AFFD
:103818001B4B180009F00EF81A4B180009F00AF8AB
:10382800194B180009F006F8184B0021180009F088
:1038380001F8174B0021180008F0FCFF154B012177
:10384800180008F0F7FF144B0021180008F0F2FFE9
:10385800124B0021180008F0EDFF114B0121180050
:1038680008F0E8FF0F4B0121180008F0E3FF0E4BAA
:103878000021180008F0DEFFC046BD4680BDC046E6
:10388800DCFE030810FF030848FF030880FF030855
:10389800B4FF0308E8FF03081C00040850000408EC
:1038A80084000408B8000408EC000408F0B58BB0E4
:1038B80002AF02003960FB1D1A70FB1D1B78012B3B
:1038C80001D80723B3E23B6810337B611E23FB1842
:1038D80000221A701323FB1807221A701F23FB18E3
:1038E80000221A701EE01F243B191B7875225A43C8
:1038F800C44BD3185A1C7B6911001800FCF7FCFB59
:10390800031E09D13B1919781E23FB18BD4A7520DF
:1039180041438A5C1A700DE01F217B181A787B18C6
:1039280001321A701F23FA181323FB1812781B7818
:103938009A42D8D31E23FB181B78422B00D103E1EF
:1039480000DD71E2072B0ADC002B00DC6CE2072BA0
:1039580000D969E29A00AC4BD3181B689F46412BEB
:1039680000D108E260E2FB1D1B78022B01D007237F
:103978005DE21323FB1807221A70A44B180008F005
:1039880059FF1F23FB1800221A7059E01F203B180B
:103998001A789C4B75214A43D35C1A00C023134004
:1039A80014D13B181B7875225A43964BD318591CCF
:1039B8003B181B787522534310331A00914BD318C8
:1039C8005A1C934B180008F035FF33E01F203B18B2
:1039D8001A788C4B75214A43D35C5BB2002B14DAFE
:1039E8003B181B7875225A43864BD318591C3B1831
:1039F8001B787522534310331A00824BD3185A1C74
:103A0800844B180008F016FF14E01F203B181B78A1
:103A180075225A437B4BD318591C3B181B787522C7
:103A2800534310331A00774BD3185A1C7A4B18009B
:103A380008F000FF1F217B181A787B1801321A70D2
:103A48001F23FA181323FB1812781B789A429DD368
:103A5800ECE1FB1D1B78042B01D00723E7E13B6851
:103A680020337B610E257C190D23FA187B69110020
:103A7800180000F0EFFB030023707B191B78002B64
:103A880002D07B191B78D2E13B6830337B617B69BC
:103A98001B78302B15D17B6901331B78782B04D028
:103AA8007B6901331B78582B0BD17B6902331022B9
:103AB8000021180019F038F902001C23FB181A809D
:103AC80007E07B69180019F09FF802001C23FB1817
:103AD8001A800D257B191B781900504B68224A4320
:103AE800D35C1A0013009B009B189A009B184C4A41
:103AF8009A184C4B1900002009F02CFF7B191B78F1
:103B08001A0068235A43454BD0180E26BC19464A5A
:103B18001C23FB181B88190003F044FD03002370C5
:103B28003200BB181B78002B0AD07B191B78053391
:103B3800D8B2BB181B781A00032109F0DFFF75E122
:103B4800002008F0A7FD71E1FB1D1B78052B01D0B3
:103B580007236CE13B689B687B6112257C190C2369
:103B6800FA187B691100180000F074FB0300237039
:103B78007B191B78002B02D07B191B7857E13B6817
:103B8800DB687B617B691B78302B15D17B6901333E
:103B98001B78782B04D07B6901331B78582B0BD109
:103BA8007B69023310220021180019F0BDF80200C9
:103BB8001A23FB181A8007E07B69180019F024F80B
:103BC80002001A23FB181A803B681B697B617B691A
:103BD8001B78302B2AD17B6901331B78782B04D0D2
:103BE8007B6901331B78582B20D17B690233102263
:103BF8000021180019F098F802001823FB181A8001
:103C08001CE0C046C8070020D0100408E0FD0308E7
:103C1800E4FD0308F0FD0308FCFD0308981C0020E0
:103C2800900D040820010408D94102087B69180096
:103C380018F0EAFF02001823FB181A800C26BB199B
:103C48001B781A0068235A437B4BD01812257C191D
:103C58001823FB181A881A23FB181B88190003F06D
:103C680064FC030023707B191B78002B0AD0BB1956
:103C78001B780533D8B27B191B781A00032109F089
:103C88003DFFD3E00C23FB181B7819006A4B682210
:103C98004A43D35C1A0013009B009B189A009B1898
:103CA800664A9A181823FB1818881A23FB181B88C9
:103CB800634900930300002009F04CFEB6E0FB1DA9
:103CC8001B78032B05D0FB1D1B78022B01D0072383
:103CD800ADE0FB1D1B78032B1BD13B6820337B61B8
:103CE8000F257C190B23FA187B691100180000F0C6
:103CF800B1FA030023707B191B78002B02D07B19C3
:103D08001B7894E00B23FB181B78180000F09CF834
:103D18008CE0FF2000F098F888E0FB1D1B78032B4F
:103D280005D0FB1D1B78022B01D007237FE0FB1D6C
:103D38001B78032B1BD13B6820337B6110257C1932
:103D48000A23FA187B691100180000F083FA0300AF
:103D580023707B191B78002B02D07B191B7866E037
:103D68000A23FB181B78180000F078F95EE0FF20A2
:103D780000F074F95AE0FB1D1B78032B01D00723D0
:103D880055E03B6820337B6111257C190923FA181B
:103D98007B691100180000F05DFA030023707B199D
:103DA8001B78002B02D07B191B7840E00926BB1931
:103DB8001B781A0068235A431F4BD31811257C1906
:103DC800180003F0A5FD030023702A00BB181B7818
:103DD800002B0AD0BB191B780533D8B2BB181B7847
:103DE8001A00032109F08AFE20E00923FB181B783A
:103DF8001900114B68224A43D35C1A0013009B0038
:103E08009B189A009B180D4A9A180E4B190000200F
:103E180009F0A0FD0AE03A68FB1D1B7811001800A4
:103E280000F016FE030002E0062300E0002318005D
:103E3800BD4609B0F0BDC046981C0020900D04088E
:103E48003C01040874010408F0B5C64600B59AB0F0
:103E58000CAF020027243B191A70754B180008F0A4
:103E6800E9FC744B180008F0E5FC734B180008F0E7
:103E7800E1FC724B180008F0DDFC3B191B78032BA2
:103E880007D83B191B787B633B191B7801333B63CD
:103E9800C2E000237B6304233B63BDE0684A7B6B7D
:103EA80068214B43D31801331B78022B00D8A9E0B3
:103EB800634A7B6B202168204343D3185B181B7827
:103EC800042B05D022DC012B16D0032B0AD01DE0D1
:103ED8005C4A082320215B18DB191100180019F02F
:103EE8002DFD1DE0584A082320215B18DB1911001D
:103EF800180019F023FD13E0544A082320215B1809
:103F0800DB191100180019F019FD09E0504A0823BF
:103F180020215B18DB191100180019F00FFDC046AD
:103F28007B6B5E1C7B6B6822534310331A00444B37
:103F3800D31805339846424A7B6B68214B43D31804
:103F480034331B68181CFEF7B9FEB861F9613C4AA6
:103F58007B6B68214B43D31838331B68181CFEF75A
:103F6800ADFE38617961364A7B6B68214B43D318C3
:103F78003C331B68181CFEF7A1FEB860F960304A94
:103F88007B6B68214B43D31844331B68181CFEF71E
:103F980095FE386079602A4A7B6B68214B43D318B9
:103FA80040331B68181CFEF789FE04000D002449E5
:103FB8007A6B68235343CB1848331B68181CFEF7E9
:103FC8007DFE02000B00082120200918C91921488C
:103FD8000A920B93089409953B687C6806930794AA
:103FE800BB68FC68049305943B697C69029303945D
:103FF800BB69FC69009301940B004246310008F04C
:1040080019FC06E07B6B5A1C134B1100180008F0D2
:1040180011FC7B6B01337B637A6B3B6B9A4200DA52
:104028003CE7C046C046BD460EB080BCB846F0BDB1
:10403800E0FD03088C010408D001040814020408F8
:10404800981C00205802040860020408680204084A
:104058007002040878020408B8020408F0B58BB0AE
:1040680004AF0200FB1D1A704F4B180008F0E2FB6A
:104078004E4B180008F0DEFB4D4B180008F0DAFB39
:10408800FB1D1B78032B07D8FB1D1B787B61FB1DD1
:104098001B7801333B617DE000237B6104233B6196
:1040A80078E0444A7B6968214B43D31801331B7875
:1040B800022B65D93F4A7B69202168204343D318E6
:1040C8005B181B78042B05D01CDC012B12D0032BAA
:1040D80008D017E0384A0823FB181100180019F017
:1040E8002DFC17E0354A0823FB181100180019F0B9
:1040F80025FC0FE0324A0823FB181100180019F0BC
:104108001DFC07E02F4A0823FB181100180019F0BE
:1041180015FCC0467B69591C7B69682253431033E0
:104128001A00244BD3185C1D224A7B69682043433C
:10413800D3182E331B881D001E4A7B696820434311
:10414800D3182C331B881E001A4A7B696820434306
:10415800D3182A331B889C46164A7B696820434338
:10416800D31828331B881A000823FB181648039213
:104178006246029201960095220008F05BFB06E079
:104188007B695A1C114B1100180008F053FB7B691E
:1041980001337B617A693B699A4200DA81E7C0465C
:1041A800C046BD4607B0F0BDE0FD030800030408A3
:1041B8002C030408981C0020580204086002040814
:1041C80068020408700204085803040880030408FD
:1041D80080B586B002AF786008001100FB1C021C95
:1041E8001A703B000A1C1A807B68002B01D102233D
:1041F80028E07B68FB60FB1C1B78002B08D0FB6861
:104208001878FB1C1B781A00032109F077FC14E0CE
:10421800FB681B781A0013009B009B189A009B18D8
:104228000A4A9A18FB689B8918003B001B880849B2
:1042380000930300002009F08DFB012008F0D6F957
:10424800FB1C1B781800BD4604B080BD900D040807
:10425800B003040880B584B000AF786039607B682B
:10426800180018F0D1FC02000F217B181A707B1877
:104278001B78002B01D117230DE00F23FB181B78A7
:10428800013BDAB23B681A703B681B78032B01D9F3
:10429800172300E000231800BD4604B080BD0000CD
:1042A800F0B58DB002AF02003960FB1D1A70FB1D1E
:1042B8001B78012B01D80723C9E23B6810333B6206
:1042C8002623FB1800221A701F23FB1806221A70D7
:1042D8002723FB1800221A701EE027243B191B789D
:1042E80075225A43D74BD3185A1C3B6A1100180041
:1042F800FBF702FF031E09D13B1919782623FB1887
:10430800D04A752041438A5C1A700DE027217B183A
:104318001A787B1801321A702723FA181F23FB1802
:1043280012781B789A42D8D32623FB181B78052BC2
:104338000ADC002B00DC86E2052B00D983E29A0018
:10434800C14BD3181B689F46412B00D114E27AE277
:10435800FB1D1B78022B01D0072378E21F23FB18D3
:1043680006221A70B94B180008F064FA2723FB18C4
:1043780000221A7059E027203B181A78B14B752192
:104388004A43D35C1A00C023134014D13B181B784E
:1043980075225A43AB4BD318591C3B181B7875220E
:1043A800534310331A00A74BD3185A1CA84B1800B4
:1043B80008F040FA33E027203B181A78A54B7521FE
:1043C8004A43D35C5BB2002B14DA3B181B78752286
:1043D8005A439C4BD318591C3B181B7875225343DE
:1043E80010331A00974BD3185A1C9B4B180008F02F
:1043F80021FA14E027203B181B7875225A43914B69
:10440800D318591C3B181B787522534310331A00D4
:104418008C4BD3185A1C914B180008F00BFA272123
:104428007B181A787B1801321A702723FA181F2371
:10443800FB1812781B789A429DD307E2FB1D1B7864
:10444800042B01D0072302E23B6820333B6211258D
:104458007C190F23FA183B6A1100180000F06AFA59
:10446800030023707B191B78002B02D07B191B7863
:10447800EDE13B6830333B623B6A180018F0C4FB3F
:10448800020010217B181A700A00BB181B78002B39
:104498000ED0BB181B78012B0AD00F23FB181B78F2
:1044A8000933DBB208220321180009F027FBCDE10C
:1044B8000F26BB191B781A001300DB009B185A0142
:1044C8009B189B00664A9A1811257C191023FB1823
:1044D8001B78190010000AF0A5F8030023702A00C1
:1044E800BB181B78002B0AD0BB191B780933D8B22C
:1044F800BB181B781A00032109F000FBA6E10F2363
:10450800FB181B781900564A0B00DB005B18590191
:104518005B189B00D31803331B781A0013009B0009
:104528009B189A009B184F4A9A181023FB181B785F
:104538004D49002009F00EFA88E1FB1D1B78042B79
:1045480001D0072383E13B6820333B6213257C19A4
:104558000E23FA183B6A1100180000F0EBF903006B
:1045680023707B191B78002B02D07B191B786EE116
:104578003B6830333B623B6A180018F045FB020089
:1045880012217B181A700A00BB181B78002B0ED05A
:10459800BB181B78012B0AD00E23FB181B78093394
:1045A800DBB208220321180009F0A8FA4EE10E2612
:1045B800BB191B781A001300DB009B185A019B18C3
:1045C8009B00274A9A1813257C191223FB181B787D
:1045D800190010000AF054F8030023702A00BB18D1
:1045E8001B78002B0AD0BB191B780933D8B2BB182B
:1045F8001B781A00032109F081FA27E10E23FB1822
:104608001B781900164A0B00DB005B1859015B1870
:104618009B00D31803331B781A0013009B009B18C8
:104628009A009B180F4A9A181223FB181B780F49F7
:10463800002009F08FF909E1FB1D1B78032B17D027
:10464800072304E1FC0A0020F0100408E0FD030839
:10465800E4FD0308C8070020F0FD0308FCFD03087B
:1046680058200020900D0408D8030408E803040823
:104678003B6820333B621B257C190D23FA183B6AE3
:104688001100180000F056F9030023707B191B78FD
:10469800002B02D07B191B78D9E00D23FB181B785F
:1046A8001A001300DB009B185A019B189B006A4AEA
:1046B8009B187B617B69DB781A0013009B009B18B1
:1046C8009A009B18654A9A187B6965495B5C1C00CF
:1046D8007B6964495B5C18007B6963495B5C63497F
:1046E800019300902300002009F034F9AEE0FB1D8F
:1046F8001B78042B01D00723A9E03B6820333B62D9
:104708001C257C190C23FA183B6A1100180000F0CC
:1047180011F9030023707B191B78002B02D07B1939
:104728001B7894E03B6830333B621C257C190B23D3
:10473800FA183B6A110018000AF062FD03002370A2
:104748007B191B78002B02D07B191B787FE00C2388
:10475800FB1818780B23FB181B781C257C190022E2
:10476800190000F087F8030023707B191B78002BD1
:104778006BD07B191B786AE0FB1D1B78042B01D0DA
:10478800072364E03B6820333B621E257C190A231B
:10479800FA183B6A1100180000F0CCF803002370E7
:1047A8007B191B78002B02D07B191B784FE03B68E4
:1047B80030333B623B6A180018F026FA02001D21CC
:1047C8007B181A700A00BB181B78002B0ED0BB1878
:1047D8001B78012B0AD00A23FB181B780933DBB29C
:1047E80008220321180009F089F92FE00A203B1854
:1047F8001B781900184A0B00DB005B1859015B187D
:104808009B00D31802331D243A1912781A703B18EA
:104818001B781900104A0B00DB005B1859015B1864
:104828009B00D31803331B781A0013009B009B18B6
:104838009A009B18094A9A183B191B780C490020C2
:1048480009F088F802E0062301E0C04600231800BA
:10485800BD460BB0F0BDC04658200020900D04089E
:104868009404000096040000950400000004040865
:1048780030040408B0B586B002AF3A60FB1D021CD4
:104888001A70BB1D0A1C1A70FB1D1A781300DB0076
:104898009B185A019B189B00224A9B18BB600F2447
:1048A8003B1900221A70BB68DB781A0013009B00C2
:1048B8009B189A009B181C4A9A181C4B1900002038
:1048C80009F048F83B68002B0ED03B681A883C1961
:1048D800174DBB1D1978B868BB6800932B000AF008
:1048E80035FA030023700DE00F23FC18104ABB1D96
:1048F8001978B868BB680093130000220AF026FAFA
:10490800030023700F22BB181B78002B02D0BB18A2
:104918001B7803E0002007F0BDFE00231800BD4609
:1049280004B0B0BD58200020900D040840040408CD
:104938008949020880B584B000AF786039607B6827
:10494800180018F061F902000F217B181A707B1803
:104958001B78002B01D117230DE00F23FB181B78C0
:10496800013BDAB23B681A703B681B78022B01D90D
:10497800172300E000231800BD4604B080BD0000E6
:1049880080B586B002AF786008001100FB1C021CDD
:104998001A703B000A1C1A807B68002B01D1022385
:1049A8004AE07B68FB60FB688D229B5C042B02DC81
:1049B800032B17DA27E0082B25D1FB68DB781A00D0
:1049C80013009B009B189A009B181D4A9A18FB1C01
:1049D8001878FB688E331B4900930300002008F009
:1049E800B9FF25E0FB68DB781A0013009B009B18D1
:1049F8009A009B18124A9A18FB1C1B78124900202F
:104A080008F0A8FF14E0FB68DB781A0013009B008D
:104A18009B189A009B180A4A9A18FB1C18783B00A6
:104A28001B880A4900930300002008F093FFC04642
:104A3800012007F0DBFD00231800BD4604B080BD4F
:104A4800900D04085C04040880040408A004040809
:104A5800F0B595B002AF02003960FB1D1A70FB1D5E
:104A68001B78022B02D8072300F04DFE3B68203349
:104A78007B624623FB1800221A702323FB180C22A2
:104A88001A704723FB1800221A701EE047243B19AE
:104A98001B7875225A43E34BD3185A1C7B6A1100C2
:104AA8001800FBF729FB031E09D13B191978462387
:104AB800FB18DC4A752041438A5C1A700DE04721D7
:104AC8007B181A787B1801321A704723FA182323A7
:104AD800FB1812781B789A42D8D34623FB181B7808
:104AE800442B01D900F00BFE9A00CF4BD3181B685A
:104AF8009F46FB1D1B78032B02D0072300F003FE03
:104B08002323FB180C221A70C84B180007F092FEDA
:104B18004723FB1800221A7059E047203B181A78DF
:104B2800C04B75214A43D35C1A00C023134014D1EB
:104B38003B181B7875225A43BA4BD318591C3B189B
:104B48001B787522534310331A00B64BD3185A1CDE
:104B5800B74B180007F06EFE33E047203B181A7871
:104B6800B04B75214A43D35C5BB2002B14DA3B1877
:104B78001B7875225A43AB4BD318591C3B181B782A
:104B88007522534310331A00A64BD3185A1CA94B4D
:104B9800180007F04FFE14E047203B181B787522D9
:104BA8005A43A04BD318591C3B181B787522534302
:104BB80010331A009B4BD3185A1C9F4B180007F050
:104BC80039FE47217B181A787B1801321A7047235F
:104BD800FA182323FB1812781B789A429DD300F009
:104BE80091FDFB1D1B78052B02D0072300F08BFDE0
:104BF8003B6830337B6216257C191523FA187B6ACB
:104C080011001800FFF726FB030023707B191B789F
:104C1800002B03D07B191B7800F075FD3B681B69DE
:104C28007B627B6A1B78302B15D17B6A01331B783A
:104C3800782B04D07B6A01331B78582B0BD17B6A05
:104C4800023310220021180018F06EF802004523E4
:104C5800FB181A7007E07B6A180017F0D5FF0200EE
:104C68004523FB181A7015257B191B781900734BFF
:104C780058224A43D35C1A0013009B009B189A00E1
:104C88009B186F4A9A184523FB181B786D4900201A
:104C980008F060FE7B191B78012B3BD87B191B7829
:104CA8001A0058235A43654BD0181626BC191422EB
:104CB800BA184523FB181B78190007F0B5F803004C
:104CC8002370BB191B78002B0BD07B191B78013381
:104CD800D8B2BB191B781A00032108F00FFF00F0A7
:104CE80011FD1523FB181B781900544B58224A4311
:104CF800D35C1A0013009B009B189A009B18504A1B
:104D08009A181423FB181B784F49002008F022FE3C
:104D180000F0F8FC1526BB191B781A0058235A43D3
:104D2800464BD01816257C19484A4523FB181B7892
:104D3800190007F052F9030023702A00BB181B78EA
:104D4800002B0BD0BB191B780133D8B2BB181B78CA
:104D58001A00032108F0D2FE00F0D4FC002007F06E
:104D680099FC00F0CFFCFB1D1B78062B02D0072313
:104D780000F0C9FC3B6830337B621D257C19132386
:104D8800FA187B6A11001800FFF764FA0300237011
:104D98007B191B78002B03D07B191B7800F0B3FC20
:104DA8003B681B697B627B6A1B78302B15D17B6A59
:104DB80001331B78782B04D07B6A01331B78582B7E
:104DC8000BD17B6A023310220021180017F0ACFFC8
:104DD80002004423FB181A7007E07B6A180017F0DA
:104DE80013FF02004423FB181A703B685B697B625F
:104DF8007B6A1B78302B2BD17B6A01331B78782B8D
:104E080004D07B6A01331B78582B21D17B6A02338B
:104E180010220021180017F087FF02004323FB1817
:104E28001A701DE0BC0D002008110408E0FD0308FD
:104E3800E4FD0308F0FD0308FCFD0308381B00200F
:104E4800900D0408D4040408F4040408195902084D
:104E58007B6A180017F0D8FE02004323FB181A706B
:104E68001326BB191B781A0058235A43D94BD0185C
:104E78001D257C194323FB181A784423FB181B783B
:104E8800190006F072FE030023707B191B78002BB3
:104E98000BD0BB191B780133D8B27B191B781A00C9
:104EA800032108F02BFE00F02DFC1323FB181B78C0
:104EB8001900C84B58224A43D35C1A0013009B00C0
:104EC8009B189A009B18C44A98184322BB181C7850
:104ED800BB181B784422BA181278C0490192009373
:104EE80023000200002008F035FD00F00BFCFB1D3C
:104EF8001B78052B02D0072300F005FC3B683033F4
:104F08007B621F257C191223FA187B6A110018008E
:104F1800FFF7A0F9030023707B191B78002B03D03F
:104F28007B191B7800F0EFFB3B6840337B627B6AA0
:104F3800180017F069FE02001E217B181A707B18F2
:104F48001B78012B3BD81226BB191B781A00582353
:104F58005A43A04BD2181F257C197B181B781900BF
:104F6800100005F009FF030023702A00BB181B7806
:104F7800002B0BD0BB191B780133D8B2BB181B7898
:104F88001A00032108F0BAFD00F0BCFB1223FB183D
:104F98001B7819008F4B58224A43D35C1A00130020
:104FA8009B009B189A009B188B4A9A181E23FB1883
:104FB8001B788B49002008F0CDFC00F0A3FB1224DD
:104FC8003B191B781900834B58224A43D35C1A00BB
:104FD80013009B009B189A009B187F4A98183B194E
:104FE8001B7819007B4A58234B43D31813331B787B
:104FF8007C490200002008F0ADFC00F083FBFB1D9B
:105008001B78042B02D0072300F07DFB3B6830336C
:105018007B6222257C191123FA187B6A110018007B
:10502800FFF718F9030023707B191B78002B02D0B7
:105038007B191B7867E311203B181B781900654A18
:1050480058234B43D31810331B78002B09D13B1836
:105058001B780133DBB203220321180008F04EFD50
:1050680050E311203B181B7819005A4A58234B4328
:10507800D318103301221A703B181B781900554BAE
:1050880058224A43D35C1A0013009B009B189A00CD
:105098009B18514A9A18544B1900002008F05AFCE2
:1050A80030E3FB1D1B78042B05D0FB1D1B78032B5D
:1050B80001D0072327E3FB1D1B78042B1BD13B687A
:1050C80030337B6217257C191023FA187B6A11008C
:1050D8001800FFF7BFF8030023707B191B78002B1B
:1050E80002D07B191B780EE31023FB181B781800DD
:1050F80000F018FB06E3FF2000F014FB02E3FB1DA1
:105108001B78042B05D0FB1D1B78052B01D007232A
:10511800F9E23B6830337B6218257C190F23FA18B3
:105128007B6A11001800FFF795F8030023707B19BC
:105138001B78002B02D07B191B78E4E2FB1D1B783F
:10514800052B53D13B6840337B627B6A180017F00C
:105158005BFD020042217B181A700A00BB181B78FD
:10516800002B05D0BB181B78012B01D00823CAE2FD
:105178000F23FB181B781A0058235A43154BD318D2
:1051880018257C190221180006F050FC0300237032
:105198007B191B78002B02D07B191B78B3E20F23F5
:1051A800FB181B781A0058235A430A4BD2181825A3
:1051B8007C194223FB181B781900100006F074FABA
:1051C800030023707B191B78002B21D07B191B78D7
:1051D80099E2C046381B0020900D04081C050408FD
:1051E80054050408740504089C050408FB1D1B7875
:1051F800042B0DD10F23FB181B781C004223FB182E
:10520800E0493A20582262438A18121812781A7014
:105218000F23FB181B781900DA4B58224A43D35C3A
:105228001A0013009B009B189A009B18D64A9A18DC
:105238004223FB181B78D549002008F08BFB61E25C
:10524800FB1D1B78052B01D007235CE23B6830333C
:105258007B6221257C190E23FA187B6A110018003D
:10526800FEF7F8FF030023707B191B78002B02D090
:105278007B191B7847E23B6840337B627B6A1800E6
:1052880017F0C2FC020020217B181A700A00BB1814
:105298001B78002B0ED0BB181B78012B0AD00E23CD
:1052A800FB181B780133DBB208220321180008F031
:1052B80025FC27E20E243B191B781900B14A582314
:1052C8004B43D31848331B68002B23D03B191B785A
:1052D8001900AC4A58234B43D31848331B68202580
:1052E8007A191278100098473B191B781900A54BBA
:1052F80058224A43D35C1A0013009B009B189A005B
:105308009B18A14A9A187B191B78A149002008F01C
:1053180021FBF7E10E23FB181B780133DBB20222D5
:105328000321180008F0EAFBECE1FB1D1B78042BB5
:1053380009D0FB1D1B78052B05D0FB1D1B78062B00
:1053480001D00723DFE13B6830337B621A257C19E3
:105358000D23FA187B6A11001800FEF77BFF030083
:1053680023707B191B78002B02D07B191B78CAE1AC
:10537800FB1D1B78042B52D93B6840337B627B6A48
:10538800180017F041FC020019217B181A700C2331
:10539800FB187A1812781A700D23FB181B781A005C
:1053A80058235A43774BD3181A257C190221180021
:1053B80006F03CFB030023707B191B78002B02D0FE
:1053C8007B191B789FE1FB1D1B78062B0BD13B68D3
:1053D80050337B627B6A180017F016FC0300DAB2C0
:1053E8000C23FB181A700D23FB181B781A0058237E
:1053F8005A43644BD0180C23FB181A781A257C19C9
:105408001923FB181B78190006F062FA03002370B1
:105418007B191B78002B1BD07B191B7873E10D239C
:10542800FB181B781A0058235A43564BD3181A25D1
:105438007C190C22BA181100180006F0A0FD030010
:1054480023707B191B78002B02D07B191B785AE13B
:105458000D243B191B7819004A4B58224A43D35C48
:105468001A0013009B009B189A009B18464A98182C
:105478003B191B781C00434A392158236343D3182E
:105488005B181B781A000C23FB181B784149009302
:1054980013000200002008F05DFA33E1FB1D1B78C1
:1054A800042B01D007232EE13B6830337B627B6AF3
:1054B800180017F0A9FB02001C217B181A707B1832
:1054C8001B78002B2ED0344B432201219954002302
:1054D800FB631EE0FB6B58225A432A4BD3181B254B
:1054E8007C190121180006F0A1FA030023702A0094
:1054F800BB181B78002B09D0FB6BDBB20133D8B289
:10550800BB181B781A00032108F0F8FAFB6B01336B
:10551800FB63FB6B012BDDDD204B1900002008F03D
:1055280019FAEFE01C4B4322002199540023BB6376
:105538001EE0BB6B58225A43124BD3181B257C190B
:105548000021180006F072FA030023702A00BB1825
:105558001B78002B09D0BB6BDBB20133D8B2BB1868
:105568001B781A00032108F0C9FABB6B0133BB632F
:10557800BB6B032BDDDD0A4B1900002008F0EAF9AC
:10558800C0E0C046381B0020900D0408AC05040894
:10559800C8050408E0050408C81A0020080604081D
:1055A8001C060408FB1D1B78032B05D0FB1D1B786C
:1055B800042B01D00723A6E0FB1D1B78042B35D153
:1055C8003B6830337B627B6A180017F01DFB0300D1
:1055D800DAB20B23FB181A7000233B6322E03B6B03
:1055E80058225A434A4BD2180B23FB181B783725ED
:1055F8007C191900100006F088FA030023702A00AD
:10560800BB181B78002B0AD03B6BDBB20133D8B236
:10561800BB181B781A00032108F070FA1CE03B6BDA
:1056280001333B633B6B012BD9DD15E037257C1932
:105638000B23FA18364B1100180006F04CFA030039
:1056480023707B191B78002B06D07B191B781A0056
:105658000321012008F052FA3723FB181B78002B8E
:105668004FD10B23FB181B781A002A4B1900002076
:1056780008F070F945E0FB1D1B78042B05D0FB1DD5
:105688001B78032B01D007233DE0FB1D1B78042B5F
:1056980026D13B6830337B627B6A180017F0B4FA76
:1056A8000300FB62FB6A002B03DDFB6A1A4A934284
:1056B80001DD082327E00023BB620DE0FB6A174ADF
:1056C80053431800124ABB6A58214B43D31824335A
:1056D8001860BB6A0133BB62BB6A032BEEDD07E0CF
:1056E8000B4B5B6A0D491800FAF72CFD0300FB62AF
:1056F800FA6A0B4B1900002008F02CF902E0062387
:1057080001E0C04600231800BD4613B0F0BDC046F6
:10571800381B0020300604081027000060EA00004B
:1057280048060408F0B58FB004AF0200FB1D1A70DC
:10573800664B180007F07EF8654B180007F07AF8FA
:10574800644B180007F076F8634B180007F072F8FE
:10575800FB1D1B78032B07D8FB1D1B787B62FB1DE9
:105768001B7801333B6203E000237B6204233B6226
:1057780009F02AFE0300BB619DE07B6A58225A4368
:10578800564BD3187B617B699B68002B07D0544A22
:105798000C23FB181100180018F0D0F809E07B69F9
:1057A80039229B5C1A004F490C23FB18180018F08B
:1057B800C5F87B6A591C7B691B781A0013009B008B
:1057C8009B189A009B18484A9C187B693D229B5C51
:1057D8001A0013009B009B18444A9D187B693E22BF
:1057E8009B5C1A0013009B009B18414A9B187A691E
:1057F8003A20125C16007A692820125C3D48039210
:105808000C22BA180292019600932B00220007F08E
:1058180011F87B699B68002B09D07B699B685B78D2
:10582800002B04D1344B180007F004F840E008249A
:105838003A197B691100180006F0DCFA20003B18C1
:105848001B7819003B185B781A003B189B782B488B
:1058580006F0F0FF7B695B68002B25D00023FB6115
:105868007B6928229B5C002B10D17B695A6A7B6973
:10587800196ABB69CB1AD318214A94466344214953
:105888001800FAF75FFC0300FB6101E00023FB61ED
:10589800FB69002B01DA0023FB61FA691A4B11003E
:1058A800180006F0C7FF03E0184B180006F0C2FF07
:1058B8007B6A01337B627A6A3B6A9A4200DA5CE768
:1058C800C046C046BD460BB0F0BDC046E0FD03086B
:1058D80070060408C006040810070408381B0020D6
:1058E8006007040864070408900D0408A00F040862
:1058F800B00F04086C0704089C070408BC070408D8
:105908003075000060EA0000D8070408E0070408C2
:1059180080B584B000AF786008001100FB1C021C41
:105928001A703B000A1C1A807B68002B01D10223E5
:1059380045E07B68BB60FB1C1B78002B04D10F2360
:10594800FB1800221A7015E0FB1C1B78FD2B04D1F4
:105958000F23FB1809221A700CE0FB1C1B78FC2B88
:1059680004D10F23FB180A221A7003E00F23FB1837
:1059780001221A70FB1C1B78002B09D0BB68187811
:105988000F23FB181B781A00032108F0B7F810E062
:10599800BB681B781A0013009B009B189A009B1881
:1059A800094A9A183B001B88DBB20849002007F017
:1059B800D1FF012006F01AFE0F23FB181B781800F0
:1059C800BD4604B080BDC046900D0408F404040828
:1059D80080B500AF204B0C220021180018F03AF8CF
:1059E80006F06EFE031E04D01C4B6122012199545F
:1059F80003E01A4B61220021995406F0D3FD031EDF
:105A080007D1012006F0B8FD144B622200219954F9
:105A180003E0124B6222012199540021022006F072
:105A28005FFE0E4B6322012199540C4B6022012129
:105A380099540B4B180006F0FDFE0A4A0A4B110058
:105A4800180006F0F7FE094A094B1100180006F085
:105A5800F1FEC046BD4680BD281B0020C81A0020A4
:105A6800EC0704081C120408F00704085B12040879
:105A78000408040880B584B000AF02003960FB1D3B
:105A88001A70002006F006FE3B68FB60654B60223A
:105A98009B5C3B2B17DC132B0CDABAE0553B252219
:105AA800DA401300012213405A1E9341DBB2002B47
:105AB80043D1AEE0133B282B00D9AAE09A005A4BF9
:105AC800D3181B689F465A2B00DDA2E0552BE5DA58
