:020000040802F0
:10000000004002206D900208798802087B8802086F
:1000100000000000000000000000000000000000E0
:100020000000000000000000000000007D880208C1
:1000300000000000000000007F880208818802089C
:10004000BD90020800000000BD900208BD900208AB
:10005000BD900208BD900208BD9002088988020880
:10006000B5880208BD900208BD900208BD90020844
:10007000C5880208BD900208BD900208000000007B
:10008000BD900208BD900208BD900208BD90020814
:10009000BD900208BD900208BD900208BD90020804
:1000A000BD900208BD900208BD900208BD900208F4
:0800B000D5880208E58802086A
:1000B80010B5064C2378002B07D1054B002B02D036
:1000C800044800E000BF0123237010BDE0110020A8
:1000D8000000000044260308044B10B5002B03D091
:1000E8000349044800E000BF10BDC04600000000FE
:1000F800E41100204426030802780B78002A03D074
:10010800013001319A42F7D0D01A70470023C25CFF
:100118000133002AFBD1581E7047000002B4714613
:1001280049084900095649008E4402BC7047C04638
:1001380002B4714649084900095C49008E4402BC72
:100148007047C04603B47146490840004900095E3B
:1001580049008E4403BC704703B471464908400007
:100168004900095A49008E4403BC704700224308DD
:100178008B4274D303098B425FD3030A8B4244D367
:10018800030B8B4228D3030C8B420DD3FF220902A9
:1001980012BA030C8B4202D31212090265D0030B68
:1001A8008B4219D300E0090AC30B8B4201D3CB035E
:1001B800C01A5241830B8B4201D38B03C01A5241A0
:1001C800430B8B4201D34B03C01A5241030B8B42A2
:1001D80001D30B03C01A5241C30A8B4201D3CB028D
:1001E800C01A5241830A8B4201D38B02C01A524172
:1001F800430A8B4201D34B02C01A5241030A8B4275
:1002080001D30B02C01A5241CDD2C3098B4201D38C
:10021800CB01C01A524183098B4201D38B01C01A0A
:10022800524143098B4201D34B01C01A5241030981
:100238008B4201D30B01C01A5241C3088B4201D330
:10024800CB00C01A524183088B4201D38B00C01ADD
:10025800524143088B4201D34B00C01A5241411A04
:1002680000D20146524110467047FFE701B5002011
:1002780000F0F0F802BDC0460029F7D076E77047D5
:1002880003460B437FD4002243088B4274D30309EF
:100298008B425FD3030A8B4244D3030B8B4228D390
:1002A800030C8B420DD3FF22090212BA030C8B42B6
:1002B80002D31212090265D0030B8B4219D300E056
:1002C800090AC30B8B4201D3CB03C01A5241830BDB
:1002D8008B4201D38B03C01A5241430B8B4201D38B
:1002E8004B03C01A5241030B8B4201D30B03C01AB4
:1002F8005241C30A8B4201D3CB02C01A5241830A2E
:100308008B4201D38B02C01A5241430A8B4201D35C
:100318004B02C01A5241030A8B4201D30B02C01A86
:100328005241CDD2C3098B4201D3CB01C01A5241ED
:1003380083098B4201D38B01C01A524143098B4276
:1003480001D34B01C01A524103098B4201D30B015F
:10035800C01A5241C3088B4201D3CB00C01A524184
:1003680083088B4201D38B00C01A524143088B4249
:1003780001D34B00C01A5241411A00D201465241E2
:10038800104670475DE0CA0F00D04942031000D301
:100398004042534000229C4603098B422DD3030A56
:1003A8008B4212D3FC22890112BA030A8B420CD366
:1003B800890192118B4208D3890192118B4204D38F
:1003C80089013AD0921100E08909C3098B4201D30F
:1003D800CB01C01A524183098B4201D38B01C01A49
:1003E800524143098B4201D34B01C01A52410309C0
:1003F8008B4201D30B01C01A5241C3088B4201D36F
:10040800CB00C01A524183088B4201D38B00C01A1B
:100418005241D9D243088B4201D34B00C01A5241F2
:10042800411A00D20146634652415B10104601D37F
:100438004042002B00D54942704763465B1000D309
:10044800404201B5002000F005F802BD0029F8D0AF
:1004580016E770477047C0468446100062468C46CF
:100468001900634600E0C0461FB501F02DFC0028C6
:1004780001D40021C8421FBD10B501F071FB4042F4
:10048800013010BD10B501F01FFC002801DB002071
:1004980010BD012010BDC04610B501F015FC0028A4
:1004A80001DD002010BD012010BDC04610B501F0CF
:1004B8009BFB002801DC002010BD012010BDC046B8
:1004C80010B501F091FB002801DA002010BD0120D1
:1004D80010BDC046844608006146FFE71FB500F01E
:1004E80029FA002801D40021C8421FBD10B500F028
:1004F800B1F94042013010BD10B500F01BFA0028D8
:1005080001DB002010BD012010BDC04610B500F071
:1005180011FA002801DD002010BD012010BDC046E1
:1005280010B500F0BFF9002801DC002010BD012043
:1005380010BDC04610B500F0B5F9002801DA00205A
:1005480010BD012010BDC046002B15D1002A13D1C3
:10055800002906DB01DC002806D00020C043410842
:1005680002E080210906002007B4024801A14018D2
:10057800029003BDE1FEFFFF03B4684601B502988F
:1005880000F034F8019B9E4602B00CBC7047C04690
:10059800F0B5CE469946030C9C46130447461B0CFF
:1005A8001D000E0061460404240C80B50700100CE1
:1005B8004B436543414360432C0CC01824188C46B8
:1005C800A34203D980235B029846C4444946794331
:1005D8005643230C2D042D0C8919634424046019F7
:1005E800C918C0BCB946B046F0BDC046F8B5CE463D
:1005F800474680B59146984604000D0002F05AFC23
:1006080007000E0002000B0048464146FFF7C0FFF6
:10061800241A8D41089B380031001C605D60C0BC05
:10062800B946B046F8BDC046F0B546464F46D64630
:100638004502C0B5C30F470098460E1C6D0A3F0E11
:100648005BD0FF2F21D08023ED00DB041D43002366
:1006580099469A467F3F74027300640A1B0EF60F90
:10066800002B20D0FF2B43D080220020E400D204AE
:1006780014437F3B4246FF1A4B4672400F2B00D96A
:100688009DE071499B00CB589F46002D5AD1082305
:100698009946063B74029A467300FF27640A1B0EAC
:1006A800F60F002BDED1002C3BD1012342464946F0
:1006B800724019430E2918D86448890041588F465A
:1006C8005346022B00D1B8E0032B6ED042462C00D3
:1006D800012B40D100200024C0052043D20710433D
:1006E800E0BCBA46B146A846F0BDFF200024F3E7B7
:1006F800002C20D10223FF3FD8E7002D05D1042389
:100708009946033B00279A46A5E7280002F0B4FB68
:100718007627431F9D4000237F4299469A463F1AF9
:1007280099E7200002F0A8FB431F9C4076235B4218
:100738001B1A00209EE703234A461A4391460320CA
:10074800FC3397E70C239946093BFF279A4682E733
:1007580003282CD0320038007F30002847DD63079B
:1007680004D00F232340042B00D00434230103D5E5
:100778003800374B80301C40FE28B6DCA401640AE0
:10078800C0B2A9E780240022FF20E403A4E7802365
:10079800DB031D4201D01C420BD08024E4032C4310
:1007A80064024246FF20640A96E746462C008023EE
:1007B800DB031C4364023200FF20640A8CE76D01EE
:1007C800600185422DD21B230024013F0126290008
:1007D80064006D00002901DB854201D32D1A3443E2
:1007E800013B002BF3D16B1E9D412C43B3E7012342
:1007F8001B1A1B2B00DD6DE721009E37D940BC403A
:100808000B00611E8C412343590704D00F21194066
:10081800042900D00433590113D49B0100205C0A39
:100828005AE71A2301242D1AD0E7981E434258414B
:10083800404232000024C0B24EE74246FF20002466
:100848004AE70120002447E770260308B02603087A
:10085800FFFFFFF770B542004E024C0045026D0ADB
:10086800120EC30F760A240EC90FFF2A10D0FF2CD0
:100878000CD00120A2420AD1B54208D18B420FD038
:10088800002A04D12800431E984100E0012070BDD1
:100898000120FF2CFBD13543F9D14B401800F6E776
:1008A8000020F4E730B5420044024D02C30F48006F
:1008B800640A120E6D0A000EC90FFF2A18D0FF280D
:1008C8000AD0002A1ED100280AD1002D29D0002CD8
:1008D8002DD14800013830BD002D25D1002A01D185
:1008E800002CF6D08B4219D001205B421843F2E766
:1008F800002C19D1FF28F7D1002D15D100208B42EB
:10090800F2D1E8E70028EFD08B42EDD18242EBDC50
:1009180004DBAC42E8D80020AC42DCD258000138F5
:10092800D9E7002CD7D0DFE702204042D3E78B423B
:10093800DAD1EEE730B5420044024D02C30F480059
:10094800640A120E6D0A000EC90FFF2A17D0FF287D
:100958000AD0002A1BD100280AD1002D1DD0002C56
:100968002DD14800013811E0002D0ED1002A01D107
:10097800002CF6D08B420CD15800013806E0002C30
:1009880003D1FF2805D1002D15D0022030BD002845
:1009980006D101205B421843F8E7002CF6D0F8E7AF
:1009A8008B42F6D18242F4DCE6DBAC42F1D800207F
:1009B800AC42EBD2E0E700208B42EAD1E6E78B427B
:1009C800E7D1F2E7F0B54F464646D6464400C0B5F3
:1009D80046020F1C760A240EC50F002C00D1DAE05F
:1009E800FF2C74D08023F600DB041E4300239946B5
:1009F8009A467F3C7B025B0A98467B001B0EFF0FE2
:100A0800002B74D0FF2B00D18EE042468021D2000B
:100A1800C90411437F3B2A00E4184B467A408846B4
:100A2800D2B20A2B75DC4B460020022B0FDD49465B
:100A380001238B40A621C9000B4269D1902189006E
:100A48000B4200D000E18821194200D0F5E0414670
:100A58000904090C43460800350C36041B0C360CF7
:100A6800704369435E435D437618030C9B199942B2
:100A780003D9802149028C46654400041904000CFE
:100A880009188E01701E86411B0C890E5B190E43D6
:100A98009B011E431B016CD423007F33002B00DC19
:100AA800B1E0150071070BD00F2021003040042859
:100AB80006D00436320103D56E4B1E400B0080333E
:100AC800FE2B00DDBDE0B201520ADBB248E0002E89
:100AD80000D092E008239946063B9A467B025B0ABF
:100AE80098467B00FF241B0EFF0F002B8AD142463D
:100AF800002A64D149460132114389460A2908DC93
:100B08007D400120EAB2022991DC1500002227E08D
:100B180015005346022B00D193E0032B1AD0012B6A
:100B28002CD1002300221BE04346FF34002B55D074
:100B380003214B460B4319000A2B00DC92E00F2BD4
:100B480000D08CE08022D203164203D043461342E1
:100B580000D17DE08022D20332435202520AFF23A1
:100B6800D805ED0710432843E0BCBA46B146A8466D
:100B7800F0BD0123150071081E400E432300803389
:100B8800611C002B41DD720794D00F223240042AE9
:100B980000D08EE78EE7002E05D104239946033B4B
:100BA80000249A4626E7300002F066F97624431FAF
:100BB8009E400023644299469A46241A1AE7404602
:100BC80002F05AF94B46241A763C0A2BA1DC43461C
:100BD800053883407D409846EAB224E74A46023306
:100BE80013432A007A40D2B20A2B92DC49461500F8
:100BF800002926D09946022019E70C239946093B7B
:100C0800FF249A46F6E6150021000122D31A1B2B71
:100C180000DD86E79E3132008E40DA40731E9E4129
:100C28003243530704D00F231340042B00D004325F
:100C3800530110D50123002292E73D004646824623
:100C480067E7FF2300228BE780220025D20386E78F
:100C58003D001A4383E792010023520A80E73D00D2
:100C6800464677E72A0001237A408B400320D2B218
:100C7800E9E6C046FFFFFFF770B5002812D0C3179A
:100C8800C5185D40C40F280002F0F6F89E231B1A11
:100C9800962B0FDC082838D0083885406D026D0A7D
:100CA800D8B202E0002400200025C0052843E4074C
:100CB800204370BD992B14DC421F95402A0015492A
:100CC800114055071CD00F252A40042A18D004319A
:100CD800CA08490115D59F235202181A550AC0B2ED
:100CE800E3E705222900121AD14002001B32954081
:100CF8002A00551EAA410A43064911405507E2D168
:100D0800CA085202550AD8B2CFE76D026D0A8E3072
:100D1800CBE7C046FFFFFFFB10B5041E0DD002F065
:100D2800ABF89E231B1A962B0CDC082834D0083805
:100D380084406402640AD8B201E000200024C0059F
:100D4800204310BD992B13DC421F9440144A2240C3
:100D580061071CD00F212140042918D00432D4087F
:100D6800520115D59F236402181A640AC0B2E6E737
:100D7800020021001B3291400A00511E8A410521C0
:100D8800091ACC401443064A22406107E2D1D4082C
:100D98006402640AD8B2D2E76402640A8E30CEE7ED
:100DA800FFFFFFFBF0B54F464646D646C0B582B0BA
:100DB800009001910E034C00CD0F710A009E5F0058
:100DC800760F0E43009900920193C90089461903D2
:100DD8007B0D9846019B490ADB0F9C46009B009AB5
:100DE8005B0F0B434146640DD200611A654500D183
:100DF800A6E0002972DD4746002F00D1DDE0CC4F88
:100E0800BC4200D19AE10127382917DC80273F042A
:100E18003B431F2900DDDDE12027781A1F008740AA
:100E2800BA461700CF408446380057460743604605
:100E38008240CB40501E8241F61A17434B46DF1BB7
:100E4800B94580414042361A330200D4FFE07602A9
:100E5800760A002E00D13CE1300002F00DF80300C4
:100E6800083B20213800CA1AD0409E4002009F400B
:100E780032439C4200DDA6E1181B0130091A3E00EE
:100E88008F40C6407B1E9F4113008B4037431F4352
:100E9800C2403B0016000024134300D1DFE17B076A
:100EA80000D132E30F233A003B40042B04D03A1D13
:100EB800BA42BF417F42F619330200D423E39C4B68
:100EC80001349C4200D1B4E09A4B64051E40640D85
:100ED8007707D20876021743360BACE0002900D119
:100EE8007EE04146091B002C00D060E134004846F2
:100EF800044300D1C9E14C1E012900D12EE28C4DDA
:100F0800A94200D124E20127382C11DC21001F2935
:100F180000DD0BE2202437004846641AA740C84089
:100F280007434846A040CE40441EA0419B1B0743B0
:100F3800D71BBA4292415242654644469E1A83E7FD
:100F4800002900DC9CE04746002F67D11F001743AB
:100F580000D1E4E0481E012900D19BE1744FB94259
:100F680000D1EBE001270100382811DC1F2900DD42
:100F7800C7E12027781A1F00844687401000C84020
:100F8800074360468240CB40501E8241F618174303
:100F98004F444F45804140423618330257D5644B81
:100FA80001349C4245D00121624B7A081E403940E9
:100FB8000A43F7071743760871E71F00174300D164
:100FC800ADE04F1EBC46012900D182E1584FB9421D
:100FD80000D190E161460127382900DD2EE718E7A6
:100FE800554F611C394200D0D0E0310048461F00FF
:100FF80001431743002C00D03DE1002900D1BCE19A
:10100800002F00D0BFE14B460021D80877070743DF
:10101800F00806034C05360B640D0CE0444FBC4247
:1010280000D18BE001273829B2DC80273F043B43FD
:101038009CE70026002724053443ED072C4338009D
:10104800210002B0E0BCBA46B146A846F0BD7B0715
:1010580004D00F233B40042B00D028E7F808344B7A
:1010680077070743F0089C4200D04AE23B0003435D
:1010780059D080263603064336032D4C360BDAE763
:10108800002961D04146091B002C00D1B9E0284C49
:10109800A04500D1A5E10127382913DC80242404C8
:1010A80026431F2900DDC8E1202437004846641A7A
:1010B800A740C84007434846A040CE40441EA04130
:1010C8009B190743BF189742924152424446D6188B
:1010D80063E7380001F0D0FE030018331F2B00DC53
:1010E800BFE63A00083882409C4200DD83E01B1BC3
:1010F800581C1F2800DCB4E117001F3BDF402028E4
:1011080005D040231B1A9A40531E9A4117430024C6
:10111800002F0AD07B0700D0C4E626009EE74B4686
:101128000C00D8089BE70027014C002683E7C0463F
:10113800FF070000FFFF7FFFFE0700004B46770711
:10114800D8080743F00891E7CD4F611C39426BD1AD
:10115800310048460143002C00D04BE11F001743E3
:10116800002900D181E1002F00D14CE74A444A45CB
:101178008041F61840423618330200D5B0E1170016
:101188009146374300D03EE7002654E74946891A7E
:101198008846C145BF41F11A7F42C91B0F0261D47D
:1011A80047460F4300D1BDE00E00474651E6B54C17
:1011B800A04500D100E10127382900DDB8E68024E8
:1011C80024042643A3E6B04EE41A16407B0700D059
:1011D8003FE743E70F001800203FF84084462029E6
:1011E80003D04027791A8B401A43531E9A4163460D
:1011F80017001F4322E6A448E11A10404707C00819
:1012080007E734004846044300D1FAE04C1E0129A0
:1012180000D1D7E09B4FB94200D1E2E00127382C3A
:1012280000DD4FE721003CE7964CA14200D1DDE00C
:101238004A444A458041F31840421818C7075208E3
:1012480017434608520705D00F220C003A40042ADB
:1012580000D02CE67607FF0837430009D9E60027B7
:101268000026E8E64946571ABA4292419E1B524266
:101278006546B61AEDE5002900D0C6E0002F67D113
:10128800802600257F4C3603D5E665460C001E00F7
:10129800D008E4E64A444A458041F3184042181809
:1012A8001100030200D496E0774B49081840C307A1
:1012B8000B434408490700D129E10F221A40042AA8
:1012C80000D1EAE01F1D9F42B6417642361902243A
:1012D800C4E649468F1AB9458041F61A4042361A83
:1012E800330206D47307FF0801211F43F00890E674
:1012F80065460124ABE54B467707D8080743F00855
:10130800B4E60F001800203FF8408446202903D097
:101318004027791A8B401A43531E9A416346170097
:101328001F4335E600250024002684E60C0035001E
:10133800203CE540202905D04024611A8E404946CA
:10134800314389464846411E884107002F43EFE54F
:10135800D2085F0765461743D80887E6171ABA42C6
:1013680092419E1B5242B61A3302C1D47307FF083A
:10137800654601211F43F0084BE6002F7BD06546E8
:101388001E0091463FE6811A8846C145A441F11ADC
:101398006442091B80242404214277D0101A824217
:1013A800924107009E1B5242B61A374300D0A0E074
:1013B8006546002400263EE65F07D20865461743C7
:1013C800D80853E6811891429241F0185242801889
:1013D800030200D568E74707C9080F43C008012181
:1013E80017E6D2085F071743D8083FE60C00002627
:1013F800002720E6002956D15F07D2081743D808EE
:1014080034E60C001E00D00829E6C1087007014325
:10141800F008002F62D080242403204207D0DE0881
:10142800264204D165463000D1085B0719434F0FA7
:10143800C900C9087F070F4318E60C003000203C9C
:10144800E0408446202905D04024611A8E40494650
:10145800314389464846411E8841614607000F438B
:1014680030E620210027091A0EE51E00002F00D0C3
:1014780022E5002458E7002500240026DBE5C046C5
:10148800FE070000FF070000FFFF7FFF47460F43EE
:1014980000D147E70E00C146B5E5DF086407022121
:1014A80027430009B5E51900C0087707074311432A
:1014B800F008002900D1D9E580210903084207D0A6
:1014C800DC080C4204D1D2085B071A43170020003D
:1014D8007B0FFF00FF085B071F43C7E50F00C5E54B
:1014E800124BD20833405F075B02012417431E0BDF
:1014F800A1E5264212D00D4B6546020001241E408C
:10150800E6E4210085E51700A8E53A00D4E4DB0805
:1015180064071C432700022100097AE5C008770701
:10152800074365460021F00873E5C046FFFF7FFFCB
:10153800F0B5DE46454657464E46E0B587B00092C0
:1015480001930B031B0B9B46CA0F4B0004008046FC
:101558005B0D029200D198E07C4A934237D05946FD
:10156800420FC9000A43802109041143C200904672
:10157800774A894692469A44002300240393009EA2
:10158800019F3B031B0B9B467B0030005B0DFD0F4F
:10159800002B59D06D4A934248D05946720FC90062
:1015A8000A438021090411438B466949F2008C469D
:1015B80051466344CB1A9A460021029E6E40F6B209
:1015C8000F2C00D9CEE0634BA4001B599F465A4606
:1015D8000243914600D090E09A46022390460824A0
:1015E8000393CCE7CB464246029D0399022900D1DA
:1015F800DEE1032900D18DE0012900D079E12E0038
:1016080000220023002490461B052343F60733439A
:101618004046190007B0F0BCBB46B246A946A046F2
:10162800F0BD002200249046484BEDE75A46009B47
:101638001A43494B9C46E244002A59D102231C43D1
:10164800002302219B46B8E75A46009B1A4349D01B
:101658005B46002B00D19CE1584601F00DFC0200CE
:1016680003000B3A1D27009EBA1A19005846D640A7
:1016780008398840320002439346009A8A40374925
:1016880053448A4600219A4497E75B4603439946A8
:1016980021D05B46002B00D169E1584601F0ECFBF4
:1016A8000B235B429C460200844466461D239B1B19
:1016B800260011005846DE400839884033000343AD
:1016C800994623008B409846254B00249B1A9A463E
:1016D8000023039353E7002398469A4601330424D2
:1016E80003934CE701231C43002301219B4664E735
:1016F8000323320003211C435FE79A460323D9469C
:101708000C2403933BE700238024984600260F4BC4
:10171800240379E780245B4624031C4324032E001A
:1017280090460A4B240B6FE780244B462403234240
:1017380002D05B462342F0D080244B4624031C434E
:101748002403029E014B240B5EE7C046FF070000FE
:1017580001FCFFFFEC26030801F8FFFFF30300007C
:101768000DFCFFFFCB4500D2F8E000D1F3E00123E8
:101778005B429C46444648460025E2445B46170EB9
:101788001B021F43190C3B04120200971F0C9146C1
:1017980002910397FEF770FD02007A430B04210CB7
:1017A800804619438A4209D9009F0123BC465B42FF
:1017B80061449C46E0448F4200D85CE1881A029953
:1017C800FEF75AFD039A240442430904240C03003B
:1017D8000C43A24206D90099013B8C466444A142BD
:1017E80000D842E1A01A424612041A4393464B46D7
:1017F80059461B0C1F0004930B0449460904090CA5
:101808000C001B0C5C43120C7B43884651437A4303
:10181800270CBC465B186344994203D980214902CE
:101828008C466244190C24041B04240C8A181C19C5
:10183800904202D316D1A54214D25B46009F013BC9
:101848004D4405934D459B41BC465B426344C018DB
:10185800874200D302E1824200D929E100D124E184
:10186800059B9B462C1BA542AD41009B801A6D42EF
:10187800401B834200D10FE10299FEF7FDFC039A59
:101888000B044243210C050019438A4200D9CBE0DE
:10189800881A0299FEF7F0FC039A240442430904CB
:1018A800240C03000C43A24200D9CAE04146A41A02
:1018B8002A041A43049F13041B0C594340467B43D4
:1018C8009C46150C68430B0C844463447D43984242
:1018D80003D98020400284466544180C09041B047F
:1018E800090C40195B18844227D323D00123350003
:1018F8001A43944B5344002B60DD510700D086E017
:101908002E00D1085A46D20106D55A468E4B1A40A7
:1019180080239346DB0053448C4A934200DD80E6E3
:101928005A4652070A4390465A465B055402240B0E
:101938005B0D69E63500002BDBD0009D511EAC46DF
:101948006444AC4200D29EE0844200D2E1E000D17F
:10195800EEE00A00CAE7424500D908E74B46DC0733
:10196800580843465B081C434346DD0706E701F079
:1019780083FA15239C4684440200634620321C2BBC
:1019880000DC92E6230008388340994600239846F5
:101998009AE601F071FA02000300153220331C2A7E
:1019A80000DC5FE600990838814000228B4666E635
:1019B80000222E0000249046654B25E62E000121CA
:1019C800C91A382900DD1BE61F297EDC614814008E
:1019D80050445B4682408340CC40501E82412343A2
:1019E8001A435B46CB40510709D00F211140042907
:1019F80005D0111D9142924152429B180A001902CA
:101A080000D49BE00022012300249046FCE50F212E
:101A18001140042900D173E7111D914292415242AD
:101A28002E00C90893446DE7009B013D9C46614424
:101A38008B4200D92CE78A4200D829E7851E6144E9
:101A480026E70099013B8C466444A14200D92DE762
:101A5800A24200D82AE7831E644427E7874200D0C1
:101A6800FEE6A94500D9FBE6F5E6A24200D8B9E6AC
:101A7800831E6444B6E68A4200D89FE6BC46831EAD
:101A8800984661449AE60A00844200D02EE74B4506
:101A980000D02BE735002CE72A4B2F4A53449245B8
:101AA80043DB0122002193442CE7AC4200D8D7E65F
:101AB80002235B429C4600994D444D459B41E344BB
:101AC8008C465B426344C018CCE61F204042C31AD0
:101AD8005846D840202904D05946204B53449940B1
:101AE8000A43531E9A410723190002430024114058
:101AF800134209D008331340042B1DD0131D934201
:101B080089411A0049424907D2080A4390460023EE
:101B18007AE54946009F4D004D458941BC464942FA
:101B28006144A946023A6418AEE70122524246E7E8
:101B38009945EED30A00AAE70021E5E759075B02B9
:101B48001C0BE1E7FF030000FFFFFFFEFE0700009C
:101B5800FF0700001E04000002FCFFFF3E04000017
:101B6800F0B55746DE464E464546E0B50D00040042
:101B7800E80F83460903D80F090B824619488C469B
:101B88001F0369005E00490D3F0B760D814218D096
:101B980086420FD00120B1420DD1BC450BD19442F1
:101BA80009D1D3451CD0002905D160462043431EE6
:101BB800984100E00120F0BCBB46B246A946A046C9
:101BC800F0BD01208E42F6D1614639430F0017431C
:101BD8002743F0D15B465246981A431E9841EAE7DC
:101BE8000020E8E7FF070000F0B557464E46454697
:101BF800DE46E0B50D000E034900490D8A46DF0FA9
:101C0800E90FBC4683B02F4F04008046019158006D
:101C180019039146360B090B400DBA451DD0B84241
:101C28000DD05746002F2AD13443002824D10A4327
:101C380036D0002C41D163465800013815E01143D5
:101C480038D15346002B01D12643F4D0019B63457C
:101C580007D1019B5800013807E026432AD1504597
:101C680021D00120019B5F42384303B0F0BCBB4642
:101C7800B246A946A046F0BD002CDCD0E6E7002815
:101C8800EFD0019B6345ECD18245EADCE1DB8E4273
:101C9800E7D8DED1C845E4D80020C845E5D2D8E762
:101CA800002CE2D0DDE7114304D1019B6345D8D174
:101CB8000020DAE702204042D7E7019B6345E6D0DF
:101CC800CFE7C046FF070000F0B557464E464546E9
:101CD800DE46E0B50D000E034900490D8A46DF0FC8
:101CE800E90FBC4683B02E4F04008046019158008E
:101CF80019039146360B090B400DBA451ED0B84260
:101D08000DD05746002F27D13443002833D10A433A
:101D180034D0002C40D163465800013815E01143F7
:101D280012D15346002B01D12643F4D0019B6345C1
:101D38001DD00120019B5F42384306E0264303D1B2
:101D48005045F6D111431CD0022003B0F0BCBB466D
:101D5800B246A946A046F0BD0028EAD0019B6345DB
:101D6800E7D18245E5DC02DB8E42E2D80ED0019B4A
:101D780058000138E9E7002CCDD0D7E7002CE4D093
:101D8800D7E7019B00206345DFD0D2E7C845D0D80C
:101D98000020C845D9D2EAE7019B6345E4D0C8E7EB
:101DA800FF070000F0B557464E46DE464546E0B50B
:101DB8001F000B031B0B16009A46CA0F4B000400AA
:101DC800914685B05B0D00D1CFE1CD4A934255D005
:101DD8005146420FC9000A43802109041143C20039
:101DE8009046C84A8A4693469B440023002502939E
:101DF8003C037B00FA0F0196240B5B0D009200D187
:101E080088E1BF4A934200D192E0BE4A94466344B7
:101E18009B440A2D42DCE400730F23438024494687
:101E280024041C43F3000193009B00205940CBB2CB
:101E38000393022D00DC94E00123AB401D00A62390
:101E48002A00DB001A401D4200D029E290239B00A3
:101E58001D4200D14DE20023802499462403A84B5B
:101E680010004A461B052343D2071343190005B047
:101E7800F0BCBB46B246A946A046F0BD5246024356
:101E8800904600D0ACE19B46022392460825029377
:101E9800AEE7009BA2469946019B9846029B022BFF
:101EA80000D1CAE1032B00D192E1012B10D100230C
:101EB80000240022D4E701227B083A40134352460B
:101EC800D2071343984653465B089A46039B9946A4
:101ED8005B46581C8023DB005B44002B00DCB1E12F
:101EE800424652070BD00F2241460A40042A06D028
:101EF8004246111D414592418846524292445246FB
:101F0800D20106D55246804B1A4080239246DB0008
:101F1800C3187E4A934200DD8FE14246D1085246FB
:101F280052070A4351465B054C02240B5B0D97E7A9
:101F3800734B26439C46E344002E00D16FE10323F4
:101F480049461D43009B5940CBB203930A2D00DD3F
:101F580033E10123AB401D000323029388222A4268
:101F680097D1424643461204120C160001981D0CE4
:101F7800030C0004000C4643B4461E006E43009652
:101F8800160007005E436146B0466F430E0CB84426
:101F98004644B74205D9802149028846009F4744F4
:101FA800009761460904090C370C36048C46310049
:101FB800614401911100260C2404240C61438C46D1
:101FC8002100694389466146090C884672434A44A0
:101FD80042447543914503D98021490288464544C6
:101FE800110C884661460904090C8C4612046244A7
:101FF800B91802915146090C8C4651460F043F0C02
:102008003900414345448846614641438A46414632
:102018006046090C894658437B4353444B449A45D0
:1020280003D98021490289464844190C894641460A
:102038000904090C8846390061431B044344884657
:1020480061464C4371438C46414677430E0C3F1919
:10205800F6194844B44203D9802149028946CC4440
:102068000299009F894631044F4489464146974268
:1020780092410C04240C4C44FF1852426419A118D4
:102088009F429B41884682465B42994690459241D1
:10209800AC42A441C244D1445242644214439945DB
:1020A8009B41824592415B42524213434A46360C59
:1020B800A419E31863445B02D20D1A4301999246AE
:1020C8007A020A43501E8241FF0D17434A465202C4
:1020D8001743B846DB0100D5EDE60D4B039A5B4488
:1020E8009146002B00DCACE03A00520700D110E723
:1020F8000F2258463A40042A00D0F9E609E7C046BC
:10210800FF07000001FCFFFFFFFFFFFEFE070000C6
:10211800FF030000220032436FD0002C00D1C2E040
:10212800200000F0A9FE020003000B3A1D20821ACD
:1021380030001900D04008398C4002002243340096
:102148008C405946CB1A86498B469B440A2D00DDA4
:10215800A4E64946009B01945940CBB214000020E4
:102168000393022D00DD67E6FBE6534603439846DA
:102178003CD05346002B00D1A3E0504600F07CFE33
:102188000B235B429C4602008444110050460839E8
:1021980088401D23804660461B1A2000D840030053
:1021A800404603439A4623008B4098466C4B0025D3
:1021B8009B1A9B46002302931AE60F2D00D0C9E014
:1021C800802352461B031A4202D01C4200D192E0DF
:1021D8008024534624031C4324034246240B3EE632
:1021E8009B46032380460C25029301E600239A466A
:1021F8009B46013304250293FAE501210D430A2D7C
:1022080000DD4BE6494600984140C9B20391022DD2
:1022180000DC96E000230024012001930CE64946E7
:102228000223009A2B435140CAB203920A2B00DDC5
:1022380034E6002D57D1039B994600240022494BD0
:102248000EE658460121C91A382900DD2FE61F2954
:1022580056DD1F2254465242D31ADC40202907D0AB
:10226800414B42469C465346604483401A4390463D
:1022780042460721531E9A410B0022431340002473
:10228800114209D00F231340042B5DD0111D914238
:102298009B410A005B425B07D2081A430023DFE533
:1022A800039B9946FAE5019800F0E6FD0200030059
:1022B800153220331C2A00DC38E7019A083882409E
:1022C8003FE700F0D9FD15239C468444020063468D
:1022D80020321C2B00DC58E70023984623000838DE
:1022E80083409A4662E71D000023002402200193E0
:1022F800A2E5029032E61C43009B019A9946AEE59E
:102308001A4B5246C31840469A40C84002434046BA
:1023180098400300581E834154461A43CC40530743
:1023280009D00F231340042B05D0131D934292416B
:102338005242A4181A00230208D5012300240022BF
:102348008EE5894600248BE50023A5E76307640230
:10235800240BA1E7009BA2469946019B984637E7C4
:102368000DFCFFFFFF0700003E0400001E040000F4
:10237800F0B557464E464546DE46E0B583B0009078
:1023880001910C034D00CE0F610A009C5F00640FA1
:102398000C43009900920193C80019037B0D9946DC
:1023A800019BCC4FDB0F9C464B0A00998046490F96
:1023B8001943009B8B46DA0092466D0DB94500D152
:1023C800BFE00123614659404B468C46EB1A8E42CA
:1023D80075D0002B00DCA3E24946002900D1CEE0ED
:1023E800BD4200D100E20127382B19DC802759466D
:1023F8003F0439438B461F2B00DDFAE12027F91AE9
:102408008C4659466746B9400F001100D9400F4322
:1024180061468A40511E8A415946D9401743641A79
:10242800C71BB84280414042241A230200D440E12D
:102438006402640A002C00D154E1200000F01CFD65
:102448000300083B20213800CA1AD0409C400200F3
:102458009F4022439D4200DDA6E1581B0130091A26
:102468003C008F40C4407B1E9F4113008B40274394
:102478001F43C2403B0014000025134300D1F7E17D
:102488007B0700D177E30F2338003B40042B04D0AF
:10249800381DB842BF417F42E419230200D468E3E3
:1024A8008C4B01359D4200D1F4E08B4B6D051C40EF
:1024B8006D0D6707C00864020743240BECE0002B8E
:1024C80000DC29E34946002900D0D6E059461143EB
:1024D80000D12EE1591E012B00D1E6E1BB4200D10B
:1024E80082E101270B00382914DC1F2B00DD3CE2B8
:1024F8002027F91A8C4659466746B9400F00110043
:10250800D9400F4361468A40511E8A415946D940F5
:10251800174364183F188742804140422418230219
:1025280000D4C6E06B4B01359D4200D1B2E00121D9
:10253800694B7A081C4039400A43E7071743640887
:102548009EE7664B11438A46EB18002928D066455A
:102558002CD0002B5BD0002D00D12CE15B466646C9
:102568005F07D2081743DD083B002B4300D1E2E0A8
:10257800802424032C432403564D240B8CE0594615
:10258800114300D1D5E0591E012B00D1B9E1BB425E
:1025980000D1B1E101270B00382900DD40E72AE727
:1025A8006146012779408C466645D2D1002B00D17F
:1025B800C5E0002D00D055E14B462500054300D16C
:1025C80012E2591E8C46012B00D149E2414DAB4223
:1025D80000D18FE20127382911DC63461F2B00DD6B
:1025E8005BE26146202327005B1A050098409F4064
:1025F800CD40431E9841CC402F430743A344BF1806
:102608009742924152425A4414004D4687E7344F4C
:102618006B1C3B4200D0B6E05946230011430F0023
:102628000343002D00D026E1002B00D1C0E1002992
:1026380000D1A1E0831A98465B464045AD41E31AB4
:102648006D425B1B80252D042B4200D14BE15B467C
:10265800101A824292411C1B07000126634652420F
:10266800A41A27431E40002F00D142E12C4200D17A
:102678006DE2194B01251C401BE7BD4200D13BE12F
:102688000127382B00DD45E7802759463F043943A9
:102698008B462AE7002400272D052543F6073543F6
:1026A8003800290003B0F0BCBB46B246A946A04694
:1026B800F0BD7B0704D00F233B40042B00D0E7E696
:1026C8002B00F808034A67070743E508934200D13F
:1026D8004AE7A5E0FF070000FFFF7FFF01F8FFFFC3
:1026E800FE070000380000F0C7FB030018331F2B5B
:1026F80000DCA7E63A00083882409D4200DD8AE007
:102708005B1B581C1F2800DCD8E117001F3BDF406B
:10271800202805D040231B1A9A40531E9A4117437C
:102728000025002F00D1E5E07B0700D0ABE62C00A8
:10273800C6E7C008C6E700270024D14DACE7D14F53
:102748006B1C3B4271D123000343002D00D04EE1A6
:102758005746002B00D1B5E1002F0DD083188342D6
:1027680080415C4440422418220200D5C8E11F0081
:102778009846274300D1BCE043466707DB081F4360
:10278800E50800234CE0831A98465B464045BF4164
:10279800E31A7F42DB1B1F027CD447461F4300D14C
:1027A800A6E01C00474645E6B74CED1A14407B07E7
:1027B80000D080E784E74B462500054366D05F1EBE
:1027C800012B00D1FCE0AE4DAB4200D15EE1664684
:1027D800382F00DCB4E00120171ABA4292415B4658
:1027E80052424D469C1A20E66707C0080743E50891
:1027F800BAE61F005946203FF9400F00202B05D0AC
:102808004021CB1A594699400A43924653465A1ECC
:1028180093411F4304E6EB1A9B4D15406F07ED08E3
:102828002C035D05240B6D0D36E7954DAB4200D1A9
:10283800D6E082182100824280415944404208185B
:10284800C707520817434408520700D485E10F22EE
:102858001D003A40042A00D01AE6FF0864072743FF
:102868000509DDE75B46D2085F071743DD087BE60D
:102878000027002410E7002B00D0D6E0002900D064
:102888002FE1802400267E4D240305E766465C463A
:10289800D00817E75B46171ABA4292411C1B01265B
:1028A80063465242A41A1E40C4E5831883428041FD
:1028B8005C44404225182A0200D4DAE0724A5B08D8
:1028C8001540EA071A4369085B0700D44AE10F2359
:1028D8001340042B00D1FCE0171D9742A441644229
:1028E80002256418ECE647461C001F4300D043E766
:1028F800002600250024CFE6C00867070743E5083F
:1029080032E6871A5B46B8428041E41A4042241AEC
:10291800230228D46307FF081F43E50801237FE744
:10292800002B00D173E64B465F1B3B00002D00D106
:1029380042E7382F00DDECE080230E001B041C4327
:102948001F2F25DC20252300ED1B0100A840AB40EC
:10295800F940451EA8410B43FC4018435B461B1B2E
:102968009B4639E76646012562E51F005946203F28
:10297800F9408C46202B05D040275946FB1A994030
:102988000A43924657467B1E9F4163461F43C1E553
:102998003B002500203BDD40202F04D04023DB1BDB
:1029A8009C40204380464046431E9841284313E7F5
:1029B80000299DD0012663465C4690461E40DBE612
:1029C800171A5B46BA4292411C1B5242A41A2302B0
:1029D800C8D46307FF081F4366460123E5081FE7BD
:1029E8001D000024002757E65C46D0086AE6002B45
:1029F80000D137E75346C00867070743E508002BAF
:102A080000D1B1E580231B031D4208D05946C808F0
:102A1800184204D1D20849070A43170005007B0F62
:102A2800FF00FF085B071F439EE5C00863071843C4
:102A3800E508002953D080231B031D420AD05946BC
:102A4800CC081C4206D1012663462500D008490758
:102A580008431E40470FC000C0087F07074383E5AF
:102A68008318934292415C445242A5182A0200D529
:102A780024E76F07DB081F43ED080123D0E6C046B3
:102A8800FF070000FE070000FFFF7FFF5B46D2083C
:102A98005F0766461743DD0866E52500203BDD40F5
:102AA8006346202B05D0402361465B1A9C40204397
:102AB800804647467B1E9F412F43A0E520210027E3
:102AC800091AD2E4002F00D113E75C46170000254D
:102AD800F6E5D708490702230F432D09A0E60700AA
:102AE80042E55B4601265F07DD086346D2081743C7
:102AF8001E4039E55B46D2085F071743DD0833E51A
:102B08001E4ADB0822405707520201251F43140BB7
:102B1800C2E50E0001205FE6002B0DD04B465B1B83
:102B28009C46002D00D148E50127382B00DD66E5DD
:102B380080231B041C4350E56B1C114D2B4200D015
:102B480073E65946230011438A46034300E66707A4
:102B5800C00800230743E50862E66407FF08274327
:102B680005095DE6D208490711430F0002232D0924
:102B780056E60700A4E538008FE4C046FFFF7FFF54
:102B8800FE070000F0B5C6461E03360BB0460D4ED4
:102B98000C034D005F0000B5240B6D0D7F0DB54291
:102BA8000BD0084900208F4204D146461643300016
:102BB800431E984180BCB846F0BD04430120002C58
:102BC800F8D1EEE7FF0700000B00020070B5164DC4
:102BD8000C0382B04900002000920193240B490D98
:102BE800DE0FA94204DD1148814203DD104BF018C5
:102BF80002B070BD8020400320430E4C641A1F2C85
:102C080008DD0D4B5B1AD84003005842002EEFD167
:102C18001800EDE7094B009A9C46030061448B407D
:102C2800E2401343F1E7C046FE0300001D04000024
:102C3800FFFFFF7F3304000013040000EDFBFFFFDC
:102C480070B5002816D0C317C5185D40C40F2800FA
:102C580000F012F9104B1B1A5B055B0D0A2814DCF7
:102C680002002E00153296400B22121AD5402D0371
:102C78002D0B03E000240023002500261B052B4311
:102C8800E40723433000190070BD0B3885402D033D
:102C980000262D0BF2E7C0461E04000010B5041EE6
:102CA80010D000F0E9F80E4B1B1A5B055B0D0A28E3
:102CB8000FDC0B222100121AD14015300A03844080
:102CC800120B01E0002300221B051343200019000A
:102CD80010BD22000B38824012030024120BF3E7C8
:102CE8001E04000070B542024300C40FFE201B0EF4
:102CF800591C550A08420CD0E02189008C466D0702
:102D0800120B63441B051343E407234328001900EF
:102D180070BD002B14D1002D1BD0280000F0ACF89A
:102D28000A281CDC0B232A001B1ADA40030015337F
:102D38009D400E4B12031B1A5B05120B5B0DE1E75E
:102D4800002D09D0130B802212031A436D07084B7C
:102D5800D8E700230022D5E70022054BD2E703007D
:102D68002A000B3B9A400025E3E7C0468903000090
:102D7800FF070000F0B54B000F035B0D3A4C450F01
:102D880083B07F0A5E1C2F4300900191CA0FC500D3
:102D980026420BD035495C18FE2C13DDFF2000239A
:102DA800C0051843D207104303B0F0BD3D43002BC4
:102DB80001D10020F4E7002DF0D08023DB03FF20B1
:102DC8003B43EDE7002C0CDD009BFF009B01581EE8
:102DD8008341690F3B430B43590727D1DB08E0B216
:102DE800DEE72100173131DB80211E200904394339
:102DF800001B1F282DDD02267642341B0E00E640FC
:102E08003400202804D01A488446634499400D436E
:102E18002B00591E8B412343590703D00F2119401A
:102E280004290BD19B0100205B0AB9E70F21194047
:102E3800042904D19B015B0AE0B2B1E70024043302
:102E48005901F7D501340023E0B2A9E70020002397
:102E5800A6E7084C1C192B00A540C340A140681EDA
:102E6800854129430B43D7E7FE07000080FCFFFF9D
:102E7800A2FCFFFF82FCFFFF1C2101231B049842D8
:102E880001D3000C10391B0A984201D3000A0839F3
:102E98001B09984201D30009043902A2105C4018AA
:102EA8007047C0460403020201010101000000004E
:102EB80000000000F0B54F464646D646C0B50600AD
:102EC8000F001000190082B0002F5DDB34003D00B8
:102ED800002B0BDB16001F00AB4217D90020002186
:102EE80002B0E0BCBA46B146A846F0BD002746424B
:102EF8008F41AF42F2D800D1A0E001235B4299464E
:102F080009E0002746428F41AF42E7D8AF4200D1DF
:102F180090E0002399463900300000F0B7F8804669
:102F28002900200000F0B2F843461B1A9846203BBF
:102F380075D4310099409A460B00310040468140D3
:102F48000A00AB422ED82BD05146A41A9D41002925
:102F580000DA90E0002100200126009001915146FE
:102F68008E400196414601268E4041460096002932
:102F78001FD1009801994B46002BB1D003000C00DB
:102F880000215842A141ABE700257442BD41002B06
:102F9800B7DB16001F00AB42A0D8AF42ADD14DE061
:102FA800A142D1D900210020009001914146002979
:102FB800DFD0D90756085F080E4343460EE0AF42FC
:102FC80001D1A6420CD8A41BBD41012124196D4191
:102FD8000022013B64185541002B06D0AF42EED9C0
:102FE800013B24196D41002BF8D1009A019B5146F1
:102FF80012196B41002925DB2E002C00CE404146DA
:10300800CC40514600292DDB34008C402100444639
:10301800A6403000121A8B4100920193A9E742465C
:1030280038009A462023310090409B1AD94003006B
:103038000B4382E7A64200D950E76AE7A64200D8C8
:103048005BE74BE740462021091A28008840260004
:1030580001004046C6402C000E434146CC40514634
:103068000029D1DA4046202135008440091ACD4094
:1030780021002943CBE7414620260127761A002064
:103088000021F7400090019101976BE710B50029E6
:1030980003D1FFF7F1FE203002E00800FFF7ECFE55
:1030A80010BDC04637B503000C001500002816D027
:1030B8000078002908D00A00032105F04DF9012005
:1030C80004F0D4FB20003EBD1922424305499B89E8
:1030D800521820000449009504F050FDEFE702243F
:1030E800F0E7C046FC3203082C27030837B50B006D
:1030F800040015000220002C1FD022008D32117808
:103108001922A07842430D481218042904D802292C
:103118000BD80B49009504E00829FAD18E340949E7
:103128000094002004F02AFD03E00020064904F082
:1031380025FD012004F09AFB00203EBDFC32030867
:10314800942703085127030875270308030010B5BF
:1031580002200C00002B0FD01878002911D0FD296F
:103168000BD0FC290BD1F23C2200032105F0F4F826
:10317800012004F07BFB200010BD0924F4E70124A2
:10318800F2E7D3B2192242430349200052180349F7
:1031980004F0F4FCECE7C046FC320308C52703083A
:1031A8001FB52E2302930A4B0A490193002300936B
:1031B80001331A0008480CF0B7FE084804F018FB61
:1031C800074804F05FFC012004F050FB05B000BD87
:1031D800ED2E0308ED270308F0210020FD27030842
:1031E8009D3F0208F0B504000D0085B0012802D803
:1031F800072005B0F0BD0B0000271033854E039360
:1032080031000398FCF778FF00280ED175227A4325
:10321800814BD65C04F0E4FA00280CD13300823BE1
:10322800012B00D8E0E00020E3E7013775360B2FCB
:10323800E6D10026EEE70C2E0DD80620002ED8D0B9
:10324800701E0B2810D8FCF773FF220F3F790F0F61
:1032580098A2AF0F364D822E00D1C8E006D8432E73
:103268007BD0812E00D1B4E00620C2E7832EFBD1AB
:10327800032CBDD1280069492030FCF73DFF041E0E
:10328800D1D100F099FE200004F0BEFACBE7022C61
:10329800AED1634804F0DAFA5F4C624D23783F2BD5
:1032A80005D822006048611C113204F0CFFA753449
:1032B800AC42F3D1B7E7022C9AD15C4B5C491A783F
:1032C800002004F05BFCAEE7022C00D090E7594BDD
:1032D800186DFFF707FD02000B000020564904F0A7
:1032E8004DFCA0E7A31E022B00D981E7022C09D1CF
:1032F8004B4804F0ABFAFA21504A4900012004F087
:10330800C7FB76E7280020300CF0DFF80600042C15
:103318000ED1280030300CF0D8F802000C3203002F
:103328001A20182A00D964E7E12212015343F6183B
:10333800300004F06BF90028DAD05AE7022C00D0EC
:1033480056E73F49002004F019FC04F0C5FC64204E
:1033580005F000FF06F040FC65E7022C00D047E7C7
:103368003849002004F00AFC04F0B6FC642005F09B
:10337800F1FE354802F0ECFC55E7022C00D037E7A7
:103388002C4A32490CCA002004F0F8FB4BE7022C07
:1033980000D02DE7274A2E49136900200093D368EF
:1033A800926804F0EBFB3EE7022C00D020E7214BAB
:1033B800284AD8699C69002801DA274980E7030C64
:1033C800240C80B2009025490194002004F0D6FB1B
:1033D80029E7022C00D00BE72149002004F0CEFB9E
:1033E800002004F0F5F91EE7822E00D040E7032CF8
:1033F80000D0FDE6280009492030FCF77DFE041EB8
:1034080000D010E7012004F0E3F92000154904F08A
:10341800B5FB08E7C6070020C50700205C2803089D
:1034280004280308CC0C00200828030811220020D7
:1034380012280308D02100201C280308F976020866
:1034480037280308452803080000FF1F63280308DE
:1034580087280308F0210020AD280308B7280308AF
:10346800EF280308D8280308F0B505008FB02C48CA
:1034780004F0ECF92B4804F0E9F92B4804F0E6F9DC
:103488002A4804F0E3F96E1C032D01D9042600250F
:1034980068236B43264C1C1939E063780135022BED
:1034A80039D9631CDB7F2349032B06D02249042B1F
:1034B80003D02249012B00D021490CA80DF00AF8AD
:1034C800A06CFFF70FFC0A900B91206CFFF70AFC29
:1034D80008900991606CFFF705FC06900791E06B76
:1034E800FFF700FC04900591A06BFFF7FBFB02902F
:1034F8000391606BFFF7F6FB2200124F00900191D9
:103508000CAB29003800153204F0A0F96834B54234
:10351800C3DB0FB0F0BD29000B4804F097F9F5E7BD
:1035280004280308072903084B2903088F290308DF
:10353800AC1E0020D9290308D3290308DF29030872
:10354800E5290308EB2903082A2A030870B50400B3
:1035580086B01F4804F07AF91E4804F077F91E482F
:1035680004F074F9661C032C01D90426002468258C
:1035780065431A4BED1822E06B780134022B22D9EF
:103588006B1CDB7F1649032B06D01649042B03D08E
:103598001549012B00D0154904A80CF09BFF2A00FF
:1035A8002B8D210003936B8D11480293AB8D15323F
:1035B8000193EB8D009304AB04F048F96835B442ED
:1035C800DADB06B070BD21000A4804F03FF9F5E7E0
:1035D80004280308702A03089C2A0308AC1E00204C
:1035E800D9290308D3290308DF290308E529030893
:1035F800C82A0308EF2A030810B50C000BF065FF72
:10360800C0B2002801D1172010BD0138C0B2207007
:103618000328F8D80020F7E773B5150019220F4CD6
:103628000F4B4443E418A3780E005A430D4B002077
:10363800D2180D4904F0A2FA0C4B002D0BD02A88A1
:1036480000942000310005F081FA041E01D104F035
:10365800DBF8200076BD2A000094F2E7A4040000FD
:1036680044130020FC3203081D2B0308F530020820
:1036780010B50C000BF029FFC0B2002801D11720AB
:1036880010BD0138C0B220700228F8D80020F7E732
:10369800F0B505000C00072087B0012D1DD90B00DF
:1036A800002710336D4E039331000398FCF724FD77
:1036B80000280DD175237B43694E06309B5D013B85
:1036C800042B0AD81800FCF733FD0A20567DA50004
:1036D80001377536052FE7D1062007B0F0BD072062
:1036E800022DFAD15F4804F0B1F85F4BF418337833
:1036F8003F2B05D832005D48711C113204F0A6F842
:103708007536A642F3D10020E7E70720042DE4D15F
:1037180020000B3502ABED1829002030FFF7A8FF79
:103728000028DAD1200030300BF0CFFEC1B20600FD
:103738002C78012904D9093408220321E0B20DE0CC
:103748004B4D4C4B6543ED18280005F02BF900282C
:1037580007D00934E4B202000321200004F0FCFD84
:10376800D1E71922A978F3B24A4343495218434989
:1037780004F004FAC7E70720042DAED120000B356A
:1037880002ABED1829002030FFF772FF0028A4D102
:10379800200030300BF099FEC1B206002C780129C8
:1037A800C9D8334D334B6543ED18280005F012F99D
:1037B8000028CED11922A978F3B24A432E495218CB
:1037C8002F49D5E70720032D00D086E720000C35C8
:1037D80002ABED1829002030FFF74AFF002800D07F
:1037E8007BE72A78224B234C53431922254DE418B2
:1037F8006519254B2D78A178E3181B780195234D81
:103808004A4364191C49247852180094204904F04A
:10381800B5F978E70720042D00D05EE720000A35C7
:1038280002ABED1829002030FFF722FF002800D056
:1038380053E70F26200002ABF6183100303005F0B0
:10384800A1FA002800D048E72B7802003178180048
:10385800FFF7E2FE002800D155E73EE734030020D9
:10386800330300200428030849020000082803083D
:10387800A404000044130020FC320308362B03087C
:10388800462B0308950400009404000096040000E9
:103898005E2B0308F0B505008BB03B4803F0D6FF5C
:1038A8003A4803F0D3FF3A4803F0D0FF394803F011
:1038B800CDFF032D0FD86B1C0493602405F044FC46
:1038C8006C43354B0590E6182034E418049B9D4260
:1038D80005DB0BB0F0BD042300250493EDE7B368C6
:1038E800002B47D02D4908A80CF0F4FD0527637F6D
:1038F8002B4A7B439B181922317801354A432949C1
:1039080029485218217A039108A90291A17E0191B0
:10391800A17F7943254FC9190091290003F096FF2B
:10392800B368002B03D05B782148002B29D007AF60
:103938003900300003F06DFABB787A7839781D4881
:1039480003F084FF7368002B1AD00021237A8B427E
:103958000AD1059B18481949C01A6368C01823681A
:10396800C018FCF703FC0100154803F06FFF603630
:103978006034ABE7627E134908A80CF0D5FAB5E7C6
:10398800114803F063FFF2E7042803088B2B0308B0
:10399800DC2B03082D2C03084C2000207E2C030868
:1039A800ED320308FC320308882C0308CF320308E1
:1039B800B72C0308D62C03083075000060EA000015
:1039C800F22C0308822C0308CC2C0308F0B50C0059
:1039D8000500072189B0022800D8D0E0230000277D
:1039E8002033B94E039331000398FCF785FB002878
:1039F80014D175237B43B54E995D481E0B2811D809
:103A0800FCF7AAFB1200100029001000100080002B
:103A180095001000D2002601100084010137753688
:103A2800072FE0D10621AAE00721032D00D0A6E048
:103A3800A74803F00BFFA74BF41833783F2B05D8A2
:103A48003200A548711C113203F000FF7536B442EC
:103A5800F3D1002193E00721052D00D08FE00E2639
:103A6800200004ABF61831003030FFF7C5FD011E09
:103A780000D084E020690378302B2CD120224378B1
:103A88009343582B27D10230103A0CF0ADFB347811
:103A9800602619236643914FC5B2F25D00205A4350
:103AA8008F4B90490393D2182B0004F067F8F01954
:103AB800012C1ED80F2304AA9B181A00290003F012
:103AC800B8F900280AD00134E4B20200032120002A
:103AD80004F042FCBDE70BF0F8FCD8E71921F25DD1
:103AE80004AB4A430399DB7B52187F4904F046F83C
:103AF800AFE729007D4A03F06EFA0028E3D103F00E
:103B080083FEA6E7EB1E0721012B38D8FF20042DE2
:103B18000AD1200004AB0B35ED1829003030FFF72F
:103B28006BFD011E2BD12878FFF7B4FE91E72B1F00
:103B3800012B24D80F26200004ABF61831003030B2
:103B4800FFF75AFD011E1AD1052D1BD12000403068
:103B58000BF0BBFCC4B20821012C10D833785B35BC
:103B68005D435E4B0639ED18280003F0E3F8011EAB
:103B780005D12100280003F07FF8011E07D00800B6
:103B880009B0F0BD602332785343594A9C5C6022E7
:103B98003178524B4A43D35C19225A43504B002088
:103BA800D21854492300A1E72B1F0721022BE6D87E
:103BB8000E26200004ABF61831003030FFF71CFD4C
:103BC800011EDCD1337860265E430593434B039393
:103BD800F618042D35D0200040300BF076FC0F2766
:103BE800C3B2049304ABFF18049B022130003B705E
:103BF80003F0A0F8011EC2D1062D04D120005030D8
:103C08000BF063FC387030003A78049903F093F9AC
:103C1800011EB4D16022059B03995A43039B895C1A
:103C28009B1819220F204A4304AC00192C4900782C
:103C380039331B78521800902F49002003F09EFF5B
:103C480007E70F2104AB3000C91803F060F9DFE77C
:103C58000721042D00D092E7200030300BF035FC0E
:103C6800264BC2B243331D48002A19D0033D290010
:103C78001D7003F05FF8021E03D00321280004F032
:103C88006BFB01211E4803F055F8021E03D00321E7
:103C9800022004F061FB1B49002003F06FFFD8E607
:103CA800040001251A700021200003F043F8021EC9
:103CB80003D00321E8B204F04FFB01356034052D31
:103CC800F1D11149E8E7C0460100002000000020BA
:103CD8000428030833030000082803084C200020A8
:103CE800FC320308FA2C0308C527030855310208DB
:103CF800862000201A2D0308332D0308D021002028
:103D0800AC2000205B2D03086F2D0308EB1E072154
:103D1800012B00D933E7042D1BD1200030300BF0E4
:103D2800D4FB0F4B020001380821984200D926E73E
:103D38000C4B0D49180051430830C16718005962EF
:103D4800E430FC33016099640849002003F016FF51
:103D58007FE6044B0449586AFCF708FA0200F3E7C7
:103D68000F2700004C20002060EA0000822D030885
:103D7800F0B50C000500072185B0012832D92300D1
:103D8800002710334F4E019331000198FCF7B4F926
:103D980000280CD175237B434B4E985D01380628CB
:103DA80009D8FCF7C5F90A082261750889000137A6
:103DB8007536052FE8D1062114E00721022D11D10F
:103DC800424803F043FD424BF41833783F2B05D8A3
:103DD80032004048711C113203F038FD7536B44288
:103DE800F3D10021080005B0F0BD0721042DF9D159
:103DF800200002AB5D1829002030FFF7FDFB011EF3
:103E0800F0D1200030300378302B27D12300202236
:103E180031331B789343582B20D10230103A0CF0E1
:103E2800E3F92C786825192265432B4F2B49EB5D64
:103E380086B25A432A4B0020D21803F09FFE310065
:103E4800284AE81900F034FD00280AD00534E4B205
:103E580002000321200004F07FFAC2E70BF035FBD3
:103E6800DFE703F0D1FCBCE7AB1E0721012BB9D873
:103E7800FF20032D09D1200002AB5D182900203056
:103E8800FFF7BAFB011EADD12878FFF7EDFAA8E7D6
:103E9800AB1E0721012BA5D8FF20032D09D1200037
:103EA80002AB5D1829002030FFF7A6FB011E99D14F
:103EB8002878FFF74BFB94E721002800FFF786FDE1
:103EC80001008FE77D0500207C05002004280308F9
:103ED8004902000008280308AC1E0020A82D03088A
:103EE800FC320308AD300208F7B504000D000028C5
:103EF80001D10020FEBD0027214E0196280001991E
:103F0800FCF7FAF800280ED175227A431D4BD75CCE
:103F180003F066FC00280ED1022FEAD12900200008
:103F2800FFF760F9E6E7019B013775330193042F2A
:103F3800E4D10027ECE7781E04281FD8FCF7EEF838
:103F480003EE141E19000720012CD3D10E4803F0EC
:103F58007DFC0E4C320031000D481032753603F0EE
:103F680075FCB442F6D1C4E729002000FFF700FF32
:103F7800C0E729002000FFF78BFBBBE70620B9E765
:103F8800CD0C0020CC0C002004280308A10E002032
:103F98000828030810B5074B1B78002B07D1FFF73B
:103FA800A3FF03210200132004F0D6F910BD00F08E
:103FB800A3FBFBE73022002070B50C220021164835
:103FC8000CF05CF903F028FC431E9841134B144C89
:103FD800187003F005FC051E1BD1012003F0F8FB47
:103FE80023000021623302201D7003F037FE2200F7
:103FF8000123633260340B481370237003F026FCEE
:1040080009490A4803F022FC09490A4803F01EFC42
:1040180070BD0125E4E7C04630220020312200208F
:10402800D02100200528030809350308C12D0308FD
:1040380048350308D52D030810B5002808D1054CCC
:104048002378242B04D1044803F000FC05232370B3
:1040580010BDC04630220020E92D0308F0B587B016
:1040680005F072F8AD4A05001378AD4C242B2CD816
:10407800002B01D107B0F0BD581E2328FAD8FCF751
:1040880061F86D008300A700C900E5003F01F40056
:104098003F01E4012E028802F9FFF9FFF9FFF9FF59
:1040A800F9FFF9FFF9FFF9FFF9FFF9FFF9FFF9FF48
:1040B800F9FFF9FFF9FFF9FFF9FFF9FFF9FFF9FF38
:1040C800F9FFF9FFF9FFF9FFD5004A2B1DD8342B6A
:1040D800D0D9353B1800152BCCD8FCF733F8D100D4
:1040E8006B01D1006B01D4010B026202CBFFCBFF45
:1040F800CBFFCBFFCBFFCBFFCBFFCBFFCBFFA80288
:10410800CBFFA802CBFFCBFFA802FF2BB2D1002325
:1041180084498548137003F099FB8449844803F067
:1041280095FB230063331B788248002B00D082481C
:1041380003F08CFB230064331978804802F032FEC8
:104148002300653319787E4802F02CFE2300613382
:104158001878002800D074E2010074E279497A489E
:1041680003F074FBE369002B0ADA724803F06EFB74
:104178002300002263331A7002236034237079E726
:104188006D4803F063FBF7E77049714803F05EFB85
:10419800230041331B78002B12D0230042331B78B5
:1041A800002B0DD0654B1A7C082A09D170331B7877
:1041B800082B05D1604803F049FB03236034DDE791
:1041C8005C4803F043FB2300002263331A70F4E7D2
:1041D8006049614803F03AFB002524273E006E43FE
:1041E8005E4BFA22F61800230093F5330121FF33C2
:1041F8009200300001F00CF901350121300001F086
:10420800E9F8082DEAD15649564803F06BFC6034AA
:104218001323B3E75449554803F018FB544955484C
:1042280003F088FC6034A5602423A7E7A36E524AF4
:104238009B18AB4200D91DE7504803F007FB230049
:10424800002263331A706034052397E723000122A4
:104258005C334B494B481A7003F0F8FA4A49344822
:1042680003F068FC6034152388E74549474803F0A4
:10427800EDFA47492E4803F05DFC603417237DE7CB
:10428800444B454EDB7F012B2BD1FE21706B8905FA
:10429800FCF732F9002824D1330088331B78012B2E
:1042A8001FD13700FE219C3738688905FCF724F9AF
:1042B800002816D1394803F0C9FA3949706BFCF760
:1042C8002FF96034002806D135493868FCF728F9F9
:1042D800002800D1A6E00F2322781A403133134377
:1042E8004CE7A36E2F4A9B18AB4200D9C2E623487D
:1042F80003F0ACFA0F2260342378134002333DE711
:1043080029492A48062B00D0294803F013FC0F231B
:10431800A566603422781A402133E0E73022002075
:10432800D021002048350308D52D03087739030824
:104338005E2E03084B2E0308ED2D03084C200020A9
:10434800AC200020C6350308F22D03080536030803
:10435800002E0308443603080E2E0308FC11002023
:10436800833603081C2E0308C2360308272E0308C9
:1043780001370308352E030810270000472E0308CD
:1043880040370308502E03087F3703086C2E0308B4
:10439800FD370308AD1E0020AC1E0020E92D0308E0
:1043A8000000484288130000BE3703087A2E03082D
:1043B8008C2E0308AB4BAC4EDB7F012B37D1182773
:1043C800AA4B0493AA4B1B783B40102B2FD1B36CFC
:1043D800A849181C0393FCF78FF8002827D133004D
:1043E80088331B78012B22D1049B89331B783B40EF
:1043F800102B1CD1B03636689E49301CFCF77CF86F
:10440800002814D19C490398FCF78AF8002814D096
:104418009949301CFCF784F800280ED0974803F01F
:1044280015FA60340F22237813400133A6E6A36EF1
:10443800934A9B18AB4200D91CE6924803F006FA4F
:104448002300002263331A70EBE78F498F4803F08B
:1044580071FB864E8E49300002F097FC0121300036
:1044680002F0A0FC8B4E8C49300002F08EFC01213A
:10447800300002F097FC230001225B331A70A56616
:10448800392360347AE6784E8449B06CFCF748F8F2
:10449800071E1DD1B03630688049FCF741F801226B
:1044A800061E04D1754803F0D1F932000137A16E18
:1044B800734BC918A9420ED8002A06D0714803F0D8
:1044C800C5F92300002263331A700A23603455E6C5
:1044D80000270122EBE7002F00D1CBE5F5E7704973
:1044E800704803F0B3F97049704803F023FB603457
:1044F8001A2343E618275D4B04936D4B1B783B400A
:10450800102B36D1584B03936A4B1B78012B30D1B3
:10451800FE21039E8905FC36B068FBF7EDFF0028F5
:1045280027D14A23049AFF33D35C3B40102B20D178
:10453800039A4933FF33D35C012B1AD1FE21306F24
:104548008905FBF7D9FF002813D14C4803F07EF901
:104558005949B068FBF7E4FF6034002807D1564991
:10456800306FFBF7DDFF0B23002800D106E64A2356
:1045780004E6A36E514A9B18AB4200D97AE541483C
:1045880003F064F92300002263331A70FF236034B8
:10459800F4E54B494B4803F0CDFA6034A5603B2362
:1045A800ECE51826314B00270493414B1B78334028
:1045B800102B2BD12C4B2F490593434BDB69181C2F
:1045C8000393FBF799FFB84220D14A23049AFF339B
:1045D800D35C3340102B19D1059A7133FF33D65869
:1045E8002449301CFBF788FFB8420FD122490398B1
:1045F800FBF796FFB84212D01F49301CFBF790FF1B
:10460800B8420CD01D4803F021F90137A36E2B4A9C
:104618009B18AB42B3D9002F00D12BE5B6E7194858
:1046280003F014F92300002263331A70A7E727491F
:10463800274803F07FFA0F23603422781A40413369
:104648004DE600210120623403F008FB20780028A1
:1046580001D103F0BDF81F4803F0F8F8012003F07A
:1046680005F907E5AD1E0020AC1E00204C200020F7
:104678007520002000008C420080A244E92D030828
:1046880088130000472E03087B3803089E2E030872
:1046980034220020AC200020352200200000C8C2AF
:1046A800BA380308B02E0308F93803085E2E030849
:1046B800352100209C1F002000004842204E0000A9
:1046C80038390308BE2E0308A81F00203C38030809
:1046D800D02E03080528030870B5002424252800D7
:1046E8006043044B0021C018013400F073FE082C0D
:1046F800F5D170BDFC11002070B500200D0003F04D
:1047080083F8374B374C1B78242B12D00DD8180060
:104718001338C2B2072A00D970BD0728FCD8FBF7A6
:10472800FDFC21FB16FB16FBFB163B2B06D8342B96
:10473800F2D92B78712BEFD12B4830E01A00553A7B
:10474800D2B2052AE8D82521D140C907E4D52A786C
:10475800712A2DD1623A9343502B1FD1234803F07D
:1047680075F81BE02900224803F070F8FFF7B4FF42
:104778002B78792B06D11F4803F068F8042360349E
:104788002370C9E76E2B07D11B4803F05FF823009D
:10479800002263331A70F1E7712BEFD1174803F049
:1047A80055F82300002263331A706034FF23E7E7CB
:1047B80004F0CAFC6034A06023780F2219009143EA
:1047C800102907D11340213213430D48237003F0F9
:1047D800B1F9A1E750299FD113400133D0E7C04672
:1047E80030220020D0210020EE2E0308E92E0308F5
:1047F800E22E0308ED2D03084B2E0308F22E0308C2
:10480800422E030803000220002B02D00020D97397
:104818001A827047F7B5099E04000F0015000220A0
:104828000193002C0AD0002A09D01630002E05D199
:104838001638002B02D0089B002B2AD1FEBD182069
:10484800002EFBD00B382029F8D868220021200040
:104858000BF014FD002D06D0089B65606B60019B72
:10486800EB6001232B70002E0DD10123002563700E
:104878002770A57404F068FC0A232278A0655343C6
:104888002800E365DAE733780320A660012BECD033
:10489800D4E70D202029D1D83100102228000BF0B0
:1048A800EDFC80223100089852000BF0E7FCCCE7C1
:1048B800030010B50220002B0AD0002A08D05C782B
:1048C8000130022C04D902389873002099815A6665
:1048D80010BD0000F8B505000F0016001C000220EE
:1048E800002D27D0002B25D06B780130022B21D941
:1048F8006D6A0021281CFBF713FE002800D11D4D0E
:10490800781E042831D8FBF713FC03090D162B0079
:1049180030B2FCF7B1F9EE21890507E03000FCF769
:10492800FBF9F8E73000FCF7F7F91349FCF74AF808
:1049380020600020F8BD30B2FEF782F90F4A104B14
:10494800FDF730FA0600281C0F00FEF7CBF902002D
:104958000B0030003900FCF7EBFDFEF70BFAE7E738
:1049680030B2FCF789F9E621D6E73000FCF7D4F934
:10497800DEE7C0460AD7A33C0000B4402D431CEB39
:10498800E236BA3E70B5022304000D00002810D0AC
:1049980002780133002A0CD0C06807F081FE042396
:1049A800002806D1E068456008F042FE431E9841A1
:1049B8008300180070BD000070B505000C000220CF
:1049C800002D15D02B780130002B11D02A680A4B06
:1049D800110019401A4207D0002C0ADD0120013CC1
:1049E80004F0B8FB24B2F1E70920002C00DD080030
:1049F80070BD0920FCE7C04600FFFF0073B5050045
:104A08000224002825D0FA214900FFF7D5FF040029
:104A180009281CD100236B70AB70962128008901EE
:104A2800FFF7B0FF041E14D16B46991DF0230B70DD
:104A380005330122E868FF3308F09FFC00280AD0FC
:104A48000424E12128004902FFF79CFF01E0002827
:104A5800E3D0200076BD6B46DE1DFA23012231002B
:104A6800E8685B0008F0FAFC041EE9D13378F02B03
:104A7800E7D10A34E5E7F0B585B004001D0002204F
:104A880002910392002C30D023780130002B2CD0D7
:104A98000230102D29D80338002926D0FA21200009
:104AA8004900FFF789FF00281FD187B2FA0093B2A7
:104AB8000193A8421BDB01261A006168E068667052
:104AC80007F00EFE03000420002B0ED11800039BF4
:104AD800002B0AD06168E068A6702572EA00803170
:104AE80008F074FE431E9841800005B0F0BD002117
:104AF800019B01225B189BB21E0063689C46029BC7
:104B08001B5C0B41134062465B42013193550829F7
:104B1800EED1013738B2C8E730B5050014000220DD
:104B280085B0002D21D02B780130002B1DD08B189B
:104B3800802209309200934217DA07380C2C14D8D7
:104B48006A460B4B51801380FF210C2201A80BF001
:104B580095FB2800FFF752FF002806D104340122F4
:104B680069462800E3B2FFF786FF05B030BDC046AE
:104B7800CC69000037B504000220002C09D0637806
:104B88000130022B05D96068002803D00222FFF704
:104B9800C3FF3EBDA5681820002DFAD0FF230A00E8
:104BA800E37301212800024B009403F0CFFFF0E7E4
:104BB8000D480208F7B5FA2149000400FFF7FCFE8A
:104BC800051E09D166680100227A30000BF056FBF9
:104BD8002B00227A934201DB2800FEBD98B2C10067
:104BE80080318AB20192002201998F1861683FB220
:104BF800CF5DFF2F04D101219140F75C0F43F7549B
:104C08000132082AF0D1013003B2E2E7F8B5050015
:104C18000E000224002814D043780134022B10D946
:104C28004768002F1BD03A681A4B1A420BD004F081
:104C38008BFA2B6EC01AFA235B001C24984200D909
:104C480009242000F8BD3800FFF7B4FF041EF8D18E
:104C580079680222300004310BF04FFCF1E78368D9
:104C68001824002BEDD0C47B002C02D1038A0B80C2
:104C7800E7E7FF2C06D104F067FA2B6EC01AFA2377
:104C8800DB00DAE7FD2CDBD0FC2C01D1F23CD8E7C5
:104C98000124D6E700FFFF0073230200F0B5411896
:104CA800012700209C468A4212D0082415782B0040
:104CB800664643403B405B42B3434008013C584092
:104CC800E4B2C0B26D08002CF1D115700132EAE7E8
:104CD800F0BD7FB505000E000224002825D003781A
:104CE8000134002B21D0332301AC23706B460822FA
:104CF800FF21581D0BF0C2FA2100092301222800C8
:104D0800FFF7B9FE041E10D12800FFF753FF041E59
:104D18000BD16D68002E04D008223000691C0BF0FE
:104D2800ECFB6B78262B03D00B24200004B070BD5D
:104D38000721681CFFF7B0FF2B7A8342F5D0F3E711
:104D480070B504000220002C16D00123656863703A
:104D5800002D12D02800FFF751FE00280CD10223A5
:104D6800010063702800FFF7B4FF002804D1012375
:104D78001F2023750233637070BDA3681820002BB1
:104D8800FAD05B78002BF2D10E38F5E7F0B50400C5
:104D9800022585B0002800D1E3E0837C012B0AD9E5
:104DA8004278AA4212D800210123817443703C2220
:104DB80014300BF063FAA37B002B0AD06378032B23
:104DC80001D10533A3740023A37302E05BB2002B67
:104DD800F1DAA67C2D2E3CD8002E08D104F0B4F9C7
:104DE800A36DC01AE36D984200D2AFE0BBE2701E1B
:104DF8002C28F3D8FBF7A6F97600AC01CF01F20115
:104E0800240247026D029402F2FFF2FFF2FFF2FF62
:104E1800F2FFF2FFF2FFC100EA00EA00EA00EA004E
:104E2800EA0052016C01F2FFF2FFF2FFF2FFF2FF1B
:104E3800F2FFF2FFF2FFF2FFF2FFF2FFF2FFF2FFE2
:104E4800F2FFF2FFF2FFF2FFF2FF410141014101DF
:104E58004101972E1DD8812EC0D9300082381528DF
:104E6800BCD8FBF76FF97E01A101CF01F601190249
:104E78003F026602BBFFBBFFBBFFBBFFBBFFBBFF25
:104E8800BBFF9400C400C400C400C400C4002401D3
:104E98003F0137005637FFB2032F9FD86B462000DB
:104EA800991CFFF7B3FE05001C284FD000282BD112
:104EB8006B4628375B887F003B53A37CAC2B00D81C
:104EC800B0E02000A36A2830002B00D0DAE0E36AC3
:104ED800002B00D0D6E02100082250310BF00DFB4A
:104EE80016230BE06378032B2AD16068002807D1CA
:104EF80023004C331A78002A1ED10223A37425E01C
:104F0800FFF77CFD051EF3D02B00093B5A1E934189
:104F1800C72200265B429343B54AA6749B18E365F3
:104F280004F012F90123A06520003C2231006370CF
:104F380014300BF0A3F914E000221A702A23DDE7DD
:104F4800042B05D10C33A3740D3B6370002508E0D6
:104F58002000FFF7F5FE63780500032B04D10D331D
:104F6800A374280005B0F0BD0023A374FA23DB0066
:104F7800E36504F0E9F8A065E8E7D0212000FF31F7
:104F8800FFF7F8FD9023051EBED1A3742BE06B46F6
:104F98009E1C31002000FFF739FE010005001C2887
:104FA800D4D00028B0D12000328801ABFFF792FCA2
:104FB800051EA9D10198FDF795FE8E4B8E4AFCF788
:104FC800F1FEFDF7D7FE1123606297E73100113932
:104FD800C9B2EC312000FF31FFF7CCFD051E00D02F
:104FE80092E7803EA67404F0AFF82066AEE76B4601
:104FF8002000991CFFF70AFE070005001C28A5D011
:10500800002800D080E7300025006B4602226F3070
:10501800C0B215354000991828180BF06EFAA37C19
:10502800942B02D87F3EA67490E701AE39000B227C
:1050380030000BF023F921002B0020311A78002AC8
:1050480001D0F255013701338B42F7D10B223100E1
:1050580028000BF052FA29006848FBF74DF80123A5
:10506800002807D029006648FBF746F803005A1EB7
:1050780093410133621CD37760E731002A39C9B202
:10508800BD31A7E70300198D1A88914200D077E156
:105098000135EDB20233042DF5D121E7F5212000C9
:1050A800FFF768FD9623051E00D02DE76DE76B46D8
:1050B8009E1C31002000FFF7A9FD05001C2800D127
:1050C80044E7002800D01FE733882386172315E715
:1050D800D42120004900FFF74DFD9723051E00D07D
:1050E80012E752E76B469E1C31002000FFF78EFD49
:1050F80005001C2800D129E7002800D004E7631C1C
:10510800DA7F022A00D121E73188618609B20029B5
:1051180008DA042A00D1F0E60422DA7702232535DA
:10512800A3741EE7C020218E0140BE38C02907D1D4
:10513800012A00D1E1E601222625DA77A07410E7DA
:10514800032A00D1D9E603222425DA77A07408E7D8
:1051580006212000FFF70EFD8223051E00D0D3E6AE
:1051680013E76B469E1C31002000FFF74FFD05003A
:105178001C2800D1EAE6002800D0C5E6022120005C
:10518800328801ABFFF7A6FB051E00D0BCE6019BE9
:1051980063630323B2E607212000FFF7EBFC8323B8
:1051A800051E00D0B0E6F0E66B469E1C31002000DC
:1051B800FFF72CFD05001C2800D1C7E6002800D009
:1051C800A2E602212000328801ABFFF783FB051E0F
:1051D80000D099E6019BA36304238FE617212000E2
:1051E800FFF7C8FC8423051E00D08DE6CDE6C04637
:1051F80098080000B5F8E43EF168E388B63903087A
:10520800C13903086B469E1C31002000FFF7FEFCE5
:10521800010005001C2800D198E6002800D073E69C
:105228002000328801ABFFF755FB051E00D06BE666
:10523800FA2101988905FBF7C5FB0523E0635DE6C4
:105248001B212000FFF796FC8523051E00D05BE696
:105258009BE66B469E1C31002000FFF7D7FC05003B
:105268001C2800D172E6002800D04DE6012120005C
:10527800328801ABFFF72EFB051E00D044E6019BE8
:10528800236406233AE611212000FFF773FC8623E6
:10529800051E00D038E678E66B469E1C31002000DB
:1052A800FFF7B4FC05001C2800D14FE6002800D009
:1052B8002AE603212000328801ABFFF70BFB051E0D
:1052C80000D021E634490198FBF7AEF90723606462
:1052D80014E61C212000FFF74DFC8723051E00D093
:1052E80012E652E66B469E1C31002000FFF78EFC4A
:1052F80005001C2800D129E6002800D004E63288E1
:105308000421200001ABFFF7E5FA0600051E00D0D6
:10531800FAE522490198FBF755FBA674A06425E637
:105328002000A189FFF726FC051E00D0ECE58823A4
:105338002BE66B469E1C31002000FFF767FC05003A
:1053480007001C2800D101E6636E002809D0002B55
:1053580000D1D9E5010000222000984700236366A8
:10536800D2E5002B01D10123C8E5010032882000D5
:1053780098470123051E6766A37400D1E6E5C3E5D7
:105388002100082250310BF0B8F804236370033B66
:105398002725A374E5E5C0460000704200007A4462
:1053A80070B504000D0016000220002C11D0002951
:1053B8000FD023220021601C0AF060FF0123237014
:1053C800FA2300209B006360F53BFF3BE5612684E0
:1053D800A36070BD10B504000220002C17D02378FC
:1053E8000130002B13D000230A0023616361531E90
:1053F8009A416378D2B22276002B01D0002905D1D8
:10540800218CE06904F0A6FE237E6376002010BD9F
:10541800F8B5040006A805780220002C10D02678DC
:105428000130002E0CD01700104E0A3F002908D07A
:105438001530B74204D8092B02D901219A4209D262
:10544800F8BDB74201D9FA229200092B01D99A4234
:1054580000D25308A3606B1E9D4161702000217E1D
:1054680062602573FFF7B6FFEAE7C04656EA000018
:1054780070B504000D0016000220002C0DD0237812
:105488000130002B09D00530002A06D00B005A1E27
:105498009341227E9A4201D1002070BD002906D096
:1054A80003F052FE0023801920616361F4E703F0E2
:1054B8004BFE801960612561EEE770B5040002209B
:1054C800002C24D023780130002B20D02369002B16
:1054D80012D16369002B0AD003F036FE6369834258
:1054E80005D200212000FFF775FF00280FD1237E89
:1054F800002B0DD100200AE003F026FE2369834229
:10550800E7D201212000FFF765FF0028E1D070BD38
:105518006378002BEED003F017FE237BA668657E28
:105528006168002B0CD0FAF7A7FEB1420CD9002D08
:10553800E0D10122218CE06904F00CFE01230BE08C
:10554800FAF79AFEB142F2D9002DD3D00022218C6D
:10555800E06904F0FFFD00236376CBE7434258413E
:1055680010B5C2B20421024804F0F4FD10BDC046D3
:1055780000040050434258418021C2B2A02010B517
:105588004900C00504F0E6FD10BD0000431E984127
:1055980010B5C2B20221024804F0DCFD10BDC046BD
:1055A800000C0050431E9841802110B5C2B2C901B9
:1055B800014804F0CFFD10BD000800504342584197
:1055C800802110B5C2B20901014804F0C3FD10BD25
:1055D8000004005043425841802110B5C2B2C901AD
:1055E800014804F0B7FD10BD00040050431E984167
:1055F80010B5C2B20821024804F0ACFD10BDC04687
:10560800000C0050431E9841802110B5C2B2090217
:10561800014804F09FFD10BD00040050431E98414E
:1056280010B5C2B20821024804F094FD10BDC0466E
:1056380000040050431E9841802110B5C2B2890071
:10564800014804F087FD10BD0004005010B520216A
:10565800034804F079FD43425841C0B210BDC0462A
:10566800000C005010B50121034804F06DFD4342C1
:105678005841C0B210BDC046000C0050F0B589B00A
:10568800039005910792002800D139E1D34B1C788B
:10569800002C00D034E10378013BDBB2032B00D9A6
:1056A8002EE1CF4AD25C0492CE4AD55C03003E3349
:1056B8001B78022B1FD124267543CB4F2300ED19ED
:1056C8002200210028000094FFF7A2FE21002800F4
:1056D800FFF780FE049BFA225E43FA23F6190121A4
:1056E800300000945B009200FFF792FE0121300029
:1056F800FFF770FEEFE0039AD2681178002900D115
:10570800BFE0043B012B00D9BBE0177BBB1E022B7B
:105718001AD824267543B44F2100ED19230022001E
:1057280028000094FFF774FE01212800FFF752FEBD
:10573800049B5E43F61921002300220030000094E8
:10574800FFF766FE2100D2E7012F0CD0242675430F
:10575800A54F2100ED192300220028000094FFF72F
:1057680057FE2100E1E7039B28331B78002B15D057
:105778002426FA2275439C4B3900ED1806939200B3
:10578800C82328000094FFF743FE39002800FFF7DC
:1057980021FE049B5E43069BF618CCE7039B3D3332
:1057A8001B78012B43D12424049B8F4E5C43039B1D
:1057B800A4199A6B8D4B110019401A4224D000236A
:1057C800FA2201210093D20064332000FFF720FE63
:1057D80020000121FFF7FEFD039B3A331C78002CC3
:1057E80016D0059B1C7824235D437F4BED18002CB5
:1057F80000D0C1E021002300220028000094FFF718
:1058080007FE2100280073E70B000A000091DCE77F
:1058180024235D43751921002800FFF7DBFD2300D1
:105828002200210028000094FFF7F2FD53E0039BBB
:105838003A331C78002C0FD124266E436A4B210082
:10584800F6183000FFF7C6FD2300220021003000C3
:105858000094FFF7DDFD0027059B1C78002C51D133
:105868002426049B21005E435F4B2200F61830007B
:1058780023000094FFF7CCFD21003000FFF7AAFDBC
:105888005BE00126039B3D331B78B34212D12424ED
:105898000027FA22049B31005C43534BD200E418E2
:1058A8002000534B0097FFF7B3FD31002000FFF7AE
:1058B80091FD3E0024246C434B4B0021E41820004A
:1058C800FFF788FD002120000B000A000091FFF778
:1058D8009FFD002EBFD1079B002B11D0039A05987E
:1058E800117819228078059B4A431B780190059806
:1058F80040494078521800903F49002002F03EF994
:1059080009B0F0BD18231C40102C02D013D8002C6D
:1059180017D02424049BFA225C43334B0121E4185A
:1059280000230093F533FF3392002000FFF770FD4A
:1059380001212000A2E7182C14D0002F00D050E736
:10594800C9E72426049B21005E43274BF618300044
:10595800FFF740FD23002200210030000094FFF7EC
:1059680057FDEAE724240021049B0A005C431E4BF0
:105978000091E4180B00D8E70423210019401C42C9
:1059880007D10B000A0000912800FFF741FD012113
:1059980038E7059B5878302301001940184201D098
:1059A8000021EEE7082304001C401842E9D1072330
:1059B8001840032822D00538012800D92BE72300F6
:1059C8002200210000942800FFF722FDFA2201217D
:1059D8002800D200FFF74CFD7DE7C04614220020C6
:1059E800D0390308CC390308FC11002000FFFF0060
:1059F800D6060000D4390308F72E0308FA23FA2242
:105A0800012100945B009200DDE7C0460F4B02685D
:105A180010B504009A4202D10D4803F045F82368F6
:105A28000C4A934203D100220B4B9A7010BD0B4ACB
:105A3800934203D10022084B9A74F7E7084A93422D
:105A4800F4D1084803F030F8F0E7C04600440040BD
:105A580044130020004C00408C1E002000500040E1
:105A6800003C0140E81700200F4B026810B5040005
:105A78009A4202D10D4803F07BF923680C4A9342FD
:105A880003D100220B4B5A7010BD0B4A934203D12D
:105A98000022084B5A74F7E7084A9342F4D10848A1
:105AA80003F066F9F0E7C0460044004044130020C4
:105AB800004C00408C1E002000500040003C01407B
:105AC800E8170020F0B53E4C85B0200003F05CFFDD
