:020000040800F2
:200000000040022039470008594100086141000800000000000000000000000000000000AA
:20002000000000000000000000000000694100080000000000000000734100087D4100088C
:200040008947000800000000894700088947000889470008894700088947000889470008B8
:200060008D410008894700088947000889470008894700088947000889470008000000009A
:200080008947000889470008894700088947000889470008894700088947000889470008A0
:2000A00089470008894700088947000889470008894700088947000810B5064C2378002B53
:2000C00007D1054B002B02D0044800E000BF0123237010BD1002002000000000D0E9000899
:2000E000044B10B5002B03D00349044800E000BF10BDC0460000000014020020D0E90008ED
:2001000002780B78002A03D0013001319A42F7D0D01A70470023C25C0133002AFBD1581E5D
:200120007047000003B47146490840004900095E49008E4403BC7047002243088B4274D347
:2001400003098B425FD3030A8B4244D3030B8B4228D3030C8B420DD3FF22090212BA030C0A
:200160008B4202D31212090265D0030B8B4219D300E0090AC30B8B4201D3CB03C01A524115
:20018000830B8B4201D38B03C01A5241430B8B4201D34B03C01A5241030B8B4201D30B03CE
:2001A000C01A5241C30A8B4201D3CB02C01A5241830A8B4201D38B02C01A5241430A8B42E8
:2001C00001D34B02C01A5241030A8B4201D30B02C01A5241CDD2C3098B4201D3CB01C01AB7
:2001E000524183098B4201D38B01C01A524143098B4201D34B01C01A524103098B4201D3F3
:200200000B01C01A5241C3088B4201D3CB00C01A524183088B4201D38B00C01A5241430852
:200220008B4201D34B00C01A5241411A00D20146524110467047FFE701B5002000F0F0F8BD
:2002400002BDC0460029F7D076E7704703460B437FD4002243088B4274D303098B425FD35F
:20026000030A8B4244D3030B8B4228D3030C8B420DD3FF22090212BA030C8B4202D312122E
:20028000090265D0030B8B4219D300E0090AC30B8B4201D3CB03C01A5241830B8B4201D38B
:2002A0008B03C01A5241430B8B4201D34B03C01A5241030B8B4201D30B03C01A5241C30AA2
:2002C0008B4201D3CB02C01A5241830A8B4201D38B02C01A5241430A8B4201D34B02C01A06
:2002E0005241030A8B4201D30B02C01A5241CDD2C3098B4201D3CB01C01A524183098B42A5
:2003000001D38B01C01A524143098B4201D34B01C01A524103098B4201D30B01C01A524144
:20032000C3088B4201D3CB00C01A524183088B4201D38B00C01A524143088B4201D34B00BE
:20034000C01A5241411A00D201465241104670475DE0CA0F00D04942031000D340425340B0
:2003600000229C4603098B422DD3030A8B4212D3FC22890112BA030A8B420CD38901921187
:200380008B4208D3890192118B4204D389013AD0921100E08909C3098B4201D3CB01C01A28
:2003A000524183098B4201D38B01C01A524143098B4201D34B01C01A524103098B4201D331
:2003C0000B01C01A5241C3088B4201D3CB00C01A524183088B4201D38B00C01A5241D9D231
:2003E00043088B4201D34B00C01A5241411A00D20146634652415B10104601D34042002B67
:2004000000D54942704763465B1000D3404201B5002000F005F802BD0029F8D016E7704735
:200420007047C0469E2110B5C905041C00F07CFD002803D1201C00F0E1FC10BD9E21201C57
:20044000C90500F077FA00F0D9FC80231B069C466044F2E7F0B546464F46D6464502C0B5E7
:20046000C30F470098460E1C6D0A3F0E5BD0FF2F21D08023ED00DB041D43002399469A469C
:200480007F3F74027300640A1B0EF60F002B20D0FF2B43D080220020E400D20414437F3B34
:2004A0004246FF1A4B4672400F2B00D99DE071499B00CB589F46002D5AD108239946063BC8
:2004C00074029A467300FF27640A1B0EF60F002BDED1002C3BD10123424649467240194336
:2004E0000E2918D86448890041588F465346022B00D1B8E0032B6ED042462C00012B40D1A6
:2005000000200024C0052043D2071043E0BCBA46B146A846F0BDFF200024F3E7002C20D1DB
:200520000223FF3FD8E7002D05D104239946033B00279A46A5E7280000F000FD7627431FAB
:200540009D4000237F4299469A463F1A99E7200000F0F4FC431F9C4076235B421B1A002079
:200560009EE703234A461A4391460320FC3397E70C239946093BFF279A4682E703282CD054
:20058000320038007F30002847DD630704D00F232340042B00D00434230103D53800374B36
:2005A00080301C40FE28B6DCA401640AC0B2A9E780240022FF20E403A4E78023DB031D422B
:2005C00001D01C420BD08024E4032C4364024246FF20640A96E746462C008023DB031C4387
:2005E00064023200FF20640A8CE76D01600185422DD21B230024013F0126290064006D000B
:20060000002901DB854201D32D1A3443013B002BF3D16B1E9D412C43B3E701231B1A1B2B42
:2006200000DD6DE721009E37D940BC400B00611E8C412343590704D00F211940042900D007
:200640000433590113D49B0100205C0A5AE71A2301242D1AD0E7981E4342584140423200D7
:200660000024C0B24EE74246FF2000244AE70120002447E750EA000890EA0008FFFFFFF788
:20068000F0B54F464646D6464400C0B546020F1C760A240EC50F002C00D1DAE0FF2C74D0A0
:2006A0008023F600DB041E43002399469A467F3C7B025B0A98467B001B0EFF0F002B74D0E3
:2006C000FF2B00D18EE042468021D200C90411437F3B2A00E4184B467A408846D2B20A2BE3
:2006E00075DC4B460020022B0FDD494601238B40A621C9000B4269D1902189000B4200D0F3
:2007000000E18821194200D0F5E041460904090C43460800350C36041B0C360C70436943D2
:200720005E435D437618030C9B19994203D9802149028C46654400041904000C09188E012C
:20074000701E86411B0C890E5B190E439B011E431B016CD423007F33002B00DCB1E01500E6
:2007600071070BD00F2021003040042806D00436320103D56E4B1E400B008033FE2B00DD44
:20078000BDE0B201520ADBB248E0002E00D092E008239946063B9A467B025B0A98467B0022
:2007A000FF241B0EFF0F002B8AD14246002A64D149460132114389460A2908DC7D40012098
:2007C000EAB2022991DC1500002227E015005346022B00D193E0032B1AD0012B2CD1002324
:2007E00000221BE04346FF34002B55D003214B460B4319000A2B00DC92E00F2B00D08CE0BB
:200800008022D203164203D04346134200D17DE08022D20332435202520AFF23D805ED079B
:2008200010432843E0BCBA46B146A846F0BD0123150071081E400E4323008033611C002BED
:2008400041DD720794D00F223240042A00D08EE78EE7002E05D104239946033B00249A46C6
:2008600026E7300000F06AFB7624431F9E400023644299469A46241A1AE7404600F05EFB76
:200880004B46241A763C0A2BA1DC4346053883407D409846EAB224E74A46023313432A0015
:2008A0007A40D2B20A2B92DC49461500002926D09946022019E70C239946093BFF249A463E
:2008C000F6E6150021000122D31A1B2B00DD86E79E3132008E40DA40731E9E41324353073E
:2008E00004D00F231340042B00D00432530110D50123002292E73D004646824667E7FF2371
:2009000000228BE780220025D20386E73D001A4383E792010023520A80E73D00464677E796
:200920002A0001237A408B400320D2B2E9E6C046FFFFFFF7F8B54746CE46430280B55F0A43
:200940009B0945004A009C464B02C40FCE0F2D0E580A120E9909FF2A6BD001235E40AB1A3B
:20096000B4424BD0002B00DCFFE0002A00D188E0FF2D00D1EFE08022D204114301201B2B1E
:2009800008DC08002022D840D31A99400B005A1E9341184363461B1A9C4663465B0100D400
:2009A000CDE063469F01BF09380000F0C7FA3B0005388340854200DCA2E0B74A2D1A1A408E
:2009C00094465A0700D1C3E00F221340042B00D1BEE004239846C44463465B0100D4B7E0C9
:2009E000681CFE2D00D0A5E0FF200022C0051043E4072043C0BCB946B046F8BD002B00DC1F
:200A0000EBE1002A46D0FF2D00D1A4E08022D20411431B2B00DCFBE0052398462B00C44447
:200A20006246D708FF2B00D195E07A02520AD8B2DCE72B00FF3B9946002918D101235E4082
:200A4000B44200D1CAE04B46002B2DD0002D00D03CE1FF236446002C00D15FE15D1E012BA2
:200A600000D174E13400FF2B74D02B0003E1B44200D19CE0002B17D0002DEAD00700340028
:200A80006CE00029CCD05A1E012B2BD0FF2B62D0130073E70029C3D05A1E012B00D11EE1AD
:200AA000FF2B58D01300B4E7FE226B1C1A420DD1002D60D06346002B00D020E1002900D05A
:200AC00028E180220024FF20D2038FE763465F1A7B0100D5FEE0002F00D065E700240020FD
:200AE000002283E76346591A4B0100D419E18F01BF09380000F022FA3B0005388340012537
:200B00002022401B0130121A19009340C1405A1E934119438C460B1EE1D05B0700D152E134
:200B20000F2300250B40042B00D052E701204A0100D492E0C0B263469A01520A56E7634631
:200B40005B0705D00F2362461340042B00D040E72B0065E70700002F00D145E78022D203EA
:200B60003A435202FF20520A40E7002B79D1FE226B1C1A42AAD16346002B00D1F5E000296C
:200B800000D1D1E05F1A8023DB041F4200D10EE1624601248A1A944600203440002A00D1DD
:200BA00024E701201A42C6D10023D7083DE7002B17D0002D00D0AFE0FF236546002D00D187
:200BC000ADE05E1E012B00D189E0FF2BC2D01B2E00DCABE04B1D9C46130021E74B46002B19
:200BE00070D1FE226B1C1A425ED1002D00D0C3E06346002B00D1D0E0002900D194E00A0015
:200C00006244530100D4D8E092010120520AEDE608002022D840D31A99400B005A1E9341EC
:200C200003439C4463465B0189D50135FF2D00D1DAE6624601231949134052080A401A43B6
:200C4000130094465B0704D00F231340042B00D0BFE663465B0100D5C2E66346DF082B000B
:200C6000E3E6531B002D00D1F4E680206446C0040443A446340001201B2B09DC20256046BB
:200C8000D840EB1A65469D402B005D1EAB4118430B1A9C46150080E6FFFFFFFBFFFFFF7DCE
:200CA000FE226B1C1342A3D0FF2B00D19CE6614449084A0749D00F220A40042A45D00A1D03
:200CC0009446ADE6002D00D176E78DE63400FF2000228BE663460124CF1A344064E66144D9
:200CE0004B016DD548084449014043072CD00F230340042B28D00B1D9C46022390E6002998
:200D000000D12BE78023DB039F4200D226E7984200D323E70124344007001FE734008C464C
:200D20007EE60123CF0880E600237EE620206546801B854063462800F340451EA841034386
:200D40009C4615008C446DE70223CF086DE60F1B7B0128D5BF01BF09380000F0EFF83B00B4
:200D60000538834034000125CAE6002900D1B5E601240700344058E66346002B00D1E9E682
:200D8000002900D1EAE68023DB039F4200D2E5E6984200D3E2E60700E0E6002900D19EE6CA
:200DA0000023CF0841E634000123FF083DE6002F00D193E60023FF0837E60023D70834E6B4
:200DC0000123CF0831E680220B00D20401201340114200D0AEE6CF0827E6002B00D15FE72D
:200DE000561B002D01D13300E7E680236046DB0418438446EBE6C046FFFFFF7D4102420060
:200E0000C30F490A0020120E7E2A03DD9D2A02DD094A98187047802000040143952A07DCFB
:200E20009620821AD1404842002BF3D10800F1E7963A9140F7E7C046FFFFFF7F10B5041E0E
:200E40000DD000F07BF89E231B1A962B0CDC082834D0083884406402640AD8B201E000201C
:200E60000024C005204310BD992B13DC421F9440144A224061071CD00F212140042918D0B7
:200E80000432D408520115D59F236402181A640AC0B2E6E7020021001B3291400A00511E42
:200EA0008A410521091ACC401443064A22406107E2D1D4086402640AD8B2D2E76402640A27
:200EC0008E30CEE7FFFFFFFB844608006146FFE71FB500F0C1F8002801D40021C8421FBDC7
:200EE00010B500F049F84042013010BD10B500F0B3F8002801DB002010BD012010BDC04637
:200F000010B500F0A9F8002801DD002010BD012010BDC04610B500F057F8002801DC00206B
:200F200010BD012010BDC04610B500F04DF8002801DA002010BD012010BDC0461C210123B1
:200F40001B04984201D3000C10391B0A984201D3000A08391B09984201D30009043902A295
:200F6000105C40187047C0460403020201010101000000000000000070B542004E024C00DE
:200F800045026D0A120EC30F760A240EC90FFF2A10D0FF2C0CD00120A2420AD1B54208D157
:200FA0008B420FD0002A04D12800431E984100E0012070BD0120FF2CFBD13543F9D14B4011
:200FC0001800F6E70020F4E730B5420044024D02C30F4800640A120E6D0A000EC90FFF2A37
:200FE00018D0FF280AD0002A1ED100280AD1002D29D0002C2DD14800013830BD002D25D10B
:20100000002A01D1002CF6D08B4219D001205B421843F2E7002C19D1FF28F7D1002D15D122
:2010200000208B42F2D1E8E70028EFD08B42EDD18242EBDC04DBAC42E8D80020AC42DCD2EB
:2010400058000138D9E7002CD7D0DFE702204042D3E78B42DAD1EEE730B5420044024D023F
:20106000C30F4800640A120E6D0A000EC90FFF2A17D0FF280AD0002A1BD100280AD1002D14
:201080001DD0002C2DD14800013811E0002D0ED1002A01D1002CF6D08B420CD15800013892
:2010A00006E0002C03D1FF2805D1002D15D0022030BD002806D101205B421843F8E7002C09
:2010C000F6D0F8E78B42F6D18242F4DCE6DBAC42F1D80020AC42EBD2E0E700208B42EAD191
:2010E000E6E78B42E7D1F2E780B582B000AF78607B6806331B78402B08D97B6806331B782D
:201100001A00DF231340373B1A0704E07B6806331B78303B1A077B6807331B78402B08D9B2
:201120007B6807331B781900DF230B40373B1B0604E07B6807331B78303B1B061A437B68A6
:2011400004331B78402B08D97B6804331B781900DF230B40373B1B0504E07B6804331B7843
:20116000303B1B051A437B6805331B78402B08D97B6805331B781900DF230B40373B1B04E8
:2011800004E07B6805331B78303B1B041A437B6802331B78402B08D97B6802331B7819001B
:2011A000DF230B40373B1B0304E07B6802331B78303B1B031A437B6803331B78402B08D9E5
:2011C0007B6803331B781900DF230B40373B1B0204E07B6803331B78303B1B021A437B6816
:2011E0001B78402B07D97B681B781900DF230B40373B1B0103E07B681B78303B1B011A436A
:201200007B6801331B78402B07D97B6801331B781900DF230B40373B03E07B6801331B78CA
:20122000303B13431800BD4602B080BDF0B59DB000AF7863FA6218000A262823F218D21983
:201240000B1C1380092328215B18DA19031C13707B6B7B647A6B07231340BB667318DB1990
:201260001A88072313407B66BB6E002B01D00A23C4E17B6E002B01D00B23BFE1092328224E
:201280009B18DB191B78012B00D0F1E00023FB66E2E0FA6AFB6ED3181A78102428256319BA
:2012A000DB191A70FB6E0133FA6AD3181A786319DB195A70FB6E0233FA6AD3181A786319FD
:2012C000DB199A70FB6E0333FA6AD3181A786319DB19DA70FB6E0433FA6AD3181A786319D9
:2012E000DB191A71FB6E0533FA6AD3181A786319DB195A71FB6E0633FA6AD3181A786319B3
:20130000DB199A71FB6E0733FA6AD3181A786319DB19DA716319DB191800FFF7E5FE03002B
:201320003B66FB6E0833FA6AD3181A78210028000B18DB191A70FB6E0933FA6AD3181A7817
:201340000B18DB195A70FB6E0A33FA6AD3181A780B18DB199A70FB6E0B33FA6AD3181A787C
:201360000B18DB19DA70FB6E0C33FA6AD3181A780B18DB191A71FB6E0D33FA6AD3181A7857
:201380000B18DB195A71FB6E0E33FA6AD3181A780B18DB199A71FB6E0F33FA6AD3181A7832
:2013A0000B18DB19DA710B18DB191800FFF79CFE0300FB65FB6D3B6500237B653B6D1B00DB
:2013C0007B6100233B613B697C693B657C653B6E3B6200237B623B6D396A7A6A0800184390
:2013E000B8607B6D1A43FA60BB68FC683B657C657A6C844B1B689A4201D20C23FEE07B6C53
:20140000FB647B6C1B68FB647B6C04331B68BB64FA6C3B6E9A4203D1BA6CFB6D9A420AD0E1
:20142000796C3A6D7B6D012004F00CF803001A00754B1A7002E0744B00221A70724B1B781B
:20144000002B03D17B6C08337B6402E06E4B1B78D4E0FB6E1033FB660A2328229B18DB197F
:201460001B885B001A00FB6E934200D211E7C4E00023FB66B8E0FA6AFB6ED3181A78102111
:2014800028200B18DB191A70FB6E0133FA6AD3181A780B18DB195A70FB6E0233FA6AD31817
:2014A0001A780B18DB199A70FB6E0333FA6AD3181A780B18DB19DA700B18DB191B781A00D4
:2014C0000B18DB195B781B02D2180B18DB199B781B04D2180B18DB19DB781B06D3183B66D1
:2014E000FB6E0433FA6AD3181A780B18DB191A70FB6E0533FA6AD3181A780B18DB195A7067
:20150000FB6E0633FA6AD3181A780B18DB199A70FB6E0733FA6AD3181A780B18DB19DA7042
:201520000B18DB191B781A000B18DB195B781B02D2180B18DB199B781B04D2180B18DB19AC
:20154000DB781B06D318FB65FB6D3B6500237B653B6D1B007B6000233B603A687B683A6541
:201560007B653B6EBB610023FB613B6DB969FA690800184304007B6D1A4315003C657D65D6
:201580007A6C204B1B689A4201D20C2336E07B6CFB647B6C1B68FB647B6C04331B68BB64B4
:2015A000FA6C3B6E9A4203D1BA6CFB6D9A420AD0796C3A6D7B6D012003F044FF03001A0040
:2015C000114B1A7002E0104B00221A700E4B1B78002B03D17B6C08337B6402E00A4B1B7886
:2015E0000CE0FB6E0833FB660A2328229B18DB191B88FA6E9A4200D23DE700231800BD46C1
:201600001DB0F0BD000000203802002090B585B000AF0200BB1D1A80434B1B78012B03D019
:20162000414B1B78032B26D1BB1D1A883F4B1B68D2183E4B1A603D4B1B681800FFF7FEFBE0
:20164000041C3B4B1B681800FFF7F8FB031C191C201CFEF7FFFE031CFB603649F868FFF78F
:201660000FF8031CFB60F868FEF7DCFE0300DAB2314B1A702DE02C4B1B78022B03D02A4B99
:201680001B78042B25D1BB1D1A882C4B1B68D2182A4B1A60294B1B681800FFF7CFFB041C56
:2016A000274B1B681800FFF7C9FB031C191C201CFEF7D0FE031CFB601E49F868FEF7E0FFFB
:2016C000031CFB60F868FEF7ADFE0300DAB21D4B1A70BB1D1A881C4B1B68D2181A4B1A60E2
:2016E000194B1B681800FFF7A9FB041C174B1B681800FFF7A3FB031C191C201CFEF7AAFE73
:20170000031CFB600B49F868FEF7BAFF031CFB60F868FEF787FE0300DAB20D4B1A70C04622
:20172000BD4605B090BDC046390200203C020020500200200000C8424402002040020020A1
:20174000540200204502002048020020580200204C020020B0B58AB000AF78600023BB61F5
:2017600000237B6200233B622D4B802212021A617B68180000F028F9020008243B195A60B8
:201780003B1902221A607B68180000F0B9F8020021007B189A6040237B627B187A6ADA601A
:2017A0001F257C191823FA187B181100180003F04BFF030023707B191B78002B01D001232D
:2017C00029E0184B180000F0FFF8020008243B195A603B1902221A60124B180000F090F883
:2017E000020021007B189A6080233B627B183A6ADA601F257C191823FA187B1811001800A6
:2018000003F022FF030023707B191B78002B01D0022300E000231800BD460AB0B0BDC0468B
:201820000020024000000408B0B58AB000AF78600023FB6100237B62184B802212021A6101
:201840007B68180000F0C0F802000C243B195A603B1902221A607B68180000F051F802007D
:2018600021007B189A6001237B627B187A6ADA6023257C191C23FA187B181100180003F02B
:20188000E3FE030023707B191B78002B01D0012300E000231800BD460AB0B0BD00200240E3
:2018A000B0B588B000AF78600023BB61134B802212021A6108217B1804225A607B180222E3
:2018C0001A607B187A689A607B180122DA601F257C191823FA187B181100180003F0B4FEA8
:2018E000030023707B191B78002B01D0012300E000231800BD4608B0B0BDC0460020024060
:2019000080B584B000AF78600023FB60284B1A68C0239B0413400ED0254B1A68C0239B043D
:201920001A4080235B049A420FD1224B1A6880239B03134009D1204B1B689B021F4A1340EB
:20194000802212059446634409E01B4B1B689B025B081B4A134080221205944663447A68A7
:2019600093420DD97B68F822120694466344DB0AFB60FB687F2B16D9FA239B00FB6012E0D5
:201980007B68104A94466344DB0A0133FF33FB60FB68FF2B04D9FA68C0235B009A4202D328
:2019A000FA239B00FB60FB681800BD4604B080BD0075FF1F20200240E075FF1F00FC0F0012
:2019C00000FE07000000FCF780B584B000AF78600023FB607B680C4A934202D80423FB6037
:2019E0000DE07B68094A934207D87B68064A934203D980231B02FB6001E00023FB60FB684F
:201A00001800BD4604B080BDFFFF0308FFFF070890B589B000AF1E243B1900221A800423FE
:201A2000BB6100237B6008217B1802221A607B180122DA607B1800229A607B18BA695A6023
:201A40003A1D7B181100180003F0FEFD031E02D03B1901221A801E23FB181B881800BD466F
:201A600009B090BDB0B58AB000AF78600023FB6100237B62184B802212021A617B6818002C
:201A8000FFF7A2FF02000C243B195A603B1902221A607B681800FFF733FF020021007B18A4
:201AA0009A6001237B627B187A6ADA6023257C191C23FA187B181100180003F0C5FD0300D8
:201AC00023707B191B78002B01D0012300E000231800BD460AB0B0BD0020024090B585B00B
:201AE00000AF0023FB603D493D4A00230A604B603A493C4A00238A60CB6072B6C0463A4B80
:201B00001800FFF7AFFF62B6C046374BBB60334B1A685B68FC1DB968012003F093FC0300AB
:201B20002370FB1D1B78002B02D001235B4250E0BB680833BB60294B9A68DB68FC1DB9680D
:201B4000012003F07FFC03002370FB1D1B78002B02D001235B423CE0BB680833BB601F4BF8
:201B60001A695B69FC1DB968012003F06BFC03002370FB1D1B78002B02D001235B4228E062
:201B8000BB680833BB60154B9A69DB69FC1DB968012003F057FC03002370FB1D1B78002B18
:201BA00002D001235B4214E0BB680833BB600B4B1A6A5B6AFC1DB968012003F043FC0300F6
:201BC0002370FB1D1B78002B02D001235B4200E0FB681800BD4605B090BDC0466002002021
:201BE000ADDEEFBE7856341200F8010880B582B000AF184B7B607B681A685B6816490A6053
:201C00004B607B6808337B607B681A685B6812498A60CB607B6808337B607B681A685B6867
:201C20000D490A614B617B6808337B607B681A685B6809498A61CB617B6808337B607B68D1
:201C40001A685B6804490A624B6200231800BD4602B080BD00F801086002002090B585B0AF
:201C600000AF0023FB6003F03BFC4849484A00230A604B604549002200238A60CB6043493E
:201C8000444A00230A614B614049002200238A61CB613E49002200230A624B6272B6C04684
:201CA0003D4B1800FFF7DEFE62B6C0463A4BBB60364B1A685B68FC1DB968012003F0C2FB23
:201CC00003002370FB1D1B78002B02D001235B4257E0BB680833BB602C4B9A68DB68FC1D80
:201CE000B968012003F0AEFB03002370FB1D1B78002B02D001235B4243E0BB680833BB606B
:201D0000224B1A695B69FC1DB968012003F09AFB03002370FB1D1B78002B02D001235B422D
:201D20002FE0BB680833BB60184B9A69DB69FC1DB968012003F086FB03002370FB1D1B7861
:201D4000002B02D001235B421BE0BB680833BB600E4B1A6A5B6AFC1DB968012003F072FBF4
:201D600003002370FB1D1B78002B02D001235B4207E003F0D9FBFB68002B01D1002300E053
:201D800001231800BD4605B090BDC04660020020ADDEEFBE0000020800F8010890B585B0BD
:201DA00000AFFFF723FF0023FB60534B1A685B6852498A4201D1002B01D00123FB60FB68E4
:201DC000002B07D14C4B9A68DB681100194301D001238DE0FB68002B00D188E04649474A6E
:201DE00000230A604B604449454A00238A60CB604149444A00230A614B613F490022002338
:201E00008A61CB613C49002200230A624B6272B6C0463D4B1800FFF725FE62B6C0463A4B3E
:201E2000BB60354B1A685B68FC1DB968012003F009FB03002370FB1D1B78002B02D001230E
:201E40005B4255E0BB680833BB602B4B9A68DB68FC1DB968012003F0F5FA03002370FB1D91
:201E60001B78002B02D001235B4241E0BB680833BB60214B1A695B69FC1DB968012003F076
:201E8000E1FA03002370FB1D1B78002B02D001235B422DE0BB680833BB60174B9A69DB6939
:201EA000FC1DB968012003F0CDFA03002370FB1D1B78002B02D001235B4219E0BB680833B7
:201EC000BB600D4B1A6A5B6AFC1DB968012003F0B9FA03002370FB1D1B78002B02D00123E3
:201EE0005B4205E0BB680833BB60012300E000231800BD4605B090BD60020020ADDEEFBEE9
:201F0000785634120000020800F80108F0B58BB002AF02F03BFC00F023FBFA235900CE4B4B
:201F2000012218000CF04FF8C046CB4B18000CF05FF803001A0001235340DBB2002BF4D14B
:201F400000F020FC00F0D0FB00F062FB0023FB6108E0C82002F0A0FCC82002F09DFCFB69B9
:201F60000133FB61FB69022BF3DDBC4B01220A2118000CF028F8BA4B1A685B68B9490A6031
:201F80004B60B84B1A685B681B0CBB600023FB603A89B54B1A80B34B1A685B681B003B6038
:201FA00000237B603A88B04B5A80AE4B1A685B681904140C0C431D0CA2B2AB4B9A80A94B41
:201FC0001A685B6892B2A84BDA80A84B0F22002118000CF009F9A44B1B881A00A24B5B8854
:201FE0001C00A14B9B88A249A048009323000CF0D9F803F075FAFFF7D1FE02000B251024D3
:202000002B19DB191A7001F047FF0A263319DC1980239B01974A1900100003F031FD0300E9
:2020200023701022B318DB191B78002B28D0AB18DB191B78012B23D08F4B1A688F4B1A604D
:202040008D4B1B688E4A13408E4A93421AD11B2003F0DBF902F044FC8B4B1A688B4B1A6086
:202060008A4B1B681A008A4B1A60834B1B687B617B6983F30888C046854B1B68984702E06E
:20208000C04600E0C0460AF0FDFF02F095FA734B18000BF0ADFF031E00D126E26F4B012289
:2020A0000A2118000BF08FFF7A4B00229B5E002B00D08FE0784B1B88092B1ED8774B012295
:2020C0000421180003F0F9FC6A4B01222021180003F0F3FC714B01224021180003F0EDFC94
:2020E000644B01221021180003F0E7FC6A4B1B8801339AB2684B1A80F7E1674B1B880F2B63
:202100001ED8664B00220421180003F0D6FC594B00222021180003F0D0FC604B00224021E8
:20212000180003F0CAFC534B00221021180003F0C4FC594B1B8801339AB2574B1A80D4E15A
:20214000554B1B88192B1ED8544B01220421180003F0B3FC474B01222021180003F0ADFCB7
:202160004E4B01224021180003F0A7FC414B01221021180003F0A1FC474B1B8801339AB257
:20218000454B1A80B1E1444B1B88F92B1ED8434B00220421180003F090FC364B00222021E7
:2021A000180003F08AFC3D4B00224021180003F084FC304B00221021180003F07EFC364B24
:2021C0001B8801339AB2344B1A808EE1324B00221A808AE12F4B00229B5E012B00D09FE0A0
:2021E0002D4B1B881D2B5BD82C4B00221021180003F063FC1F4B00228021180003F05DFC84
:2022000080235B001B480022190003F056FC194B00224021180003F050FC204B01220421EC
:20222000180003F04AFC134B01222021180003F044FC1A4B01224021180003F03EFC0D4BBA
:2022400001221021180003F038FC134B1B8801339AB2114B1A8048E18803002080030020FD
:2022600000F80708A0030020A803002024190020F8E9000800040050000002089C03002066
:202280000000FE2F000002200400020898030020940300201405002090030020000C005027
:2022A000A94B1B883B2B37D8A84B01221021180003F003FCA64B01228021180003F0FDFB09
:2022C00080235B00A2480122190003F0F6FBA04B01224021180003F0F0FB9C4B0022042163
:2022E000180003F0EAFB9A4B00222021180003F0E4FB964B00224021180003F0DEFB944B95
:2023000000221021180003F0D8FB8F4B1B8801339AB28D4B1A80E8E08B4B00221A80E4E0FF
:202320008C4B00229B5E022B00D07BE0864B1B881D2B37D8854B01220421180003F0BDFBAD
:20234000834B01222021180003F0B7FB7F4B01224021180003F0B1FB7D4B01221021180055
:2023600003F0ABFB794B01221021180003F0A5FB774B01228021180003F09FFB80235B00D8
:2023800073480122190003F098FB714B01224021180003F092FB6C4B1B8801339AB26A4B59
:2023A0001A80A2E0684B1B883B2B37D8674B00220421180003F081FB654B0022202118008B
:2023C00003F07BFB614B00224021180003F075FB5F4B00221021180003F06FFB5B4B0022B0
:2023E0001021180003F069FB594B00228021180003F063FB80235B0055480022190003F0A4
:202400005CFB534B00224021180003F056FB4E4B1B8801339AB24C4B1A8066E04A4B0022FE
:202420001A8062E0484B1B881D2B37D8474B00220421180003F041FB454B00222021180008
:2024400003F03BFB414B00224021180003F035FB3F4B00221021180003F02FFB3B4B01224E
:202460001021180003F029FB394B01228021180003F023FB80235B0035480122190003F0E1
:202480001CFB334B01224021180003F016FB2E4B1B8801339AB22C4B1A8026E02A4B1B883C
:2024A0003B2B1FD8294B00221021180003F005FB274B00228021180003F0FFFA80235B00B6
:2024C00023480022190003F0F8FA214B00224021180003F0F2FA1C4B1B8801339AB21A4B9C
:2024E0001A8002E0184B00221A8002F0EDF801F025FC00F0E1F901F091FE174B1B78002BEE
:2025000000D1C4E5154B0122322118000BF05BFDC046124B18000BF06BFD03001A000123E1
:202520005340DBB2002BF4D10B4B00221A7072B6C046FFF76DFA03001A000A2310215B1810
:20254000DB191A70A3E5C04690030020000C005000040050140500202219002088030020CD
:2025600090B593B000AF10243B19180038231A0000210BF039FE3B00180010231A000021FB
:202580000BF032FE80239B00180005F02DF83B1901221A603B19802252025A6021007B18F7
:2025A0000222DA617B1803221A627B1830225A627B1830229A627B18A0221203DA627B18CD
:2025C000C022D2041A637B188022D2055A637B18180005F055F8031E01D000F067F93B0093
:2025E00007221A603B0002225A603B0000229A603B000022DA603B000221180005F05AFB71
:20260000031E01D000F052F9C046BD4613B090BD80B584B000AF3B1D18000C231A00002182
:202620000BF0E2FD2D4B2E4A1A602C4B8022D2025A602A4B00229A60284B0022DA60274BDD
:2026400000221A61254B04225A61244B00221A76224B00225A76214B00229A761F4B0122E1
:20266000DA611E4B2022002199541C4B00225A621A4B00229A62194B2C2200219954174B7C
:2026800000221A63154B00225A63144B00229A63124B3C2200219954104B0022DA640F4B00
:2026A000180002F03FFA031E01D000F0FFF83B1D0C4A1A603B1D00225A603B1D00229A602E
:2026C0003A1D064B1100180002F0D4FB031E01D000F0ECF8C046BD4604B080BD88020020FE
:2026E00000240140001000B080B500AF234B244A1A60224BE12252025A60204B00229A6076
:202700001E4B0022DA601D4B00221A611B4B0C225A611A4B00229A61184B0022DA61174BFC
:2027200000221A62154B00225A62144B00229A62124B180005F0EEFD031E01D000F0B6F85B
:202740000E4B0021180006F08BFA031E01D000F0ADF80A4B0021180006F0C2FA031E01D0B3
:2027600000F0A4F8054B180006F040FA031E01D000F09CF8C046BD4680BDC046EC02002065
:202780000038014090B58BB000AF14243B19180014231A0000210BF027FD414B5A6B404B80
:2027A00020210A435A633E4B5B6B202213403B613B693B4B5A6B3A4B04210A435A63384B28
:2027C0005B6B04221340FB60FB68354B5A6B344B02210A435A63324B5B6B02221340BB6036
:2027E000BB682F4B5A6B2E4B01210A435A632C4B5B6B012213407B607B68294B5A6B284BB5
:2028000008210A435A63264B5B6B082213403B603B68244B00225421180003F04EF9F82320
:202820005B0021480022190003F047F93B19802292011A603B1900225A603B1901229A60C2
:202840003B19194A1900100002F0AEFF3B1954221A603B1901225A603B1900229A603B19C0
:202860000022DA603B190F4A1900100002F09CFF21007B18F82252001A607B1801225A608F
:202880007B1800229A607B180022DA607B18064A1900100002F088FFC046BD460BB090BD04
:2028A00000100240000C00500004005080B500AF72B6C046C046FDE7B0B588B000AFF14B92
:2028C000D4229B5A1A000823134001D100F058FDEC4BD4220021995200F004FE02001A21F6
:2028E0007B181A807B1800229B5E0433222B01D900F022FD9A00E44BD3181B689F461A2139
:202900007B181B885B429AB27B181A807B1800229B5E180000F076FD00F025FD00F05AFDE9
:2029200000F021FDD74BD42200219952D54BD4229B5A0422134399B2D24BD4229952D14B79
:20294000D6220121995200F00EFD18257C19092001F034F8030023807B1900229B5ECB4AF5
:20296000934201D000F0FCFC7B191A88C84B1A80052000F047FD00F0F3FCC24B64222321D7
:202980009954C04BDA229B5A1B0A9BB2D9B2BD4B65229954BB4BDA229B5AD9B2B94B6622C7
:2029A0009954B84BD978B74B67229954B54B1979B44B68229954B34B692230219954B14B93
:2029C0006A223021995418243B1900221A803B1900229B5E1B121BB2DBB2AE4A11001800CA
:2029E00000F096FF3B191B88DBB2AB4A1100180000F08EFFA34B6F2200219954A74AA84BC2
:202A0000110018000BF0F8FBA54B180000F034FFA34B180001F00AF800F0A5FC994B642280
:202A200023219954974BDA229B5A1B0A9BB2D9B2944B65229954934BDA229B5AD9B2914B0C
:202A4000662299548F4BD9788E4B672299548D4B19798C4B682299548A4B69223021995431
:202A6000884B6A223021995418243B1900221A803B1900229B5E1B121BB2DBB2854A110097
:202A8000180000F045FF3B191B88DBB2824A1100180000F03DFF7B4B6F2200219954814A15
:202AA0007F4B110018000BF0A7FB7D4B1800FDF731FB03001A007A4BD2187B4B10001900CB
:202AC00002231A000BF000FC754B180000F0D4FE734B180000F0AAFF00F045FC694A704B18
:202AE000110018000BF0E8FB6D4B180000F09EFF00F039FC6D4B180001F028FA6C4B012290
:202B00001A806C4B00221A806B493B00042218000BF07FFB3B0000221A713B00180000F0DB
:202B2000FFFF03001A0016217B181A801C243B197A1812881A8061493B00082218000BF09A
:202B400068FB3B0000221A723B00180001F054F803003B615A4B3A691A605A4B01221A70E6
:202B6000FEF7BCFF584B09221A80584B00221A60574B00221A80052000F044FC554B3A1958
:202B800012881A80544B00221A60534B00225A60514B00221A61504B00229A604E4B0122A0
:202BA000DA604E4B00221A804D4B00221A804D4B01221A804C4B01221A7000F0D4FB3E4953
:202BC0003B00042218000BF024FB3B0000221A713B00180000F0A4FF03001A0016217B18AD
:202BE0001A801C23FB187A1812881A8033493B00082218000BF00DFB3B0000221A723B0003
:202C0000180000F0F9FF03003B61384B3A691A60052000F0F7FB00F0A6FB244B180001F065
:202C200095F91E23FB1800221A8013E01E203B1800229A5E3B1800215B5E2D49895C2D4A59
:202C4000D15401007B1800229B5E9BB201339AB27B181A801E23FB1800229B5E032BE5DD47
:202C6000244B180000F05CFF03009AB2224B1A801A23FB1800229B5E062B3FD1124B0622FB
:202C80001A806FE3B4030020CCEA0008A5A5FFFF100500201F04002021040020040000208A
:202CA000180400202419002004EA0008EC18002012050020B0030020BD030020C103002093
:202CC0005002002039020020160500200419002048190020FC1800200C190020F618002087
:202CE00020190020140500204C19002058020020A804002020050020F01800201A23FB18BA
:202D000000229B5E0F2B00D02CE3D34B0F221A8028E3D24B1B685A1CD04B1A601823FB1892
:202D200000221A80CE4B180001F010F9CD4B1A88CD4B1A80CD4B1B88012B45D11E23FB18EF
:202D400000221A8013E01E203B1800229A5E3B1800215B5EC649895CC64AD15401007B182F
:202D600000229B5E9BB201339AB27B181A801E23FB1800229A5EBA4B1B689A42E3D3BD4BAE
:202D8000180000F0CDFE03009AB2BB4B1A80BA4B1B881A00FF23134002D0B44B00221A80AD
:202DA000B24B00221A80AE4B1A68B44B1A60B24B1B881A00B24B1A60AF4B1A88A94B1A800B
:202DC000B04B01221A805EE01E23FB1800221A8013E01E203B1800229A5E3B1800215B5E22
:202DE000A349895CA84AD15401007B1800229B5E9BB201339AB27B181A801E243B1900228A
:202E00009B5E032BE5DDA04B180000F089FE03009AB2944B1A803B1900221A8016E01E2043
:202E20003B1800229B5E1A1D3B180021595E934B1B68CB188E49895C8E4AD1543B18002250
:202E40009B5E9BB201339AB23B181A801E23FB1800229A5E824B1B68043B9A42DFD3804B69
:202E60001A68864B1B68D3181A1F844B1A60824B1B881A007A4B1B68D3181A1F804B1A60D4
:202E8000804B00221A80784B1A88764B1B889A4203D17E4B1B88002B1FD1714B1B68DAB2E0
:202EA0000B217B18043A1A707B187A18127852081A707B181B789AB2754B1B88D3189AB2EC
:202EC000734B1A80714B01221A8001F05DFA714B5B685A1C6F4B5A6045E26A4B1B88002BC6
:202EE00003D0624B01221A800AE0604B00221A80624B1A685A4B1B68D31A1A1D5F4B1A60A5
:202F0000052000F07FFA544B00221A802BE201F0C5FA604B9B685A1C5E4B9A6023E20E230E
:202F2000FB1800221A804E4B180001F00FF81E23FB1800221A8013E01E203B1800229A5E6B
:202F40003B1800215B5E4A49895C4A4AD15401007B1800229B5E9BB201339AB27B181A806A
:202F60001E23FB1800229B5E032BE5DD414B180000F0D6FD03001A001C217B181A807B1871
:202F80001B880122134003D0434B03221A8021E01C23FB181B88002B1CD1404B64221A704F
:202FA000FEF75CFE031E12D13B4B02221A803C4B1800FEF739FC02000E217B181A807B18C0
:202FC0001B88002B06D0344B03221A8002E0324B03221A80052000F015FAC4E1204B1800A5
:202FE00000F0B4FF1E23FB1800221A8013E01E203B1800229A5E3B1800215B5E1C49895C09
:203000001C4AD15401007B1800229B5E9BB201339AB27B181A801E23FB1800229B5E032BDF
:20302000E5DD144B180000F07BFD03009AB21D4B1A80052000F0E6F9164B1B685A1C154BF0
:203040001A6090E1064B180000F080FF1E23FB1800221A803CE0C0461605002008190020FF
:20306000EC180020F8180020F618002034000020A804002020050020F41800200419002000
:20308000001900204A190020E818002020190020481900200C190020140500204402002096
:2030A00000F40108F21800201E203B1800229A5E3B1800215B5EB849895CB84AD154010003
:2030C0007B1800229B5E9BB201339AB27B181A801E243B1900229B5E032BE5DDAF4B180095
:2030E00000F01EFD03009AB2AD4B1A803B1900221A8014E01E203B1800229B5E1A1D3B18AA
:2031000000215B5EA449895CA44AD15401007B1800229B5E9BB201339AB27B181A801E2306
:20312000FB1800229B5E032BE4DD9C4B180000F0F7FC03009AB29B4B1A80994B1B881B041B
:20314000984A12889A18984B1A60052000F05AF9964B1B685A1C954B1A6004E11823FB1815
:2031600000221A80924B180000F0F0FE1E23FB1800221A8013E01E203B1800229A5E3B18BF
:2031800000215B5E8449895C844AD15401007B1800229B5E9BB201339AB27B181A801E24C5
:2031A0003B1900229A5E824B1B689A42E3D37B4B180000F0B5FC03009AB2794B1A807D4BCB
:2031C000180000F0ADFC03009AB2764B1A807A4B180000F0A5FC03001A000C23FB181A802D
:2031E0001823FB1800221A80744B642223219954724BDA229B5A1B0A9BB2D9B26F4B652263
:2032000099546E4BDA229B5AD9B26C4B662299546A4BD978694B67229954684B1979674B39
:2032200068229954654B692230219954634B6A22302199541C23FB1807221A80584B1B88CB
:203240001B04584A12889A185D4B1A603B1900221A8025E05A4B1B681B78DAB2594B1A70B5
:20326000574B1B685A1C564B1A60564B18781C243B191B8860331A00504BD31804331900AD
:2032800000F046FB3B193A19128802321A801E217B1800229B5E9BB201339AB27B181A8007
:2032A0001E23FB1800229A5E0C23FB181B889A42D0DB424B1C22BA18D22112885A523F4BD4
:2032C000D2229B5A5A1C90B23C4AD221505219003A4B64225B189B182A221A70374BD2229C
:2032E0009B5A5A1C90B2354AD22150521900334B64225B189B180D221A70304BD2229B5AAD
:2033000019002E4B64225B189B1800221A702E4B180000F0B1FA2C4B180000F087FB234B28
:203320001B695A1C214B1A611DE0052000F06AF8264B01221A7016E0204BD42200219952B7
:203340001E4BD4229B5A0422134399B21B4BD42299521A4BD6220121995204E0C04602E0D5
:20336000C04600E0C046154BD4229B5A0822934399B2124BD4229952154B00221A8007E08A
:203380000E4BD4229B5A1BB2002B01DA00F022F8C046BD4608B0B0BDA804002020050020CD
:2033A000F2180020F4180020441900200C190020EC1800202405002028050020B403002064
:2033C0001C050020FA1800201804002022190020A404002080B500AF094BD42200219952E1
:2033E000074BD4229B5A0422134399B2044BD4229952034BD62201219952C046BD4680BD00
:20340000B403002080B582B000AF7860324B642223219954304BDA229B5A1B0A9BB2D9B24A
:203420002D4B652299542C4BDA229B5AD9B22A4B66229954284BD978274B67229954264BA6
:203440001979254B68229954234B6922312199547B68062B22D87B689A00204BD3181B6857
:203460009F461D4B6A22342199541BE01A4B6A223321995416E0184B6A223621995411E0EA
:20348000154B692230219954134B6A223021995408E0114B6A223621995403E0FFF79AFF55
:2034A000002314E00C4B6B222A2199540A4B6C220D219954084B6D2200219954084B180080
:2034C00000F0DAF9064B180000F0B0FA00231800BD4602B080BDC046B403002058EB0008D1
:2034E0001804002080B582B000AFAF4B5B781AB2BB1D12021A80AC4B9B7819B2BB1DBA1DD7
:2035000012880A431A80BB1D00229B5EA64ADA21525A934202D004235B42A2E1BB1D198839
:20352000A14BDE229952BB1D00221A809E4BD2229B5A013B99B29C4BD22299529A4BD22228
:203540009B5A013B984AD35C2A2B02D001235B4287E1954BD2229B5A1A00934B9B5C0D2BE9
:2035600002D001235B427CE18F4BDB78522B32D18D4B1B79442B0BD1BB1D01221A808A4B8D
:20358000D2229B5A102B00D112E101235B4268E1854B1B79502B03D1BB1D05221A8007E105
:2035A000814B1B79412B03D1BB1D1E221A80FFE07D4B1B79422B03D1BB1D1A221A80F7E0B8
:2035C000794B1B79432B03D1BB1D1B221A80EFE002235B4245E1744BDB78572B29D1724BA0
:2035E0001B79442B1AD1704BD2229B5A0C3B6F4A134004D5013B04225242134301331A0073
:20360000BB1D1A80BB1D00229B5E002B02DD01235B4226E1BB1D02221A80C9E0624B1B79F3
:203620004A2B03D1BB1D04221A80C1E002235B4217E15D4BDB78542B12D15B4B1B79532B39
:2036400003D1BB1D03221A80B2E0574B1B79482B03D1BB1D1D221A80AAE002235B4200E112
:20366000514BDB78552B00D082E04F4B1B79442B03D1BB1D07221A809AE04B4B1B79532B7B
:2036800003D1BB1D09221A8092E0474B1B79542B03D1BB1D0D221A808AE0434B1B79452B31
:2036A00003D1BB1D06221A8082E03F4B1B79522B03D1BB1D08221A807AE03B4B1B79412B4F
:2036C00003D1BB1D0B221A8072E0374B1B79482B03D1BB1D0C221A806AE0334B1B79552B4C
:2036E00003D1BB1D15221A8062E02F4B1B79422B03D1BB1D0E221A805AE02B4B1B79582B53
:2037000003D1BB1D0F221A8052E0274B1B79592B03D1BB1D10221A804AE0234B1B79462B61
:2037200003D1BB1D11221A8042E01F4B1B79472B03D1BB1D12221A803AE01B4B1B79492B7C
:2037400003D1BB1D13221A8032E0174B1B795A2B03D1BB1D14221A802AE0134B1B794B2B73
:2037600003D1BB1D16221A8022E002235B4278E00D4BDB78452B07D10B4B1B79462B17D179
:20378000BB1D19221A8013E0074BDB78472B07D1054B1B79432B0BD1BB1D1C221A8007E0D5
:2037A00002235B425DE0C046B403002003000080BB1D00229B5E052B26D0BB1D00229B5E9E
:2037C000032B21D0BB1D00229B5E1A2B1CD0BB1D00229B5E192B17D0BB1D00229B5E1B2B4F
:2037E00012D0BB1D00229B5E1C2B0DD0BB1D00229B5E1E2B08D01D4B180000F047F9031EEB
:2038000002D101235B422CE0194A1A4B110018000AF052FD164BD2229B5A033B154A2A219C
:20382000D154134BD2229B5A023B124A0D21D1540F4BD2229B5A013B0E4A0021D1540D4BBB
:20384000180000F019F80B4A094B11001800FCF757FC031E02D003235B4202E0BB1D0022A5
:203860009B5E1800BD4602B080BDC046BD030020B4030020A804002090B587B000AF7860B9
:20388000214B00221A807B687B610FE07B691A781E4B1A707B695A1C7A611B781AB21A4BF0
:2038A00000215B5E53401AB2174B1A807B691B782A2BEBD1144B00229B5EDBB20C243A19C1
:2038C0001100180000F024F87B695A1C7A6121007A1812781A707B695A1C7A617A18527826
:2038E0001A707B695A1C7A612A221A707B695A1C7A610D221A707B6900221A707B691800B9
:20390000BD4607B090BDC0460C0500200E05002080B582B000AF02003960FB1D1A70FB1DCB
:203920001B781B09DAB23B681A703B68023300221A703B681B78092B0DD93B681B78093BC9
:20394000DAB23B681A703B681B7840221343DAB23B681A7006E03B681B7830221343DAB2B7
:203960003B681A703B680133FA1D12780F210A40D2B21A703B6801331B78092B11D93B68EF
:2039800001331A783B680133093AD2B21A703B6801331A783B68013340210A43D2B21A703D
:2039A00008E03B6801331A783B68013330210A43D2B21A70C046BD4602B080BD90B585B0C1
:2039C00000AF0200BB1D1A80BB1D00229A5E164BD11808243B19042218000AF01AFC210099
:2039E0007B1800221A71BB1D00229B5E092B05D17B18180000F094F8030011E0BB1D002275
:203A00009B5E052B06D10823FB18180000F088F8030005E00823FB18180000F081F8030036
:203A20001800BD4605B090BDB403002080B584B000AF7860134BD82202219952114BD622E8
:203A4000012199520F4BD422002199520D4BD4229B5A0122134399B20A4BD42299520A4B6B
:203A60001800FCF757FB02000E217B181A807B181A88054B1100180000F0B8FDC046BD462F
:203A800004B080BDB40300201804002080B584B000AF78600E23FB1800221A8030E00E21F3
:203AA0007B1800229B5E7A68D3181B782F2B11D97B1800229B5E7A68D3181B78402B16D84D
:203AC0007B1800229B5E7A68D3181B78462B0ED900231FE00E23FB1800229B5E7A68D31832
:203AE0001B782A2B01D1012314E0002312E00E217B1800229B5E9BB201339AB27B181A8008
:203B00000E23FB1800229B5E044AD221525A9342C5DB01231800BD4604B080BDB4030020DD
:203B200080B582B000AF78607B681B78402B0AD97B681B781A00DF231340373B9BB21B0311
:203B40009BB21AB206E07B681B78303B9BB21B039BB21AB27B6801331B78402B0BD97B6825
:203B600001331B781900DF230B40373B9BB21B029BB21BB207E07B6801331B78303B9BB2D9
:203B80001B029BB21BB213431AB27B6802331B78402B0BD97B6802331B781900DF230B40C1
:203BA000373B9BB21B019BB21BB207E07B6802331B78303B9BB21B019BB21BB213431AB26E
:203BC0007B6803331B78402B0AD97B6803331B781900DF230B409BB2373B9BB21BB205E01B
:203BE0007B6803331B78303B9BB21BB213431BB21800BD4602B080BD80B582B000AF786079
:203C00007B681B78402B07D97B681B781A00DF231340373B1A0703E07B681B78303B1A0786
:203C20007B6801331B78402B08D97B6801331B781900DF230B40373B1B0604E07B680133F0
:203C40001B78303B1B061A437B6802331B78402B08D97B6802331B781900DF230B40373B6E
:203C60001B0504E07B6802331B78303B1B051A437B6803331B78402B08D97B6803331B7809
:203C80001900DF230B40373B1B0404E07B6803331B78303B1B041A437B6804331B78402B9E
:203CA00008D97B6804331B781900DF230B40373B1B0304E07B6804331B78303B1B031A4309
:203CC0007B6805331B78402B08D97B6805331B781900DF230B40373B1B0204E07B68053348
:203CE0001B78303B1B021A437B6806331B78402B08D97B6806331B781900DF230B40373BCA
:203D00001B0104E07B6806331B78303B1B011A437B6807331B78402B07D97B6807331B7865
:203D20001900DF230B40373B03E07B6807331B78303B13431800BD4602B080BD90B583B0D5
:203D400000AF00237B60FC1C3B000121180009F0EDFA03002370FB1C1B78002B03D03B00D0
:203D6000FF221A708CE0484BD4229B5A1A000823134000D07FE03A007B68D3181A78424BC0
:203D8000D0215B5C9A4219D13F4BCC213E4A5A503D4BCC229B58591C3B4ACC201150390023
:203DA0007A688A1812781A70374BD22201219952354BCC229B5800221A7049E03A007B6895
:203DC000D3181A78304BD1215B5C9A422CD12E4BCC229B58591C2C4ACC20115039007A68BC
:203DE0008A1812781A70284BD2229B5A013399B2254BD2229952244BD4229B5A0822134309
:203E000099B2214BD42299521F4BD4229B5A0422934399B21C4BD42299521C4B01221A8002
:203E20001B4B32221A8013E0174BCC229B58591C154ACC20115039007A688A1812781A7006
:203E4000114BD2229B5A013399B20F4BD22299520D4BCC229B5800221A700B4BCC229A584A
:203E60000C4B9A4207D3084BCC21074A5A50064BD22201219952FB1C1B78002B00D162E7B9
:203E8000BD4603B090BDC046B4030020A4040020A60400201804002080B582B000AF284BEB
:203EA000D0222321995400237B6007E0244A7B68D31800221A707B6801337B607B68632BAF
:203EC000F4DD00237B6009E01D4A64217B68D3185B1800221A707B6801337B607B68632BEE
:203EE000F2DD174BC821174A5A50154BCC21144A5A50134BCC229B5800221A70104BC82218
:203F00009B5800221A700E4BD222002199520C4BD422002199520A4BDA220B499952084B6D
:203F2000D1220D219954064BE02200219952044BE22200219952C046BD4602B080BDC046B7
:203F4000B4030020180400203030000090B585B000AF78601D4BD2229A5A0A217B18033AA2
:203F60001A807B181B88093B1A007B681A600C23FB1800221A800E23FB1809221A8012E0BD
:203F80000E243B191A880C217B181B887918581C088019000D4B9A5C0D4B5A543B191A88A6
:203FA0003B1901321A800E23FA180A23FB1812881B889A42E4D30C23FB181B88044A002139
:203FC000D15400231800BD4605B090BDB4030020A804002080B582B000AF114B1A6C104B86
:203FE00001210A431A640E4B1B6C012213407B607B680B4BDA6B0A4B802149050A43DA6357
:20400000074BDA6B80235B0513403B603B68C023DB00180000F072FCC046BD4602B080BD49
:204020000010024090B58FB000AF78600C243B1918002C231A0000210AF0D6F87B681B68CF
:20404000124A93421DD13B198022D2011A603B198022D2051A623B19180003F0D3FF031E63
:2040600001D0FEF723FC0A4B1A6C094B802149030A431A64064B1A6C80235B031340BB602E
:20408000BB68C046BD460FB090BDC046002401400010024090B595B000AF78603C23FB18A8
:2040A000180014231A0000210AF09EF810243B1918002C231A0000210AF096F87B681B68CE
:2040C000224A93423DD13B1901221A603B1900225A603B19180003F095FF031E01D0FEF796
:2040E000E5FB1B4B1A6C1A4B8021C9010A431A64174B1A6C8023DB011340FB60FB68144B82
:204100005A6B134B04210A435A63114B5B6B04221340BB60BB683C217B1830221A607B1825
:2041200002225A607B1800229A607B180022DA607B1801221A617B18064A1900100001F0D5
:2041400033FBC046BD4615B090BDC04600380140001002400008005080B500AFC046FDE71F
:2041600080B500AFC046FDE780B500AFC046BD4680BD80B500AFC046BD4680BD80B500AF39
:2041800000F06EFBC046BD4680BD000080B500AF034B180001F034FEC046BD4680BDC046C7
:2041A000D42C002080B586B000AF7860144A154BD31A7B617B693B61134B1B68002B02D107
:2041C000114B124A1A60104B1A687B68D3183A699A4207D20AF044F803000C221A600123A5
:2041E0005B4209E0084B1B68FB60074B1A687B68D218054B1A60FB681800BD4606B080BD2C
:204200000040022000100000381900202033002080B500AFC046BD4680BD000080B500AF3A
:20422000464B1B680B2B00D981E09A00444BD3181B689F46434B1B88092B00D079E03F4B66
:2042400001221A603F4B00221A8072E03D4B1B88062B03D1394B02221A601AE0394B1B88B6
:20426000072B03D1354B08221A6012E0354B1B88152B03D1314B09221A600AE0314B1B88C1
:20428000172B03D12D4B0B221A6002E02B4B01221A602C4B00221A804CE02A4B00221A8064
:2042A000264B01221A6045E0264B00221A80234B01221A603EE0234B00221A80224B1800C6
:2042C000FDF748FA03001A00204B1A601F4B1B68002B03D1052000F03DF802E0012000F07D
:2042E00039F8164B01221A6024E0194B1B881800FDF7D6FA03001A00144B1A60134B1B68D1
:20430000002B03D1052000F025F802E0012000F021F80A4B01221A600CE0084B01221A6092
:2043200008E000F0BBF8054B01221A6002E0C04600E0C046C046BD4680BDC0463C19002076
:20434000D4EB00081605002000000208401900201805002080B582B000AF0200BB1D1A8011
:20436000084B1B78012B03D0064B1B78032B04D1BB1D1B881800FFF745F8C046BD4602B0F0
:2043800080BDC0464C19002080B586B000AF00237B613B4B1A8880231B019A4268D3384BBB
:2043A0001B881A0007231340FB60364B1B881B04354A12889A18354B1A60FB68002B11D1F0
:2043C00072B6C04601F08CF8304B18682C4B19882F4A0123FCF72AFF03007B6101F0A4F802
:2043E00062B62FE0FB680822D31ABB60244B1B881A00BB689B187B6000233B610BE0204B0F
:204400001B8802335A003B69D318224A4621D1543B6901333B61BB685A003B699A42EED8AC
:2044200072B6C04601F05CF8184B18687B6899B2174A0123FCF7FAFE03007B6101F074F84C
:2044400062B6C0460E4B1B881800FDF7DFF80C4B00221A80104B01221A807B69002B03D151
:204460000520FFF777FF06E00120FFF773FF02E00520FFF76FFF7B691800BD4606B080BDDF
:2044800048190020F2180020F41800201C05002024050020200500203400002080B586B0B7
:2044A00000AF00237B613D4B1B88002B00D06CE03B4B1B88002B68D0394B1B881A000723E5
:2044C0001340FB60374B1B881B04374A12889A18364B1A60FB68002B11D172B6C04600F094
:2044E000FFFF324B18682E4B1988314A0123FCF79DFE03007B6101F017F862B62FE0FB6811
:204500000822D31ABB60264B1B881A00BB689B187B6000233B610BE0214B1B8802335A0042
:204520003B69D318234A4621D1543B6901333B61BB685A003B699A42EED872B6C04600F09E
:20454000CFFF1A4B18687B6899B2194A0123FCF76DFE03007B6100F0E7FF62B6C046104B67
:204560001B881800FDF752F80D4B00221A800B4B01221A807B69002B03D10520FFF7EAFE35
:2045800007E00120FFF7E6FE03E00520FFF7E2FEC046C046BD4606B080BDC04634000020FF
:2045A00048190020F2180020F41800201C050020240500202005002080B500AFD9231A015A
:2045C000084B0021180009F00FFE074A00232221642009F0FFFB0200024B1A60C046BD4649
:2045E00080BDC0465019002054190020B0B586B000AF78600A00BB1C1A801723FB18022254
:204600001A701423FB18BA1C12881A807B68FB60294B1B68002B40D1002349E01422BB18F6
:204620001B881F2B05D81223FB18BA1812881A8003E01223FB1820221A80204B12217A182B
:2046400012881A807B181A88F9681D4B180009F03BFE194B1B6817257C19184A110018009B
:2046600009F00BFC030023707B191B78022B06D1114B144A9B585A1C0F4B12495A501220C5
:204680003B181B88FA68D318FB601422BB18B9183A18098812888A1A1A801423FB181B88FA
:2046A000002BBBD11723FB181B785A425341DBB21800BD4606B0B0BD50190020E0260020B9
:2046C000E22600208C0D000090B583B000AFFC1D08F010FE03002370FB1D1B78002B1DD179
:2046E000104B1B68BC1D104A1100180009F011FC03002370BB1D1B78012B0BD0094B0B4AC9
:204700009A5AFC1D0A4B1100180008F0B1FD0300237003E0074BD42200219952C046BD4692
:2047200003B090BD50190020B8260020680D0000BA260020B40300200D488546FFF768FD2B
:204740000C480D490D4A002302E0D458C4500433C4188C42F9D30A4A0A4C002301E0136045
:204760000432A242FBD309F081FDFDF7CFFBFEE700400220000000200C02002078ED00081A
:20478000100200201C330020FEE7000080B582B000AFFB1D00221A700B4B1A680A4B8021EB
:2047A00049000A431A60032000F010F8031E03D0FB1D01221A7001E0FFF70CFCFB1D1B788B
:2047C0001800BD4602B080BD0020024090B585B000AF78600F23FB1800221A701D4B1B7880
:2047E000002B2BD01C4B1C681A4B1B781900FA239800FBF7A1FC030019002000FBF79CFC8D
:204800000300180000F011FE031E12D17B68032B0AD8796801235B420022180000F0D0FDEE
:204820000E4B7A681A600DE00F23FB1801221A7008E00F23FB1801221A7003E00F23FB18E2
:2048400001221A700F23FB181B781800BD4605B090BDC0463C0000203000002038000020AC
:2048600080B500AF054B1B781A00054B1B68D218034B1A60C046BD4680BDC0463C0000202A
:204880000427002080B500AF024B1B681800BD4680BDC0460427002080B584B000AF786080
:2048A000FFF7F0FF0300BB607B68FB60FB68013305D00A4B1B781A00FB689B18FB60C046D2
:2048C000FFF7E0FF0200BB68D31AFA689A42F7D8C046C046BD4604B080BDC0463C00002082
:2048E00080B500AF044B1A68034B02218A431A60C046BD4680BDC04610E000E080B582B0C8
:2049000000AF7860064B1B68064A13401900044B7A680A431A60C046BD4602B080BDC0468A
:2049200000000140FFF9FFFF80B582B000AF786039607B681B68054A1A403B681A437B68C7
:204940001A60C046BD4602B080BDC046FFFF3FFE80B582B000AF78607B681A68E0235B04EF
:2049600013401800BD4602B080BD80B584B000AFF860B9607A60FB685B69BA6804210A40BF
:20498000072191400A00D2431A40BB6804210B40796899400B001A43FB685A61C046BD46C9
:2049A00004B080BD80B582B000AF786039607B685B693A6804210A40072191400A001A406A
:2049C0003B6804210B40DA4013001800BD4602B080BD80B584B000AFF860B9607A60FB68C7
:2049E0009B6ABA681F210A400F2191400A00D2431A407B689B0E0F211940BB681F200340D2
:204A000099400B001A43FB689A62C046BD4604B080BD80B582B000AF786039607B689A6A8E
:204A20003B685B035B0B1A437B689A62C046BD4602B080BD80B582B000AF786039607B6871
:204A40009B6A3A685203520BD2431A407B689A62C046BD4602B080BD80B584B000AFF86047
:204A6000B9607A60FB685B69BA681202D2431A40BB681B0279680B4004490B401A43FB68B3
:204A80005A61C046BD4604B080BDC04600FFFF0780B582B000AF78607B689B68054A1340E0
:204AA000802252051A437B689A60C046BD4602B080BDC046E8FFFF6F80B582B000AF786082
:204AC0007B689A6880235B051A4080235B059A4201D1012300E000231800BD4602B080BDB2
:204AE00080B582B000AF78607B689B6801221340012B01D1012300E000231800BD4602B07A
:204B000080BD80B582B000AF78607B689B6804221340042B01D1012300E000231800BD46C8
:204B200002B080BD80B588B000AF78601F23FB1800221A700023BB6100237B610023FB60D5
:204B40007B68002B01D101237FE17B689B6D002B0AD17B681800FFF765FA7B680022DA656C
:204B60007B685422002199547B681B681800FFF7A3FF031E15D17B681B681800FFF788FFB6
:204B8000B44B1B68B4491800FBF7D6FA030001335B00FB6002E0FB68013BFB60FB68002B65
:204BA000F9D17B681B681800FFF786FF031E0FD17B689B6D10221A437B689A657B68DB6DAA
:204BC00001221A437B68DA651F23FB1801221A707B681B681800FFF794FF03003B617B68A8
:204BE0009B6D1022134000D022E13B69002B00D01EE17B689B6D994A134002221A437B6832
:204C00009A657B681B681800FFF76AFF031E00D0ADE07B689A687B681B7E9B031A437B68FB
:204C20005B7EDB031A437B689B7E5B031A437B681B6B002B02D080235B0100E000231A43E4
:204C40007B68DB681A437B681B69002B04DA7B681B695B005B0801E080239B031A437B68DA
:204C60002C215B5C5B001343BA691343BB617B6820229B5C012B15D17B689B7E002B05D1BF
:204C8000BB69802252021343BB610BE07B689B6D20221A437B689A657B68DB6D01221A4386
:204CA0007B68DA657B685B6A002B0AD07B685A6AE0235B001A407B689B6A1343BA6913430F
:204CC000BB617B681B68DB68654A134019007B681B68BA690A43DA607B685B689B0F9A07F3
:204CE0007B68DB6C13437A6913437B617B683C229B5C012B11D17B685B689B0F9A077B6805
:204D00001B6C1A437B685B6C1A437B689B6C1A437B691343012213437B617B681B681B69E8
:204D2000504A134019007B681B687A690A431A617B685A68C0231B069A4218D07B685A684A
:204D40008023DB059A4212D07B685A6880231B069A420CD0444B1B68444A134019007B6802
:204D60005A68F0239B031A403F4B0A431A607B6818687B685B6B1A000021FFF7F6FD7B6802
:204D800018687B689B6B3A491A00FFF7EEFD7B681B69002B09D17B681B689A6A7B681B68F0
:204DA000102149420A439A6218E07B681A6980239B039A4212D17B681B689B6A7B68DB69FE
:204DC000013B9B001C221340102252429A4011007B681A6E7B681B680A439A627B681B683A
:204DE00000211800FFF7DEFD02007B685B6B9A420BD17B680022DA657B689B6D032293431C
:204E000001221A437B689A651CE07B689B6D1222934310221A437B689A657B68DB6D012280
:204E20001A437B68DA651F23FB1801221A7009E07B689B6D10221A437B689A651F23FB1857
:204E400001221A701F23FB181B781800BD4608B080BDC04630000020400D0300FDFEFFFF0E
:204E60000102DEFF02FCFF1F08270140FFFFC3FF04FFFF0780B586B000AF78603960172338
:204E8000FB1800221A700023FB607B6854229B5C012B01D10223C0E17B6854220121995459
:204EA0007B681B681800FFF72CFE031E00D0A3E13B685B68022B00D143E17B681A6980234E
:204EC0001B069A4204D07B681B69C14A934208D17B681A683B681B6819001000FFF799FDA1
:204EE000C9E07B681A6E3B685B681F210B400F2199400B00DB43134019003B681B685B038B
:204F00005B0B05D13B681B689B0E1F22134098E03B681B680122134000D091E03B681B6877
:204F20000222134000D089E03B681B680422134000D081E03B681B680822134000D079E025
:204F40003B681B681022134000D071E03B681B682022134000D069E03B681B6840221340D6
:204F600000D061E03B681B688022134000D059E03B681A6880235B00134051D13B681A683F
:204F800080239B00134049D13B681A688023DB00134041D13B681A6880231B01134039D11D
:204FA0003B681A6880235B01134031D13B681A6880239B01134029D13B681A688023DB0123
:204FC000134021D13B681A6880231B02134019D13B681A6880235B02134011D13B681A68EB
:204FE00080239B02134009D13B681A688023DB02134001D0122324E0002322E0112320E0E9
:2050000010231EE00F231CE00E231AE00D2318E00C2316E00B2314E00A2312E0092310E05C
:2050200008230EE007230CE006230AE0052308E0042306E0032304E0022302E0012300E0FC
:2050400000233A6852681F20024093400A001A437B681A663B685B689B085A1C7B68DB690D
:205060009A4208D87B6818683B6859683B681B681A00FFF7AEFC7B6818683B6819683B68A3
:205080009B681A00FFF7E8FC3B681B68002B00DBBCE0504B1800FFF75BFC03003B613B680F
:2050A0001B684D4A934222D13A6980231B0413401DD13B69802212041343464A19001000FD
:2050C000FFF732FC454B1B6845491800FBF734F803005A1C13005B009B189B00FB6002E063
:2050E000FB68013BFB60FB68002BF9D18EE03B681B683C4A93420ED13A6980235B04134098
:2051000009D13B69802252041343324A19001000FFF70AFC7AE03B681B68334A934200D080
:2051200074E03A698023DB03134000D06EE03B698022D2031343274A19001000FFF7F4FB96
:2051400064E07B681A6980231B069A4204D07B681B691F4A934207D17B681A683B681B6829
:2051600019001000FFF766FC3B681B68002B4DDA184B1800FFF7ECFB03003B613B681B6819
:20518000154A934208D13B69184A1340114A19001000FFF7C9FB39E03B681B68114A9342FC
:2051A00008D13B69124A13400A4A19001000FFF7BBFB2BE03B681B680B4A934226D13B69A4
:2051C0000C4A1340034A19001000FFF7ADFB1DE00400008008270140001000B03000002011
:2051E000400D0300004000B8002000B4FFFF7FFFFFFFFFFEFFFFBFFF7B689B6D20221A43D6
:205200007B689A651723FB1801221A707B685422002199541723FB181B781800BD4606B09A
:2052200080BDC04680B582B000AF0200FB1D1A70FB1D1B787F2B09D8FB1D1B781A001F2334
:205240001A40044B012191400A001A60C046BD4602B080BD00E100E080B582B000AF02005D
:20526000FB1D1A70FB1D1B787F2B10D8FB1D1B781A001F231340084901229A4013008022F2
:205280008B50BFF34F8FC046BFF36F8FC046C046BD4602B080BDC04600E100E090B583B0B0
:2052A00000AF02003960FB1D1A70FB1D1B787F2B28D82F4AFB1D1B785BB29B08C0339B004B
:2052C0009B58FA1D1278110003220A40D200FF2191400A00D2431A4011003B689B01FF220D
:2052E0001A40FB1D1B78180003230340DB009A401F48FB1D1B785BB29B080A43C0339B00D6
:205300001A5031E01B4AFB1D1B7819000F230B40083B9B0806339B00D31804331B68FA1DF6
:205320001278110003220A40D200FF2191400A00D2431A4011003B689B01FF221A40FB1D44
:205340001B78180003230340DB009A400948FB1D1B781C000F232340083B9B080A4306336B
:205360009B00C31804331A60C046BD4603B090BD00E100E000ED00E080B582B000AF786081
:205380007B685A1E80235B049A4201D3012310E00A4B7A68013A5A6001235B4203211800C3
:2053A000FFF77CFF054B00229A60044B07221A6000231800BD4602B080BDC04610E000E01B
:2053C00080B584B000AFB9607A600F217B18021C1A70BA687B181B785BB211001800FFF7E3
:2053E0005DFFC046BD4604B080BD80B582B000AF0200FB1D1A70FB1D1B785BB21800FFF7D7
:2054000011FFC046BD4602B080BD80B582B000AF0200FB1D1A70FB1D1B785BB21800FFF704
:205420001BFFC046BD4602B080BD80B582B000AF78607B681800FFF79FFF03001800BD46BF
:2054400002B080BDB0B586B000AFF860B9603A607B60214B1B78012B01D1022338E01E4B8A
:2054600001221A701C4B00225A6017257C19FA239B00180000F07AF8030023707B191B787C
:20548000002B1FD1FB68012B06D13A687B68B968080000F0B9F805E03A68BB681100180069
:2054A00009F0A2FA1723FC18FA239B00180000F05DF803002370094B5A69FB68D943074B76
:2054C0000A405A61044B00221A701723FB181B781800BD4606B0B0BD0827002000200240FD
:2054E00080B582B000AFFB1D00221A700B4B5B69002B0CDA094B0A4A9A60084B094A9A6065
:20550000064B5B69002B02DAFB1D01221A70FB1D1B781800BD4602B080BDC046002002408D
:2055200023016745AB89EFCD80B582B000AFFB1D01221A70FA239B00180000F017F80A4BAC
:205540005A69094B802109060A435A61064B5B69002B02DAFB1D00221A70FB1D1B781800D9
:20556000BD4602B080BDC0460020024080B584B000AF7860FFF786F90300FB60C0239B028E
:20558000BB600CE07B68013309D0FFF77BF90200FB68D31A7A689A4201D8032328E0164B32
:2055A0001B69BA681340EDD1134B1B69134A1340BB60114B124A1A61BB68002B11D0114BC9
:2055C000BA685A60012313E07B68013309D0FFF759F90200FB68D31A7A689A4201D8032391
:2055E00006E0054B1A698023DB021340ECD100231800BD4604B080BD00200240FA83000054
:20560000FB83080008270020B0B584B000AFF8603A607B600B4B5A690A4B01210A435A6108
:20562000FB683A681A60BFF36F8FC0467B681C0000231D00FB68043322001A60C046BD46B7
:2056400004B0B0BD00200240B0B584B000AF78603960334B1B78012B01D102235CE0304B23
:2056600001221A702E4B00225A600F257C19FA239B001800FFF77AFF030023702C003B190A
:205680001B78002B42D17B681B68042B0DD17B685B68180000F048F83C19FA239B001800B3
:2056A000FFF764FF0300237030E03B68012252421A607B689B68BB601AE07B685B68BA6854
:2056C0001100180000F044F80F257C19FA239B001800FFF74BFF030023707B191B78002BB4
:2056E00003D03B68BA681A600AE0BB680133BB607B689A687B68DB68D318BA689A42DCD399
:20570000084B5A69074B02218A435A61044B00221A700F23FB181B781800BD4604B0B0BD67
:20572000082700200020024080B582B000AF7860064B5A697B681A43044B802149020A43EE
:205740005A61C046BD4602B080BDC0460020024080B584B000AF786039600F4B5B690F4A2E
:205760001340FB607B68042B05D0FB68802292011343FB6003E0FB68094A1340FB603B6861
:20578000DA00FB681A43044B06490A435A61C046BD4604B080BDC0460020024007E0FFFF82
:2057A000FFDFFFFF0200010080B586B000AF7860396000237B614DE13B681B6801217A6927
:2057C00091400A001340FB60FB68002B00D13EE13B685B6803221340012B05D03B685B687D
:2057E00003221340022B30D17B689B683B617B695B0003229A401300DA433B6913403B6180
:205800003B68DA687B695B009A4013003A6913433B617B683A699A607B685B683B610122FD
:205820007B699A401300DA433B6913403B613B685B681B0901221A407B699A4013003A696C
:2058400013433B617B683A695A603B685B6803221340032B17D07B68DB683B617B695B0022
:2058600003229A401300DA433B6913403B613B689A687B695B009A4013003A6913433B6100
:205880007B683A69DA603B685B6803221340022B23D17B69DA087B6808329200D3583B610D
:2058A0007B69072213409B000F229A401300DA433B6913403B613B681A697B6907210B40A2
:2058C0009B009A4013003A6913433B617B69DA087B68083292003969D1507B681B683B6171
:2058E0007B695B0003229A401300DA433B6913403B613B685B6803221A407B695B009A40A9
:2059000013003A6913433B617B683A691A603B685A68C0239B02134000D198E0534A7B69DD
:205920009B0818339B009B583B617B6903221340DB000F229A401300DA433B6913403B614A
:205940007A68A023DB059A4219D07B68484A934213D07B68474A93420DD07B68464A934262
:2059600007D07B68454A934201D1042308E0052306E0032304E0022302E0012300E00023E2
:205980007A6903210A40D20093403A6913433B6136497B699B0818339B003A695A50334BC5
:2059A0001B683B61FB68DA433B6913403B613B685A6880235B03134003D03A69FB681343CD
:2059C0003B612A4B3A691A60284B5B683B61FB68DA433B6913403B613B685A6880239B030E
:2059E000134003D03A69FB6813433B611F4B3A695A601E4A8423D3583B61FB68DA433B69C8
:205A000013403B613B685A6880239B02134003D03A69FB6813433B61144984223B698B5052
:205A2000124A8023D3583B61FB68DA433B6913403B613B685A6880235B02134003D03A695F
:205A4000FB6813433B61094980223B698B507B6901337B613B681A687B69DA40131E00D066
:205A6000AAE6C046C046BD4606B080BD001802400004005000080050000C005000100050D2
:205A800080B584B000AF78600A00BB1C1A807B681B69BA1C1288134004D00F23FB18012235
:205AA0001A7003E00F23FB1800221A700F23FB181B781800BD4604B080BD80B582B000AF8E
:205AC000786008001100BB1C021C1A807B1C0A1C1A707B1C1B78002B04D0BB1C1A887B687A
:205AE0009A6103E0BB1C1A887B689A62C046BD4602B080BD80B584B000AF78600A00BB1CA7
:205B00001A800A23FB6002E0FB68013BFB60FB68002BF9D1BB1C1B88DB00064A9446634409
:205B20005B681B0C9BB29B059B0D9BB21800BD4604B080BD0098004080B584B000AF7860C5
:205B40000A00BB1C1A800A23FB6002E0FB68013BFB60FB68002BF9D1BB1C1B88DB00064A69
:205B6000944663441B681B0C9BB29B059B0D9BB21800BD4604B080BD0098004080B584B0CB
:205B800000AF78600A00BB1C1A800A23FB6002E0FB68013BFB60FB68002BF9D1BB1C1B88CD
:205BA000DB00064A944663445B681B0C9BB29B059B0D9BB21800BD4604B080BD0098004089
:205BC00090B587B002AF78607B68002B01D10123EAE07B68764A9B5CDBB2002B08D17A68E5
:205BE000A5239B000021D1547B68180007F004FD7B686F4A032199547B681B68180003F0EB
:205C000023F90F23FB1800221A7049E00F203B181A78796813009B009B18DB00CB181533F2
:205C200001221A703B181A78796813009B009B18DB00CB1814333A1812781A703B181A7840
:205C4000796813009B009B18DB00CB18173300221A703B181A78796813009B009B18DB004C
:205C6000CB18243300221A603B181A78796813009B009B18DB00CB18283300221A603B181F
:205C80001B7879685A1C13009B009B18DB00CB18043300221A603B181A783B1801321A7033
:205CA0007B681B790F217A1812789A42AED37B1800221A7056E00F243B191A7878685623DD
:205CC000FF33190013009B009B18DB00C3185B1800221A703B191A787868AA235900130044
:205CE0009B009B18DB00C3185B183A1912781A703B191A7878685823FF33190013009B008C
:205D00009B18DB00C3185B1800221A703B191A787868B223590013009B009B18DB00C318F0
:205D20005B1800221A603B191A787868B423590013009B009B18DB00C3185B1800221A6038
:205D40003B191A787868B623590013009B009B18DB00C3185B1800221A603B191A783B19EB
:205D600001321A707B681B790F22BA1812789A42A1D37B6818687B686A46197C1170596845
:205D80009A68DB6803F099F87B6800225A747B68074A012199547B681B7B012B03D17B68C8
:205DA000180001F0F1FB00231800BD4605B090BD9502000080B582B000AF78607A68A5237F
:205DC0009B00D35C012B01D1022314E07A68A5239B000121D1547B681B68180003F020F8CD
:205DE0007B681B68180004F02AFE7A68A5239B000021D15400231800BD4602B080BD000051
:205E000080B584B000AF78607B681B68180004F026FE0300FB607C4AA023D3580422134071
:205E200000D1EDE0FA6880231B02134004D07B68180000F035FBE4E0FA688023DB00134069
:205E400011D07B681B685A6C7B681B686F490A405A647B68180007F092FC7B680021180073
:205E600000F0E4F8CDE0FA688023DB01134008D07B681B685A6C7B681B6865490A405A6455
:205E8000BFE0FA6880239B01134008D07B681B685A6C7B681B685F490A405A64B1E0FA6862
:205EA00080235B0113402CD07B681B681A6C7B681B6804218A431A647B681B681A6C7B6803
:205EC0001B6808218A431A647A68B3239B00D35C012B09D17A68B3239B000021D1547B68C7
:205EE0000021180007F0CAFE7B68180007F088FC7B681B685A6C7B681B6847490A405A640A
:205F00007FE0FA6880231B0113401CD07B681B681A6C7B681B6808210A431A647B681B6816
:205F20005A6C7B681B683D490A405A647B681B681A6C7B681B6804210A431A647B6818006A
:205F400007F042FC5DE0FB688022134038D07B681B685A6C7B681B6831490A405A647A6879
:205F6000B3239B00D35C002B25D17B681B681A6C7B681B6804210A431A647B681B681A6C32
:205F80007B681B6808210A431A647A68B3239B000121D1547B681B685B6D9B083C2213408B
:205FA00019007A68B4239B00D1507B680121180007F064FE25E07B68180007F005FC20E0E5
:205FC000FA6880239B0013400CD07B681B685A6C7B681B6813490A405A647B68180007F00A
:205FE000BFFB0EE0FA6880235B00134009D07B681B685A6C7B681B680B490A405A6400E09F
:20600000C046BD4604B080BD00000140FFFB0000FFBF0000FFDF0000FFEF0000FFF70000CB
:206020007FFF0000FFFD0000FFFE000080B582B000AF78600A00FB1C1A707A68A5239B000B
:20604000D35C012B01D1022316E07A68A5239B000121D1547B68FA1C12785A747B681A68B6
:20606000FB1C1B781900100004F0D6FC7A68A5239B000021D15400231800BD4602B080BDCF
:2060800090B585B000AF78600C0010001900FB1C221C1A703B00021C1A80BB1C0A1C1A7071
:2060A0000B23FB1800221A70FB1C1B785BB2002B10DAFB1C1B7807221A4013009B009B1899
:2060C000DB0010337A68D3180433FB60FB6801225A7010E0FB1C1B7807221A4013009B0028
:2060E0009B18DB005133FF337A68D3180433FB60FB6800225A70FB1C1B7807221340DAB2FC
:20610000FB681A703B001A88FB681A61FB68BA1C1278DA70BB1C1B78022B02D1FB680022DB
:206120001A717A68A5239B00D35C012B01D1022313E07A68A5239B000121D1547B681B6858
:20614000FA681100180002F0E3FE7A68A5239B000021D1540B23FB181B781800BD4605B0B2
:2061600090BD80B584B000AF78600A00FB1C1A70FB1C1B785BB2002B10DAFB1C1B78072298
:206180001A4013009B009B18DB0010337A68D3180433FB60FB6801225A7010E0FB1C1B78DD
:2061A00007221A4013009B009B18DB005133FF337A68D3180433FB60FB6800225A70FB1CA5
:2061C0001B7807221340DAB2FB681A707A68A5239B00D35C012B01D1022311E07A68A52305
:2061E0009B000121D1547B681B68FA681100180003F0C2F97A68A5239B000021D154002370
:206200001800BD4604B080BD80B586B000AFF8607A603B600B203B180A1C1A7001007B18C9
:206220001B7807221A4013009B009B18DB005133FF33FA68D31804337B617B697A685A6175
:206240007B693A689A617B690022DA617B6900225A707B181B7807221340DAB27B691A7010
:20626000FB681B687A691100180003F0EBFA00231800BD4606B080BD80B582B000AF786035
:206280000A00FB1C1A70FB1C1B7807221A407868B823590013009B009B18DB00C3185B1888
:2062A0001B681800BD4602B080BD80B586B000AFF8607A603B600B203B180A1C1A703B18E9
:2062C0001B7807221A4013009B009B18DB001033FA68D31804337B617B697A685A617B6964
:2062E0003A689A617B692422012199547B693A681A627B690022DA617B6901225A703B1861
:206300001B7807221340DAB27B691A70FB681B687A691100180003F095FA00231800BD46C2
:2063200006B080BD80B584B000AF78600A00FB1C1A70FB1C1B78072213407A681279934267
:2063400001D9012348E0FB1C1B785BB2002B10DAFB1C1B7807221A4013009B009B18DB00E2
:2063600010337A68D3180433FB60FB6801225A700EE0FB1C1A7813009B009B18DB005133D4
:20638000FF337A68D3180433FB60FB6800225A70FB6801229A70FB1C1B7807221340DAB2DB
:2063A000FB681A707A68A5239B00D35C012B01D1022311E07A68A5239B000121D1547B68F9
:2063C0001B68FA681100180004F052FA7A68A5239B000021D15400231800BD4604B080BDB5
:2063E00080B584B000AF78600A00FB1C1A70FB1C1B780F2213407A681279934201D9012394
:206400004AE0FB1C1B785BB2002B10DAFB1C1B7807221A4013009B009B18DB0010337A68F8
:20642000D3180433FB60FB6801225A7010E0FB1C1B7807221A4013009B009B18DB005133B2
:20644000FF337A68D3180433FB60FB6800225A70FB6800229A70FB1C1B7807221340DAB21B
:20646000FB681A707A68A5239B00D35C012B01D1022311E07A68A5239B000121D1547B6838
:206480001B68FA681100180004F034FA7A68A5239B000021D15400231800BD4604B080BD12
:2064A000B0B58EB000AF786055E37B681B685A6C22203B181A803B181B88DAB221243B1904
:2064C0000F210A401A703B191B78002B00D02BE13B181B881022134040D17B681B681B6855
:2064E000C54A1340BB607B681B68BA68802109020A431A607B6814337B637B6B1B78DB00C8
:20650000BE4A944663441B681B0C9B059A0D7B6BDA617B6B5A697B6BDB69D2187B6B5A6182
:206520007B680021180007F0FDF87B685B7CDBB2002B00D10FE37B6B9B69002B00D00AE34C
:206540007B685B7CDBB2802252421343DAB27B681B68DA647B6800225A74FCE27B6855331C
:20656000FF337B637B681B681A6832217B181A807B181A8880231B01134029D07B681A68FE
:206580007B6B1B7819001000FFF7B4FA03001A007B6BDA617B6818687B68A7229200991825
:2065A0007B6BDA887B6BDB699BB204F0DBFA7B681B681B68924A1340FB607B681B68FA6818
:2065C00080210A431A607B68180007F075F8C2E23223FB1800229B5E002B00DBBBE27B6847
:2065E0001B681B68864A1340FB627B681B68FA6A80210A431A607B681A687B6B1B781900EC
:206600001000FFF777FA03001A007B6BDA617B6BDB69002B1AD07B6B5B69002B16D07B68E8
:2066200018687B6B59697B6BDA887B6BDB699BB204F098FA7B6B5A697B6BDB69D2187B6B4A
:206640005A617B680021180007F04BF87B681B681A6832217B181A807B181A8880231B01CD
:20666000134000D077E27B181A88C0239B011A40C0239B019A4200D16DE2604B5A685F4BFE
:20668000920192095A607B6B1B693E2B16D97B6B1B695B097B617B6B1B691F22134002D1D5
:2066A0007B69013B7B61554B5A687B699B061A43524B802109060A435A601EE07B6B1B69DE
:2066C000002B07D14D4B5A684C4B802109060A435A6012E07B6B1B695B087B617B6B1B690A
:2066E0000122134002D07B6901337B61434B59687B699A06414B0A435A607B681B681B680F
:20670000404A13403B613B698022520153403B613B698022920153403B617B681B683A6927
:2067200039490A431A6016E27B681B681A0021217B181B789B00D3181A6832203B181A80E9
:206740003B1800229B5E002B00DBE0E07B681B681A007B181B789B00D3181B68284A134091
:20676000FB617B681B681A0008007B181B789B00D318FA6980210A431A603B181A781300C6
:206780009B009B18DB005133FF337A68D31804337B637B6B1B7B002B1CD17B681A687B6B59
:2067A0001B7824257C1919001000FFF7A3F9030023802C003B191B88002B00D17FE07B68A6
:2067C00018687B6B59697B6BDA883B191B8804F0C9F974E07B6BDB78022B17D12423FC189F
:2067E0003223FB181A88796B7B68180000F0C8F90300238063E0C0460F8FFF070098004094
:206800008F0FFF078FBFFF07808000007B681B681A007B6B1B789B00D3181B68D44A13400D
:20682000BB617B681B681A007B6B1B789B00D318BA69D0490A431A607B681B681A007B6B54
:206840001B789B00D3181A688023DB0113401BD07B681A687B6B1B7824257C1919001000FB
:20686000FFF76AF9030023802C003B191B88002B25D07B6818687B6B59697B6B1A893B19EE
:206880001B8804F06FF91AE07B681A687B6B1B7824257C1919001000FFF770F90300238015
:2068A0002C003B191B88002B09D07B6818687B6B59697B6B5A893B191B8804F053F97B6BC0
:2068C000DA6924217B181B88D2187B6BDA617B6B5A697B181B88D2187B6B5A617B6B9B699B
:2068E000002B05D07B181A887B6B1B699A4207D27B6B1A787B681100180006F0F2FE06E0F4
:206900007B681B687A6B1100180002F09BFF32203B181B888022134000D11CE121217B1897
